{
  "contractName": "Auction",
  "abi": [
    {
      "anonymous": false,
      "inputs": [
        {
          "indexed": false,
          "internalType": "uint256",
          "name": "Id",
          "type": "uint256"
        },
        {
          "indexed": false,
          "internalType": "string",
          "name": "name",
          "type": "string"
        },
        {
          "indexed": false,
          "internalType": "uint256",
          "name": "baseprice",
          "type": "uint256"
        },
        {
          "indexed": false,
          "internalType": "address",
          "name": "owner",
          "type": "address"
        },
        {
          "indexed": false,
          "internalType": "bool",
          "name": "purchased",
          "type": "bool"
        },
        {
          "indexed": false,
          "internalType": "string",
          "name": "discription",
          "type": "string"
        },
        {
          "indexed": false,
          "internalType": "uint256",
          "name": "bidcount",
          "type": "uint256"
        },
        {
          "indexed": false,
          "internalType": "string",
          "name": "category",
          "type": "string"
        }
      ],
      "name": "ProductCreated",
      "type": "event"
    },
    {
      "anonymous": false,
      "inputs": [
        {
          "indexed": false,
          "internalType": "uint256",
          "name": "Id",
          "type": "uint256"
        },
        {
          "indexed": false,
          "internalType": "string",
          "name": "name",
          "type": "string"
        },
        {
          "indexed": false,
          "internalType": "uint256",
          "name": "baseprice",
          "type": "uint256"
        },
        {
          "indexed": false,
          "internalType": "address payable",
          "name": "owner",
          "type": "address"
        },
        {
          "indexed": false,
          "internalType": "bool",
          "name": "purchased",
          "type": "bool"
        },
        {
          "indexed": false,
          "internalType": "uint256",
          "name": "createdAt",
          "type": "uint256"
        },
        {
          "indexed": false,
          "internalType": "uint256",
          "name": "currentBid",
          "type": "uint256"
        },
        {
          "indexed": false,
          "internalType": "address payable",
          "name": "currentBidder",
          "type": "address"
        },
        {
          "indexed": false,
          "internalType": "uint256",
          "name": "bidcount",
          "type": "uint256"
        },
        {
          "indexed": false,
          "internalType": "string",
          "name": "category",
          "type": "string"
        }
      ],
      "name": "bidplaced",
      "type": "event"
    },
    {
      "anonymous": false,
      "inputs": [
        {
          "indexed": false,
          "internalType": "uint256",
          "name": "Id",
          "type": "uint256"
        },
        {
          "indexed": false,
          "internalType": "string",
          "name": "name",
          "type": "string"
        },
        {
          "indexed": false,
          "internalType": "uint256",
          "name": "baseprice",
          "type": "uint256"
        },
        {
          "indexed": false,
          "internalType": "bool",
          "name": "purchased",
          "type": "bool"
        },
        {
          "indexed": false,
          "internalType": "uint256",
          "name": "currentBid",
          "type": "uint256"
        },
        {
          "indexed": false,
          "internalType": "address payable",
          "name": "currentBidder",
          "type": "address"
        },
        {
          "indexed": false,
          "internalType": "uint256",
          "name": "bidcount",
          "type": "uint256"
        },
        {
          "indexed": false,
          "internalType": "string",
          "name": "category",
          "type": "string"
        }
      ],
      "name": "closeauction",
      "type": "event"
    },
    {
      "constant": true,
      "inputs": [
        {
          "internalType": "uint256",
          "name": "",
          "type": "uint256"
        }
      ],
      "name": "arrayhashes",
      "outputs": [
        {
          "internalType": "string",
          "name": "",
          "type": "string"
        }
      ],
      "payable": false,
      "stateMutability": "view",
      "type": "function"
    },
    {
      "constant": true,
      "inputs": [],
      "name": "productCount",
      "outputs": [
        {
          "internalType": "uint256",
          "name": "",
          "type": "uint256"
        }
      ],
      "payable": false,
      "stateMutability": "view",
      "type": "function"
    },
    {
      "constant": true,
      "inputs": [
        {
          "internalType": "uint256",
          "name": "",
          "type": "uint256"
        }
      ],
      "name": "products",
      "outputs": [
        {
          "internalType": "uint256",
          "name": "Id",
          "type": "uint256"
        },
        {
          "internalType": "string",
          "name": "name",
          "type": "string"
        },
        {
          "internalType": "uint256",
          "name": "baseprice",
          "type": "uint256"
        },
        {
          "internalType": "address payable",
          "name": "owner",
          "type": "address"
        },
        {
          "internalType": "bool",
          "name": "purchased",
          "type": "bool"
        },
        {
          "internalType": "uint256",
          "name": "createdAt",
          "type": "uint256"
        },
        {
          "internalType": "uint256",
          "name": "currentBid",
          "type": "uint256"
        },
        {
          "internalType": "address payable",
          "name": "currentBidder",
          "type": "address"
        },
        {
          "internalType": "uint256",
          "name": "currentbidtime",
          "type": "uint256"
        },
        {
          "internalType": "string",
          "name": "discription",
          "type": "string"
        },
        {
          "internalType": "uint256",
          "name": "bidcount",
          "type": "uint256"
        },
        {
          "internalType": "string",
          "name": "category",
          "type": "string"
        }
      ],
      "payable": false,
      "stateMutability": "view",
      "type": "function"
    },
    {
      "constant": false,
      "inputs": [
        {
          "internalType": "string",
          "name": "_hash",
          "type": "string"
        }
      ],
      "name": "set",
      "outputs": [],
      "payable": false,
      "stateMutability": "nonpayable",
      "type": "function"
    },
    {
      "constant": true,
      "inputs": [],
      "name": "get",
      "outputs": [
        {
          "internalType": "string",
          "name": "",
          "type": "string"
        }
      ],
      "payable": false,
      "stateMutability": "view",
      "type": "function"
    },
    {
      "constant": false,
      "inputs": [
        {
          "internalType": "string",
          "name": "_name",
          "type": "string"
        },
        {
          "internalType": "uint256",
          "name": "_baseprice",
          "type": "uint256"
        },
        {
          "internalType": "string",
          "name": "_discription",
          "type": "string"
        },
        {
          "internalType": "string",
          "name": "_category",
          "type": "string"
        }
      ],
      "name": "createProduct",
      "outputs": [],
      "payable": true,
      "stateMutability": "payable",
      "type": "function"
    },
    {
      "constant": false,
      "inputs": [
        {
          "internalType": "uint256",
          "name": "_id",
          "type": "uint256"
        }
      ],
      "name": "placeBid",
      "outputs": [],
      "payable": true,
      "stateMutability": "payable",
      "type": "function"
    },
    {
      "constant": false,
      "inputs": [
        {
          "internalType": "uint256",
          "name": "_id",
          "type": "uint256"
        }
      ],
      "name": "Auctionstatus",
      "outputs": [
        {
          "internalType": "bool",
          "name": "",
          "type": "bool"
        }
      ],
      "payable": false,
      "stateMutability": "nonpayable",
      "type": "function"
    },
    {
      "constant": false,
      "inputs": [
        {
          "internalType": "uint256",
          "name": "_id",
          "type": "uint256"
        }
      ],
      "name": "closeAuction",
      "outputs": [],
      "payable": true,
      "stateMutability": "payable",
      "type": "function"
    }
  ],
  "bytecode": "0x6080604052600060015534801561001557600080fd5b50611d24806100256000396000f3fe6080604052600436106100865760003560e01c80636d4ce63c116100595780636d4ce63c14610428578063764b7c18146104b85780637acc0b201461050b5780639979ef4514610732578063e0f6ef871461076057610086565b806307877cff1461008b578063236ed8f31461027e5780634daf44cd146102ac5780634ed3885e14610360575b600080fd5b61027c600480360360808110156100a157600080fd5b81019080803590602001906401000000008111156100be57600080fd5b8201836020820111156100d057600080fd5b803590602001918460018302840111640100000000831117156100f257600080fd5b91908080601f016020809104026020016040519081016040528093929190818152602001838380828437600081840152601f19601f820116905080830192505050505050509192919290803590602001909291908035906020019064010000000081111561015f57600080fd5b82018360208201111561017157600080fd5b8035906020019184600183028401116401000000008311171561019357600080fd5b91908080601f016020809104026020016040519081016040528093929190818152602001838380828437600081840152601f19601f820116905080830192505050505050509192919290803590602001906401000000008111156101f657600080fd5b82018360208201111561020857600080fd5b8035906020019184600183028401116401000000008311171561022a57600080fd5b91908080601f016020809104026020016040519081016040528093929190818152602001838380828437600081840152601f19601f82011690508083019250505050505050919291929050505061078b565b005b6102aa6004803603602081101561029457600080fd5b8101908080359060200190929190505050610b71565b005b3480156102b857600080fd5b506102e5600480360360208110156102cf57600080fd5b81019080803590602001909291905050506112ca565b6040518080602001828103825283818151815260200191508051906020019080838360005b8381101561032557808201518184015260208101905061030a565b50505050905090810190601f1680156103525780820380516001836020036101000a031916815260200191505b509250505060405180910390f35b34801561036c57600080fd5b506104266004803603602081101561038357600080fd5b81019080803590602001906401000000008111156103a057600080fd5b8201836020820111156103b257600080fd5b803590602001918460018302840111640100000000831117156103d457600080fd5b91908080601f016020809104026020016040519081016040528093929190818152602001838380828437600081840152601f19601f820116905080830192505050505050509192919290505050611383565b005b34801561043457600080fd5b5061043d6113dc565b6040518080602001828103825283818151815260200191508051906020019080838360005b8381101561047d578082015181840152602081019050610462565b50505050905090810190601f1680156104aa5780820380516001836020036101000a031916815260200191505b509250505060405180910390f35b3480156104c457600080fd5b506104f1600480360360208110156104db57600080fd5b810190808035906020019092919050505061147e565b604051808215151515815260200191505060405180910390f35b34801561051757600080fd5b506105446004803603602081101561052e57600080fd5b81019080803590602001909291905050506114b4565b604051808d8152602001806020018c81526020018b73ffffffffffffffffffffffffffffffffffffffff1673ffffffffffffffffffffffffffffffffffffffff1681526020018a1515151581526020018981526020018881526020018773ffffffffffffffffffffffffffffffffffffffff1673ffffffffffffffffffffffffffffffffffffffff168152602001868152602001806020018581526020018060200184810384528f818151815260200191508051906020019080838360005b8381101561061e578082015181840152602081019050610603565b50505050905090810190601f16801561064b5780820380516001836020036101000a031916815260200191505b50848103835287818151815260200191508051906020019080838360005b83811015610684578082015181840152602081019050610669565b50505050905090810190601f1680156106b15780820380516001836020036101000a031916815260200191505b50848103825285818151815260200191508051906020019080838360005b838110156106ea5780820151818401526020810190506106cf565b50505050905090810190601f1680156107175780820380516001836020036101000a031916815260200191505b509f5050505050505050505050505050505060405180910390f35b61075e6004803603602081101561074857600080fd5b8101908080359060200190929190505050611729565b005b34801561076c57600080fd5b50610775611b35565b6040518082815260200191505060405180910390f35b600084511161079957600080fd5b600083116107a657600080fd5b60016000815480929190600101919050555060405180610180016040528060015481526020018581526020018481526020013373ffffffffffffffffffffffffffffffffffffffff1681526020016000151581526020014281526020018481526020013373ffffffffffffffffffffffffffffffffffffffff1681526020014281526020018381526020016000815260200182815250600360006001548152602001908152602001600020600082015181600001556020820151816001019080519060200190610877929190611b3b565b506040820151816002015560608201518160030160006101000a81548173ffffffffffffffffffffffffffffffffffffffff021916908373ffffffffffffffffffffffffffffffffffffffff16021790555060808201518160030160146101000a81548160ff02191690831515021790555060a0820151816004015560c0820151816005015560e08201518160060160006101000a81548173ffffffffffffffffffffffffffffffffffffffff021916908373ffffffffffffffffffffffffffffffffffffffff160217905550610100820151816007015561012082015181600801908051906020019061096c929190611b3b565b50610140820151816009015561016082015181600a019080519060200190610995929190611b3b565b509050507f79b20e866b3d8a747137399d4912ef8f96009ea7ec6d76493cbbed18d92f733760015485853360008760008860405180898152602001806020018881526020018773ffffffffffffffffffffffffffffffffffffffff1673ffffffffffffffffffffffffffffffffffffffff16815260200186151515158152602001806020018581526020018060200184810384528b818151815260200191508051906020019080838360005b83811015610a5c578082015181840152602081019050610a41565b50505050905090810190601f168015610a895780820380516001836020036101000a031916815260200191505b50848103835287818151815260200191508051906020019080838360005b83811015610ac2578082015181840152602081019050610aa7565b50505050905090810190601f168015610aef5780820380516001836020036101000a031916815260200191505b50848103825285818151815260200191508051906020019080838360005b83811015610b28578082015181840152602081019050610b0d565b50505050905090810190601f168015610b555780820380516001836020036101000a031916815260200191505b509b50505050505050505050505060405180910390a150505050565b80600154600360008381526020019081526020016000205050610b938261147e565b15610b9d576112c6565b610ba5611bbb565b600360008481526020019081526020016000206040518061018001604052908160008201548152602001600182018054600181600116156101000203166002900480601f016020809104026020016040519081016040528092919081815260200182805460018160011615610100020316600290048015610c675780601f10610c3c57610100808354040283529160200191610c67565b820191906000526020600020905b815481529060010190602001808311610c4a57829003601f168201915b50505050508152602001600282015481526020016003820160009054906101000a900473ffffffffffffffffffffffffffffffffffffffff1673ffffffffffffffffffffffffffffffffffffffff1673ffffffffffffffffffffffffffffffffffffffff1681526020016003820160149054906101000a900460ff1615151515815260200160048201548152602001600582015481526020016006820160009054906101000a900473ffffffffffffffffffffffffffffffffffffffff1673ffffffffffffffffffffffffffffffffffffffff1673ffffffffffffffffffffffffffffffffffffffff16815260200160078201548152602001600882018054600181600116156101000203166002900480601f016020809104026020016040519081016040528092919081815260200182805460018160011615610100020316600290048015610df85780601f10610dcd57610100808354040283529160200191610df8565b820191906000526020600020905b815481529060010190602001808311610ddb57829003601f168201915b5050505050815260200160098201548152602001600a82018054600181600116156101000203166002900480601f016020809104026020016040519081016040528092919081815260200182805460018160011615610100020316600290048015610ea45780601f10610e7957610100808354040283529160200191610ea4565b820191906000526020600020905b815481529060010190602001808311610e8757829003601f168201915b50505050508152505090506000816060015190508160c00151341015610ec957600080fd5b816080015115610ed857600080fd5b3373ffffffffffffffffffffffffffffffffffffffff168173ffffffffffffffffffffffffffffffffffffffff161415610f1157600080fd5b33826060019073ffffffffffffffffffffffffffffffffffffffff16908173ffffffffffffffffffffffffffffffffffffffff168152505060018260800190151590811515815250508160036000868152602001908152602001600020600082015181600001556020820151816001019080519060200190610f94929190611b3b565b506040820151816002015560608201518160030160006101000a81548173ffffffffffffffffffffffffffffffffffffffff021916908373ffffffffffffffffffffffffffffffffffffffff16021790555060808201518160030160146101000a81548160ff02191690831515021790555060a0820151816004015560c0820151816005015560e08201518160060160006101000a81548173ffffffffffffffffffffffffffffffffffffffff021916908373ffffffffffffffffffffffffffffffffffffffff1602179055506101008201518160070155610120820151816008019080519060200190611089929190611b3b565b50610140820151816009015561016082015181600a0190805190602001906110b2929190611b3b565b509050508073ffffffffffffffffffffffffffffffffffffffff166108fc349081150290604051600060405180830381858888f193505050501580156110fc573d6000803e3d6000fd5b507f65ce72df2cabf9df3c8a6e7e2928cba08fce370e12a856c22d633d6785a51ee282600001518360200151846040015160018660c001518760600151600360008c815260200190815260200160002060090154600360008d8152602001908152602001600020600a016040518089815260200180602001888152602001871515151581526020018681526020018573ffffffffffffffffffffffffffffffffffffffff1673ffffffffffffffffffffffffffffffffffffffff1681526020018481526020018060200183810383528a818151815260200191508051906020019080838360005b838110156111fe5780820151818401526020810190506111e3565b50505050905090810190601f16801561122b5780820380516001836020036101000a031916815260200191505b508381038252848181546001816001161561010002031660029004815260200191508054600181600116156101000203166002900480156112ad5780601f10611282576101008083540402835291602001916112ad565b820191906000526020600020905b81548152906001019060200180831161129057829003601f168201915b50509a505050505050505050505060405180910390a150505b5050565b600081815481106112d757fe5b906000526020600020016000915090508054600181600116156101000203166002900480601f01602080910402602001604051908101604052809291908181526020018280546001816001161561010002031660029004801561137b5780601f106113505761010080835404028352916020019161137b565b820191906000526020600020905b81548152906001019060200180831161135e57829003601f168201915b505050505081565b8060029080519060200190611399929190611c4a565b5060008190806001815401808255809150509060018203906000526020600020016000909192909190915090805190602001906113d7929190611c4a565b505050565b606060028054600181600116156101000203166002900480601f0160208091040260200160405190810160405280929190818152602001828054600181600116156101000203166002900480156114745780601f1061144957610100808354040283529160200191611474565b820191906000526020600020905b81548152906001019060200180831161145757829003601f168201915b5050505050905090565b6000603c6003600084815260200190815260200160002060040154420310156114aa57600190506114af565b600090505b919050565b6003602052806000526040600020600091509050806000015490806001018054600181600116156101000203166002900480601f0160208091040260200160405190810160405280929190818152602001828054600181600116156101000203166002900480156115665780601f1061153b57610100808354040283529160200191611566565b820191906000526020600020905b81548152906001019060200180831161154957829003601f168201915b5050505050908060020154908060030160009054906101000a900473ffffffffffffffffffffffffffffffffffffffff16908060030160149054906101000a900460ff16908060040154908060050154908060060160009054906101000a900473ffffffffffffffffffffffffffffffffffffffff1690806007015490806008018054600181600116156101000203166002900480601f01602080910402602001604051908101604052809291908181526020018280546001816001161561010002031660029004801561167b5780601f106116505761010080835404028352916020019161167b565b820191906000526020600020905b81548152906001019060200180831161165e57829003601f168201915b50505050509080600901549080600a018054600181600116156101000203166002900480601f01602080910402602001604051908101604052809291908181526020018280546001816001161561010002031660029004801561171f5780601f106116f45761010080835404028352916020019161171f565b820191906000526020600020905b81548152906001019060200180831161170257829003601f168201915b505050505090508c565b80603c60036000838152602001908152602001600020600401544203111561175057600080fd5b81600f60036000838152602001908152602001600020600701544203101561177757600080fd5b6706f05b59d3b200006003600085815260200190815260200160002060050154016003600085815260200190815260200160002060050181905550336003600085815260200190815260200160002060060160006101000a81548173ffffffffffffffffffffffffffffffffffffffff021916908373ffffffffffffffffffffffffffffffffffffffff160217905550426003600085815260200190815260200160002060070181905550600160036000858152602001908152602001600020600901540160036000858152602001908152602001600020600901819055507f87bc609190cf4ff0714b1789eaa756abd9c54e07344430d0f53878da3da4cfb8836003600086815260200190815260200160002060010160036000878152602001908152602001600020600201546003600088815260200190815260200160002060030160009054906101000a900473ffffffffffffffffffffffffffffffffffffffff166003600089815260200190815260200160002060030160149054906101000a900460ff1642600360008b815260200190815260200160002060050154600360008c815260200190815260200160002060060160009054906101000a900473ffffffffffffffffffffffffffffffffffffffff16600360008d815260200190815260200160002060090154600360008e8152602001908152602001600020600a01604051808b8152602001806020018a81526020018973ffffffffffffffffffffffffffffffffffffffff1673ffffffffffffffffffffffffffffffffffffffff168152602001881515151581526020018781526020018681526020018573ffffffffffffffffffffffffffffffffffffffff1673ffffffffffffffffffffffffffffffffffffffff1681526020018481526020018060200183810383528c818154600181600116156101000203166002900481526020019150805460018160011615610100020316600290048015611a955780601f10611a6a57610100808354040283529160200191611a95565b820191906000526020600020905b815481529060010190602001808311611a7857829003601f168201915b5050838103825284818154600181600116156101000203166002900481526020019150805460018160011615610100020316600290048015611b185780601f10611aed57610100808354040283529160200191611b18565b820191906000526020600020905b815481529060010190602001808311611afb57829003601f168201915b50509c5050505050505050505050505060405180910390a1505050565b60015481565b828054600181600116156101000203166002900490600052602060002090601f016020900481019282601f10611b7c57805160ff1916838001178555611baa565b82800160010185558215611baa579182015b82811115611ba9578251825591602001919060010190611b8e565b5b509050611bb79190611cca565b5090565b604051806101800160405280600081526020016060815260200160008152602001600073ffffffffffffffffffffffffffffffffffffffff1681526020016000151581526020016000815260200160008152602001600073ffffffffffffffffffffffffffffffffffffffff168152602001600081526020016060815260200160008152602001606081525090565b828054600181600116156101000203166002900490600052602060002090601f016020900481019282601f10611c8b57805160ff1916838001178555611cb9565b82800160010185558215611cb9579182015b82811115611cb8578251825591602001919060010190611c9d565b5b509050611cc69190611cca565b5090565b611cec91905b80821115611ce8576000816000905550600101611cd0565b5090565b9056fea265627a7a72315820001919cf1e6b96ac8edd51629935488d5f61076b174abaf466c9c6bbd00d8c4264736f6c63430005100032",
  "source": "pragma solidity ^0.5.16;\n\n\ncontract Auction {\n\n    string[] public arrayhashes;\n\n\n    uint public productCount = 0;\n    string hash;\n\n     function set(string memory _hash) public {\n        hash = _hash;\n        arrayhashes.push(_hash);\n    }\n\n    //read function\n    function get() public view returns (string memory) {\n    return hash;\n  }\n    \n    mapping(uint => Product)public products;\n   \n    \n    struct Product {\n        uint Id;\n        string name;\n        uint baseprice;\n        address payable owner;\n        bool purchased;\n        uint createdAt;\n        uint currentBid;\n        address payable currentBidder;\n        uint currentbidtime;\n        string discription;\n        uint bidcount;\n        string category;\n    }\n    \n    event ProductCreated(\n        uint Id,\n        string name,\n        uint baseprice,\n        address owner,\n        bool purchased,\n        string discription,\n        uint bidcount,\n        string category\n    );\n    \n    event bidplaced(\n        uint Id,\n        string name,\n        uint baseprice,\n        address payable owner,\n        bool purchased,\n        uint createdAt,\n        uint currentBid,\n        address payable currentBidder,\n        uint bidcount,\n        string category\n        );\n        \n    event closeauction (\n        uint Id,\n        string name,\n        uint baseprice,\n        bool purchased,\n        uint currentBid,\n        address payable currentBidder,\n        uint bidcount,\n        string category\n        );\n    \n    modifier Auctionactive (uint _id){\n        require(block.timestamp - products[_id].createdAt <= 1 minutes  );\n        _;\n    }\n    \n    \n    function createProduct(string memory _name, uint _baseprice, string memory _discription, string memory _category) public payable{\n        //verify the product\n        require(bytes(_name).length > 0);\n        require(_baseprice >0);\n        //increment productCount\n\n        productCount++;\n\n        //create the product\n        products[productCount] = Product(productCount,_name,_baseprice,msg.sender,false, block.timestamp,_baseprice,msg.sender,block.timestamp, _discription,0, _category);\n       \n        //trigger an event\n        emit ProductCreated(productCount,_name,_baseprice,msg.sender,false,_discription,0, _category);\n    \n    }\n    \n    modifier validAuction(uint _id) {\n        products[_id].Id <= productCount;\n        _;\n    }\n\n    modifier validbid(uint _id){\n        require (block.timestamp - products[_id].currentbidtime >= 15 seconds);\n        _;\n    }\n    \n    function placeBid (uint _id) Auctionactive(_id) validbid(_id)\n    public payable{\n        products[_id].currentBid = products[_id].currentBid + 0.5*1000000000000000000 ;\n        products[_id].currentBidder = msg.sender;\n        products[_id].currentbidtime = block.timestamp;\n        products[_id].bidcount = products[_id].bidcount + 1;\n    \n        \n        emit bidplaced(_id,products[_id].name,products[_id].baseprice,products[_id].owner,products[_id].purchased,block.timestamp,\n        products[_id].currentBid,products[_id].currentBidder,products[_id].bidcount, products[_id].category  );\n        \n    }\n\n    function Auctionstatus(uint _id) public returns(bool){\n        if (block.timestamp - products[_id].createdAt < 1 minutes){\n            return true;\n        }\n        else{\n            return false;\n        }\n    }\n    \n    function closeAuction(uint _id) validAuction(_id) public payable {\n\n         if (Auctionstatus(_id)){\n            return;\n        }\n\n        //fetch the product\n        Product memory _product = products[_id];\n        \n        //fetch the owner\n        address payable _seller = _product.owner;\n        \n        // Require that there is enough Ether in the transaction\n        require(msg.value >= _product.currentBid);\n        \n         // Require that the product has not been purchased already\n        require(!_product.purchased);\n        \n         // Require that the buyer is not the seller\n        require(_seller != msg.sender);\n\n        // Transfer ownership to the buyer\n        _product.owner = msg.sender;\n        \n        \n        // Mark as purchased\n        _product.purchased = true;\n        \n        \n        // Update the product\n        products[_id] = _product;\n\n        // Pay the seller by sending them Ether\n        address(_seller).transfer(msg.value);\n        \n        \n        emit closeauction(_product.Id,_product.name ,_product.baseprice,true,_product.currentBid, _product.owner ,products[_id].bidcount ,products[_id].category);\n\n    }\n    \n    \n}",
  "sourcePath": "/Users/preritrawtani/Desktop/blockchain/Auction/src/contracts/Auction.sol",
  "compiler": {
    "name": "solc",
    "version": "0.5.16+commit.9c3226ce.Emscripten.clang"
  },
  "schemaVersion": "3.4.0",
  "updatedAt": "2021-05-24T13:05:42.270Z",
  "networkType": "ethereum",
  "devdoc": {
    "methods": {}
  },
  "userdoc": {
    "methods": {}
  }
}