{
  "contractName": "Auction",
  "abi": [
    {
      "anonymous": false,
      "inputs": [
        {
          "indexed": false,
          "internalType": "uint256",
          "name": "Id",
          "type": "uint256"
        },
        {
          "indexed": false,
          "internalType": "string",
          "name": "name",
          "type": "string"
        },
        {
          "indexed": false,
          "internalType": "uint256",
          "name": "baseprice",
          "type": "uint256"
        },
        {
          "indexed": false,
          "internalType": "address",
          "name": "owner",
          "type": "address"
        },
        {
          "indexed": false,
          "internalType": "bool",
          "name": "purchased",
          "type": "bool"
        },
        {
          "indexed": false,
          "internalType": "string",
          "name": "discription",
          "type": "string"
        },
        {
          "indexed": false,
          "internalType": "uint256",
          "name": "bidcount",
          "type": "uint256"
        },
        {
          "indexed": false,
          "internalType": "string",
          "name": "category",
          "type": "string"
        }
      ],
      "name": "ProductCreated",
      "type": "event"
    },
    {
      "anonymous": false,
      "inputs": [
        {
          "components": [
            {
              "internalType": "uint256",
              "name": "Id",
              "type": "uint256"
            },
            {
              "internalType": "string",
              "name": "name",
              "type": "string"
            },
            {
              "internalType": "uint256",
              "name": "baseprice",
              "type": "uint256"
            },
            {
              "internalType": "address payable",
              "name": "owner",
              "type": "address"
            },
            {
              "internalType": "bool",
              "name": "purchased",
              "type": "bool"
            },
            {
              "internalType": "uint256",
              "name": "createdAt",
              "type": "uint256"
            },
            {
              "internalType": "uint256",
              "name": "currentBid",
              "type": "uint256"
            },
            {
              "internalType": "address payable",
              "name": "currentBidder",
              "type": "address"
            },
            {
              "internalType": "uint256",
              "name": "currentbidtime",
              "type": "uint256"
            },
            {
              "components": [
                {
                  "internalType": "string",
                  "name": "discription",
                  "type": "string"
                },
                {
                  "internalType": "string",
                  "name": "category",
                  "type": "string"
                },
                {
                  "internalType": "uint256",
                  "name": "bidinc",
                  "type": "uint256"
                },
                {
                  "internalType": "uint256",
                  "name": "endtime",
                  "type": "uint256"
                }
              ],
              "internalType": "struct Auction.Information",
              "name": "infoArray",
              "type": "tuple"
            },
            {
              "internalType": "uint256",
              "name": "bidcount",
              "type": "uint256"
            },
            {
              "internalType": "string",
              "name": "publickey",
              "type": "string"
            }
          ],
          "indexed": false,
          "internalType": "struct Auction.Product",
          "name": "",
          "type": "tuple"
        }
      ],
      "name": "ProductEvent",
      "type": "event"
    },
    {
      "anonymous": false,
      "inputs": [
        {
          "indexed": false,
          "internalType": "uint256",
          "name": "Id",
          "type": "uint256"
        },
        {
          "indexed": false,
          "internalType": "string",
          "name": "name",
          "type": "string"
        },
        {
          "indexed": false,
          "internalType": "uint256",
          "name": "baseprice",
          "type": "uint256"
        },
        {
          "indexed": false,
          "internalType": "address payable",
          "name": "owner",
          "type": "address"
        },
        {
          "indexed": false,
          "internalType": "bool",
          "name": "purchased",
          "type": "bool"
        },
        {
          "indexed": false,
          "internalType": "uint256",
          "name": "createdAt",
          "type": "uint256"
        },
        {
          "indexed": false,
          "internalType": "uint256",
          "name": "currentBid",
          "type": "uint256"
        },
        {
          "indexed": false,
          "internalType": "address payable",
          "name": "currentBidder",
          "type": "address"
        },
        {
          "indexed": false,
          "internalType": "uint256",
          "name": "bidcount",
          "type": "uint256"
        },
        {
          "indexed": false,
          "internalType": "string",
          "name": "category",
          "type": "string"
        }
      ],
      "name": "bidplaced",
      "type": "event"
    },
    {
      "anonymous": false,
      "inputs": [
        {
          "indexed": false,
          "internalType": "uint256",
          "name": "Id",
          "type": "uint256"
        },
        {
          "indexed": false,
          "internalType": "string",
          "name": "name",
          "type": "string"
        },
        {
          "indexed": false,
          "internalType": "uint256",
          "name": "baseprice",
          "type": "uint256"
        },
        {
          "indexed": false,
          "internalType": "bool",
          "name": "purchased",
          "type": "bool"
        },
        {
          "indexed": false,
          "internalType": "uint256",
          "name": "currentBid",
          "type": "uint256"
        },
        {
          "indexed": false,
          "internalType": "address payable",
          "name": "currentBidder",
          "type": "address"
        },
        {
          "indexed": false,
          "internalType": "uint256",
          "name": "bidcount",
          "type": "uint256"
        },
        {
          "indexed": false,
          "internalType": "string",
          "name": "category",
          "type": "string"
        }
      ],
      "name": "closeauction",
      "type": "event"
    },
    {
      "inputs": [
        {
          "internalType": "uint256",
          "name": "",
          "type": "uint256"
        }
      ],
      "name": "arrayhashes",
      "outputs": [
        {
          "internalType": "string",
          "name": "",
          "type": "string"
        }
      ],
      "stateMutability": "view",
      "type": "function",
      "constant": true
    },
    {
      "inputs": [],
      "name": "productCount",
      "outputs": [
        {
          "internalType": "uint256",
          "name": "",
          "type": "uint256"
        }
      ],
      "stateMutability": "view",
      "type": "function",
      "constant": true
    },
    {
      "inputs": [
        {
          "internalType": "uint256",
          "name": "",
          "type": "uint256"
        }
      ],
      "name": "products",
      "outputs": [
        {
          "internalType": "uint256",
          "name": "Id",
          "type": "uint256"
        },
        {
          "internalType": "string",
          "name": "name",
          "type": "string"
        },
        {
          "internalType": "uint256",
          "name": "baseprice",
          "type": "uint256"
        },
        {
          "internalType": "address payable",
          "name": "owner",
          "type": "address"
        },
        {
          "internalType": "bool",
          "name": "purchased",
          "type": "bool"
        },
        {
          "internalType": "uint256",
          "name": "createdAt",
          "type": "uint256"
        },
        {
          "internalType": "uint256",
          "name": "currentBid",
          "type": "uint256"
        },
        {
          "internalType": "address payable",
          "name": "currentBidder",
          "type": "address"
        },
        {
          "internalType": "uint256",
          "name": "currentbidtime",
          "type": "uint256"
        },
        {
          "components": [
            {
              "internalType": "string",
              "name": "discription",
              "type": "string"
            },
            {
              "internalType": "string",
              "name": "category",
              "type": "string"
            },
            {
              "internalType": "uint256",
              "name": "bidinc",
              "type": "uint256"
            },
            {
              "internalType": "uint256",
              "name": "endtime",
              "type": "uint256"
            }
          ],
          "internalType": "struct Auction.Information",
          "name": "infoArray",
          "type": "tuple"
        },
        {
          "internalType": "uint256",
          "name": "bidcount",
          "type": "uint256"
        },
        {
          "internalType": "string",
          "name": "publickey",
          "type": "string"
        }
      ],
      "stateMutability": "view",
      "type": "function",
      "constant": true
    },
    {
      "inputs": [
        {
          "internalType": "uint256",
          "name": "",
          "type": "uint256"
        }
      ],
      "name": "user",
      "outputs": [
        {
          "internalType": "uint256",
          "name": "id",
          "type": "uint256"
        },
        {
          "internalType": "string",
          "name": "productname",
          "type": "string"
        },
        {
          "internalType": "string",
          "name": "name",
          "type": "string"
        },
        {
          "internalType": "string",
          "name": "email",
          "type": "string"
        },
        {
          "internalType": "string",
          "name": "addres",
          "type": "string"
        },
        {
          "internalType": "string",
          "name": "location",
          "type": "string"
        }
      ],
      "stateMutability": "view",
      "type": "function",
      "constant": true
    },
    {
      "inputs": [],
      "name": "usercount",
      "outputs": [
        {
          "internalType": "uint256",
          "name": "",
          "type": "uint256"
        }
      ],
      "stateMutability": "view",
      "type": "function",
      "constant": true
    },
    {
      "inputs": [
        {
          "internalType": "string",
          "name": "_hash",
          "type": "string"
        }
      ],
      "name": "set",
      "outputs": [],
      "stateMutability": "nonpayable",
      "type": "function"
    },
    {
      "inputs": [],
      "name": "get",
      "outputs": [
        {
          "internalType": "string",
          "name": "",
          "type": "string"
        }
      ],
      "stateMutability": "view",
      "type": "function",
      "constant": true
    },
    {
      "inputs": [
        {
          "internalType": "string",
          "name": "_name",
          "type": "string"
        },
        {
          "internalType": "string",
          "name": "_email",
          "type": "string"
        },
        {
          "internalType": "string",
          "name": "_address",
          "type": "string"
        },
        {
          "internalType": "string",
          "name": "_location",
          "type": "string"
        },
        {
          "internalType": "string",
          "name": "_productname",
          "type": "string"
        }
      ],
      "name": "createUser",
      "outputs": [],
      "stateMutability": "nonpayable",
      "type": "function"
    },
    {
      "inputs": [
        {
          "internalType": "string",
          "name": "_name",
          "type": "string"
        },
        {
          "internalType": "uint256",
          "name": "_baseprice",
          "type": "uint256"
        },
        {
          "internalType": "string",
          "name": "_discription",
          "type": "string"
        },
        {
          "internalType": "string",
          "name": "_category",
          "type": "string"
        },
        {
          "internalType": "string",
          "name": "_publickey",
          "type": "string"
        },
        {
          "internalType": "uint256",
          "name": "_bidinc",
          "type": "uint256"
        }
      ],
      "name": "createProduct",
      "outputs": [],
      "stateMutability": "payable",
      "type": "function",
      "payable": true
    },
    {
      "inputs": [
        {
          "internalType": "address payable",
          "name": "_owner",
          "type": "address"
        },
        {
          "internalType": "address payable",
          "name": "_account",
          "type": "address"
        }
      ],
      "name": "checkvalidity",
      "outputs": [
        {
          "internalType": "bool",
          "name": "",
          "type": "bool"
        }
      ],
      "stateMutability": "nonpayable",
      "type": "function"
    },
    {
      "inputs": [
        {
          "internalType": "uint256",
          "name": "_id",
          "type": "uint256"
        }
      ],
      "name": "placeBid",
      "outputs": [],
      "stateMutability": "payable",
      "type": "function",
      "payable": true
    },
    {
      "inputs": [
        {
          "internalType": "uint256",
          "name": "_id",
          "type": "uint256"
        }
      ],
      "name": "closeAuction",
      "outputs": [],
      "stateMutability": "payable",
      "type": "function",
      "payable": true
    },
    {
      "inputs": [],
      "name": "getnow",
      "outputs": [
        {
          "internalType": "uint256",
          "name": "",
          "type": "uint256"
        }
      ],
      "stateMutability": "view",
      "type": "function",
      "constant": true
    }
  ],
  "bytecode": "0x60806040526000600155600060025534801561001a57600080fd5b506125878061002a6000396000f3fe6080604052600436106100c25760003560e01c80636d4ce63c1161007f578063881cf12211610059578063881cf1221461028f5780639979ef45146102ba578063c51ee432146102d6578063e0f6ef87146102f2576100c2565b80636d4ce63c146101df5780637acc0b201461020a57806385aeb5b214610252576100c2565b80630f322c1e146100c7578063236ed8f3146100f25780634daf44cd1461010e5780634ed3885e1461014b578063553275be1461017457806365c06f70146101b6575b600080fd5b3480156100d357600080fd5b506100dc61031d565b6040516100e99190611e3b565b60405180910390f35b61010c6004803603810190610107919061173a565b610323565b005b34801561011a57600080fd5b506101356004803603810190610130919061173a565b610508565b6040516101429190611d35565b60405180910390f35b34801561015757600080fd5b50610172600480360381019061016d9190611521565b6105b4565b005b34801561018057600080fd5b5061019b6004803603810190610196919061173a565b61060a565b6040516101ad96959493929190611e56565b60405180910390f35b3480156101c257600080fd5b506101dd60048036038101906101d89190611562565b6108ee565b005b3480156101eb57600080fd5b506101f46109ef565b6040516102019190611d35565b60405180910390f35b34801561021657600080fd5b50610231600480360381019061022c919061173a565b610a81565b6040516102499c9b9a99989796959493929190611eda565b60405180910390f35b34801561025e57600080fd5b50610279600480360381019061027491906114e5565b610d80565b6040516102869190611d1a565b60405180910390f35b34801561029b57600080fd5b506102a4610dc4565b6040516102b19190611e3b565b60405180910390f35b6102d460048036038101906102cf919061173a565b610dd9565b005b6102f060048036038101906102eb9190611651565b611071565b005b3480156102fe57600080fd5b506103076113aa565b6040516103149190611e3b565b60405180910390f35b60025481565b60006004600083815260200190815260200160002090506103e8426103489190612097565b816008016003015410610390576040517f08c379a000000000000000000000000000000000000000000000000000000000815260040161038790611dd7565b60405180910390fd5b8060060160009054906101000a900473ffffffffffffffffffffffffffffffffffffffff1673ffffffffffffffffffffffffffffffffffffffff163373ffffffffffffffffffffffffffffffffffffffff1614610422576040517f08c379a000000000000000000000000000000000000000000000000000000000815260040161041990611d57565b60405180910390fd5b8060080160020154816005015461043991906120f1565b81600501819055508060030160009054906101000a900473ffffffffffffffffffffffffffffffffffffffff1673ffffffffffffffffffffffffffffffffffffffff166108fc82600501549081150290604051600060405180830381858888f193505050501580156104af573d6000803e3d6000fd5b5060018160030160146101000a81548160ff0219169083151502179055507f26260b89742fae7e37cece7568d3ec9cb6842308d1f2343869dea83642130bcc816040516104fc9190611e19565b60405180910390a15050565b6000818154811061051857600080fd5b906000526020600020016000915090508054610533906121e6565b80601f016020809104026020016040519081016040528092919081815260200182805461055f906121e6565b80156105ac5780601f10610581576101008083540402835291602001916105ac565b820191906000526020600020905b81548152906001019060200180831161058f57829003601f168201915b505050505081565b80600390805190602001906105ca9291906113b0565b506000819080600181540180825580915050600190039060005260206000200160009091909190915090805190602001906106069291906113b0565b5050565b6005602052806000526040600020600091509050806000015490806001018054610633906121e6565b80601f016020809104026020016040519081016040528092919081815260200182805461065f906121e6565b80156106ac5780601f10610681576101008083540402835291602001916106ac565b820191906000526020600020905b81548152906001019060200180831161068f57829003601f168201915b5050505050908060020180546106c1906121e6565b80601f01602080910402602001604051908101604052809291908181526020018280546106ed906121e6565b801561073a5780601f1061070f5761010080835404028352916020019161073a565b820191906000526020600020905b81548152906001019060200180831161071d57829003601f168201915b50505050509080600301805461074f906121e6565b80601f016020809104026020016040519081016040528092919081815260200182805461077b906121e6565b80156107c85780601f1061079d576101008083540402835291602001916107c8565b820191906000526020600020905b8154815290600101906020018083116107ab57829003601f168201915b5050505050908060040180546107dd906121e6565b80601f0160208091040260200160405190810160405280929190818152602001828054610809906121e6565b80156108565780601f1061082b57610100808354040283529160200191610856565b820191906000526020600020905b81548152906001019060200180831161083957829003601f168201915b50505050509080600501805461086b906121e6565b80601f0160208091040260200160405190810160405280929190818152602001828054610897906121e6565b80156108e45780601f106108b9576101008083540402835291602001916108e4565b820191906000526020600020905b8154815290600101906020018083116108c757829003601f168201915b5050505050905086565b6002600081548092919061090190612297565b91905055506040518060c001604052806002548152602001828152602001868152602001858152602001848152602001838152506005600060025481526020019081526020016000206000820151816000015560208201518160010190805190602001906109709291906113b0565b50604082015181600201908051906020019061098d9291906113b0565b5060608201518160030190805190602001906109aa9291906113b0565b5060808201518160040190805190602001906109c79291906113b0565b5060a08201518160050190805190602001906109e49291906113b0565b509050505050505050565b6060600380546109fe906121e6565b80601f0160208091040260200160405190810160405280929190818152602001828054610a2a906121e6565b8015610a775780601f10610a4c57610100808354040283529160200191610a77565b820191906000526020600020905b815481529060010190602001808311610a5a57829003601f168201915b5050505050905090565b6004602052806000526040600020600091509050806000015490806001018054610aaa906121e6565b80601f0160208091040260200160405190810160405280929190818152602001828054610ad6906121e6565b8015610b235780601f10610af857610100808354040283529160200191610b23565b820191906000526020600020905b815481529060010190602001808311610b0657829003601f168201915b5050505050908060020154908060030160009054906101000a900473ffffffffffffffffffffffffffffffffffffffff16908060030160149054906101000a900460ff16908060040154908060050154908060060160009054906101000a900473ffffffffffffffffffffffffffffffffffffffff169080600701549080600801604051806080016040529081600082018054610bbf906121e6565b80601f0160208091040260200160405190810160405280929190818152602001828054610beb906121e6565b8015610c385780601f10610c0d57610100808354040283529160200191610c38565b820191906000526020600020905b815481529060010190602001808311610c1b57829003601f168201915b50505050508152602001600182018054610c51906121e6565b80601f0160208091040260200160405190810160405280929190818152602001828054610c7d906121e6565b8015610cca5780601f10610c9f57610100808354040283529160200191610cca565b820191906000526020600020905b815481529060010190602001808311610cad57829003601f168201915b50505050508152602001600282015481526020016003820154815250509080600c01549080600d018054610cfd906121e6565b80601f0160208091040260200160405190810160405280929190818152602001828054610d29906121e6565b8015610d765780601f10610d4b57610100808354040283529160200191610d76565b820191906000526020600020905b815481529060010190602001808311610d5957829003601f168201915b505050505090508c565b60008173ffffffffffffffffffffffffffffffffffffffff168373ffffffffffffffffffffffffffffffffffffffff1614610dba57600080fd5b6001905092915050565b60006103e842610dd49190612097565b905090565b60006004600083815260200190815260200160002090508060020154341015610e37576040517f08c379a0000000000000000000000000000000000000000000000000000000008152600401610e2e90611d97565b60405180910390fd5b8060060160009054906101000a900473ffffffffffffffffffffffffffffffffffffffff1673ffffffffffffffffffffffffffffffffffffffff163373ffffffffffffffffffffffffffffffffffffffff161415610eca576040517f08c379a0000000000000000000000000000000000000000000000000000000008152600401610ec190611db7565b60405180910390fd5b8060050154341015610f11576040517f08c379a0000000000000000000000000000000000000000000000000000000008152600401610f0890611d77565b60405180910390fd5b600081600501541115610fa0578060060160009054906101000a900473ffffffffffffffffffffffffffffffffffffffff1673ffffffffffffffffffffffffffffffffffffffff166108fc82600801600201548360050154610f7391906120f1565b9081150290604051600060405180830381858888f19350505050158015610f9e573d6000803e3d6000fd5b505b80600801600201548160050154610fb79190612041565b8160050181905550338160060160006101000a81548173ffffffffffffffffffffffffffffffffffffffff021916908373ffffffffffffffffffffffffffffffffffffffff160217905550428160070181905550600160046000848152602001908152602001600020600c015461102e9190612041565b81600c01819055507f26260b89742fae7e37cece7568d3ec9cb6842308d1f2343869dea83642130bcc816040516110659190611e19565b60405180910390a15050565b600086511161107f57600080fd5b6000851161108c57600080fd5b6001600081548092919061109f90612297565b9190505550600154600460006001548152602001908152602001600020600001819055508560046000600154815260200190815260200160002060010190805190602001906110ef9291906113b0565b5084600460006001548152602001908152602001600020600201819055503360046000600154815260200190815260200160002060030160006101000a81548173ffffffffffffffffffffffffffffffffffffffff021916908373ffffffffffffffffffffffffffffffffffffffff160217905550600060046000600154815260200190815260200160002060030160146101000a81548160ff0219169083151502179055506103e8426111a39190612097565b600460006001548152602001908152602001600020600401819055508460046000600154815260200190815260200160002060050181905550600060046000600154815260200190815260200160002060060160006101000a81548173ffffffffffffffffffffffffffffffffffffffff021916908373ffffffffffffffffffffffffffffffffffffffff16021790555042600460006001548152602001908152602001600020600701819055508360046000600154815260200190815260200160002060080160000190805190602001906112809291906113b0565b508260046000600154815260200190815260200160002060080160010190805190602001906112b09291906113b0565b506000600460006001548152602001908152602001600020600c018190555081600460006001548152602001908152602001600020600d0190805190602001906112fb9291906113b0565b508060046000600154815260200190815260200160002060080160020181905550620186a06103e84261132e9190612097565b6113389190612041565b600460006001548152602001908152602001600020600801600301819055507f26260b89742fae7e37cece7568d3ec9cb6842308d1f2343869dea83642130bcc60046000600154815260200190815260200160002060405161139a9190611df7565b60405180910390a1505050505050565b60015481565b8280546113bc906121e6565b90600052602060002090601f0160209004810192826113de5760008555611425565b82601f106113f757805160ff1916838001178555611425565b82800160010185558215611425579182015b82811115611424578251825591602001919060010190611409565b5b5090506114329190611436565b5090565b5b8082111561144f576000816000905550600101611437565b5090565b600061146661146184611fce565b611fa9565b90508281526020810184848401111561147e57600080fd5b6114898482856121a4565b509392505050565b6000813590506114a081612523565b92915050565b600082601f8301126114b757600080fd5b81356114c7848260208601611453565b91505092915050565b6000813590506114df8161253a565b92915050565b600080604083850312156114f857600080fd5b600061150685828601611491565b925050602061151785828601611491565b9150509250929050565b60006020828403121561153357600080fd5b600082013567ffffffffffffffff81111561154d57600080fd5b611559848285016114a6565b91505092915050565b600080600080600060a0868803121561157a57600080fd5b600086013567ffffffffffffffff81111561159457600080fd5b6115a0888289016114a6565b955050602086013567ffffffffffffffff8111156115bd57600080fd5b6115c9888289016114a6565b945050604086013567ffffffffffffffff8111156115e657600080fd5b6115f2888289016114a6565b935050606086013567ffffffffffffffff81111561160f57600080fd5b61161b888289016114a6565b925050608086013567ffffffffffffffff81111561163857600080fd5b611644888289016114a6565b9150509295509295909350565b60008060008060008060c0878903121561166a57600080fd5b600087013567ffffffffffffffff81111561168457600080fd5b61169089828a016114a6565b96505060206116a189828a016114d0565b955050604087013567ffffffffffffffff8111156116be57600080fd5b6116ca89828a016114a6565b945050606087013567ffffffffffffffff8111156116e757600080fd5b6116f389828a016114a6565b935050608087013567ffffffffffffffff81111561171057600080fd5b61171c89828a016114a6565b92505060a061172d89828a016114d0565b9150509295509295509295565b60006020828403121561174c57600080fd5b600061175a848285016114d0565b91505092915050565b61176c8161215c565b82525050565b61177b8161215c565b82525050565b61178a8161216e565b82525050565b6117998161216e565b82525050565b60006117aa82612014565b6117b4818561201f565b93506117c48185602086016121b3565b6117cd8161236d565b840191505092915050565b60006117e382612014565b6117ed8185612030565b93506117fd8185602086016121b3565b6118068161236d565b840191505092915050565b6000815461181e816121e6565b611828818661201f565b94506001821660008114611843576001811461185557611888565b60ff1983168652602086019350611888565b61185e85611fff565b60005b8381101561188057815481890152600182019150602081019050611861565b808801955050505b50505092915050565b600061189e602a83612030565b91506118a982612398565b604082019050919050565b60006118c1602783612030565b91506118cc826123e7565b604082019050919050565b60006118e4603283612030565b91506118ef82612436565b604082019050919050565b6000611907602183612030565b915061191282612485565b604082019050919050565b600061192a602383612030565b9150611935826124d4565b604082019050919050565b6000608083016000830151848203600086015261195d828261179f565b91505060208301518482036020860152611977828261179f565b915050604083015161198c6040860182611cfc565b50606083015161199f6060860182611cfc565b508091505092915050565b600060808301600080840185830360008701526119c78382611811565b9250506001840185830360208701526119e08382611811565b925050600284015490506119f381612232565b611a006040870182611cfc565b5060038401549050611a1181612232565b611a1e6060870182611cfc565b50819250505092915050565b600061018083016000808401549050611a4281612232565b611a4f6000870182611cfc565b50600184018583036020870152611a668382611811565b92505060028401549050611a7981612232565b611a866040870182611cfc565b5060038401549050611a9781612218565b611aa46060870182611763565b50611aae8161224c565b611abb6080870182611781565b5060048401549050611acc81612232565b611ad960a0870182611cfc565b5060058401549050611aea81612232565b611af760c0870182611cfc565b5060068401549050611b0881612218565b611b1560e0870182611763565b5060078401549050611b2681612232565b611b34610100870182611cfc565b5060088401858303610120870152611b4c83826119aa565b925050600c8401549050611b5f81612232565b611b6d610140870182611cfc565b50600d8401858303610160870152611b858382611811565b925050819250505092915050565b600061018083016000808401549050611bab81612232565b611bb86000870182611cfc565b50600184018583036020870152611bcf8382611811565b92505060028401549050611be281612232565b611bef6040870182611cfc565b5060038401549050611c0081612218565b611c0d6060870182611763565b50611c178161224c565b611c246080870182611781565b5060048401549050611c3581612232565b611c4260a0870182611cfc565b5060058401549050611c5381612232565b611c6060c0870182611cfc565b5060068401549050611c7181612218565b611c7e60e0870182611763565b5060078401549050611c8f81612232565b611c9d610100870182611cfc565b5060088401858303610120870152611cb583826119aa565b925050600c8401549050611cc881612232565b611cd6610140870182611cfc565b50600d8401858303610160870152611cee8382611811565b925050819250505092915050565b611d058161219a565b82525050565b611d148161219a565b82525050565b6000602082019050611d2f6000830184611790565b92915050565b60006020820190508181036000830152611d4f81846117d8565b905092915050565b60006020820190508181036000830152611d7081611891565b9050919050565b60006020820190508181036000830152611d90816118b4565b9050919050565b60006020820190508181036000830152611db0816118d7565b9050919050565b60006020820190508181036000830152611dd0816118fa565b9050919050565b60006020820190508181036000830152611df08161191d565b9050919050565b60006020820190508181036000830152611e118184611b93565b905092915050565b60006020820190508181036000830152611e338184611a2a565b905092915050565b6000602082019050611e506000830184611d0b565b92915050565b600060c082019050611e6b6000830189611d0b565b8181036020830152611e7d81886117d8565b90508181036040830152611e9181876117d8565b90508181036060830152611ea581866117d8565b90508181036080830152611eb981856117d8565b905081810360a0830152611ecd81846117d8565b9050979650505050505050565b600061018082019050611ef0600083018f611d0b565b8181036020830152611f02818e6117d8565b9050611f11604083018d611d0b565b611f1e606083018c611772565b611f2b608083018b611790565b611f3860a083018a611d0b565b611f4560c0830189611d0b565b611f5260e0830188611772565b611f60610100830187611d0b565b818103610120830152611f738186611940565b9050611f83610140830185611d0b565b818103610160830152611f9681846117d8565b90509d9c50505050505050505050505050565b6000611fb3611fc4565b9050611fbf8282612266565b919050565b6000604051905090565b600067ffffffffffffffff821115611fe957611fe861233e565b5b611ff28261236d565b9050602081019050919050565b60008190508160005260206000209050919050565b600081519050919050565b600082825260208201905092915050565b600082825260208201905092915050565b600061204c8261219a565b91506120578361219a565b9250827fffffffffffffffffffffffffffffffffffffffffffffffffffffffffffffffff0382111561208c5761208b6122e0565b5b828201905092915050565b60006120a28261219a565b91506120ad8361219a565b9250817fffffffffffffffffffffffffffffffffffffffffffffffffffffffffffffffff04831182151516156120e6576120e56122e0565b5b828202905092915050565b60006120fc8261219a565b91506121078361219a565b92508282101561211a576121196122e0565b5b828203905092915050565b600073ffffffffffffffffffffffffffffffffffffffff82169050919050565b600060ff82169050919050565b6000819050919050565b60006121678261217a565b9050919050565b60008115159050919050565b600073ffffffffffffffffffffffffffffffffffffffff82169050919050565b6000819050919050565b82818337600083830152505050565b60005b838110156121d15780820151818401526020810190506121b6565b838111156121e0576000848401525b50505050565b600060028204905060018216806121fe57607f821691505b602082108114156122125761221161230f565b5b50919050565b600061222b6122268361237e565b612125565b9050919050565b60006122456122408361237e565b612152565b9050919050565b600061225f61225a8361238b565b612145565b9050919050565b61226f8261236d565b810181811067ffffffffffffffff8211171561228e5761228d61233e565b5b80604052505050565b60006122a28261219a565b91507fffffffffffffffffffffffffffffffffffffffffffffffffffffffffffffffff8214156122d5576122d46122e0565b5b600182019050919050565b7f4e487b7100000000000000000000000000000000000000000000000000000000600052601160045260246000fd5b7f4e487b7100000000000000000000000000000000000000000000000000000000600052602260045260246000fd5b7f4e487b7100000000000000000000000000000000000000000000000000000000600052604160045260246000fd5b6000601f19601f8301169050919050565b60008160001c9050919050565b60008160a01c9050919050565b7f796f7520617265206e6f7420656c696769626c6520746f20636c61696d20746860008201527f69732070726f6475637400000000000000000000000000000000000000000000602082015250565b7f6269672076616c7565206e6f742067726561746572207468616e20707265766960008201527f6f75732062696400000000000000000000000000000000000000000000000000602082015250565b7f6269642076616c75652073686f756c646e2774206265206c657373207468616e60008201527f2074686520726573657276652076616c75650000000000000000000000000000602082015250565b7f6269646465722063616e2774206f757420736f207468656972206f776e20626960008201527f6400000000000000000000000000000000000000000000000000000000000000602082015250565b7f62696464696e6720666f722070726f64756374206973206e6f74206f7665722060008201527f7965740000000000000000000000000000000000000000000000000000000000602082015250565b61252c8161215c565b811461253757600080fd5b50565b6125438161219a565b811461254e57600080fd5b5056fea2646970667358221220a2f16e9bf66cdce191c138594b9b8022e7e96a0fb003fe7912a14f48ec959b8064736f6c63430008040033",
  "immutableReferences": {},
  "source": "pragma solidity ^0.8.4;\npragma experimental ABIEncoderV2;\ncontract Auction {\n\n    string[] public arrayhashes;\n\n\n    uint public productCount = 0;\n    uint public usercount = 0;\n    string hash;\n\n     function set(string memory _hash) public {\n        hash = _hash;\n        arrayhashes.push(_hash);\n    }\n\n    //read function\n    function get() public view returns (string memory) {\n    return hash;\n  }\n    \n    mapping(uint => Product) public products;\n    mapping(uint => User)public user;\n\n    struct User{\n        uint id;\n        string productname;\n        string name;\n        string email;\n        string addres;\n        string location;\n        \n    }\n   \n    struct Product {\n        uint Id;\n        string name;\n        uint baseprice;\n        address payable owner;\n        bool purchased;\n        uint createdAt;\n        uint currentBid;\n        address payable currentBidder;\n        uint currentbidtime;\n        Information infoArray;\n        uint bidcount;\n        string publickey;\n    }\n\n    struct Information {\n        string discription;\n        string category;\n        uint bidinc;\n        uint endtime;\n    }\n    \n    event ProductCreated(\n        uint Id,\n        string name,\n        uint baseprice,\n        address owner,\n        bool purchased,\n        string discription,\n        uint bidcount,\n        string category\n    );\n    \n    event bidplaced(\n        uint Id,\n        string name,\n        uint baseprice,\n        address payable owner,\n        bool purchased,\n        uint createdAt,\n        uint currentBid,\n        address payable currentBidder,\n        uint bidcount,\n        string category\n        );\n        \n    event closeauction (\n        uint Id,\n        string name,\n        uint baseprice,\n        bool purchased,\n        uint currentBid,\n        address payable currentBidder,\n        uint bidcount,\n        string category\n        );\n        \n    event ProductEvent (Product);\n    \n    modifier Auctionactive (uint _id){\n        require(block.timestamp - products[_id].createdAt <= 200  );\n        _;\n    }\n\n    function createUser(string memory _name,string memory _email,string memory _address,string memory _location ,string memory _productname) public {\n        usercount++;\n        user[usercount] = User(usercount,_productname,_name,_email,_address, _location);\n    }\n\n    \n    \n    function createProduct(string memory _name, uint _baseprice, string memory _discription, string memory _category, string memory _publickey, uint _bidinc) public payable{\n        //verify the product\n        require(bytes(_name).length > 0);\n        require(_baseprice >0);\n        //increment productCount\n\n        productCount++;\n        products[productCount].Id = productCount;\n        products[productCount].name =_name;\n        products[productCount].baseprice =_baseprice;\n        products[productCount].owner = payable(msg.sender);\n        products[productCount].purchased =false;\n        products[productCount].createdAt =block.timestamp*1000;\n        products[productCount].currentBid = _baseprice ;\n        products[productCount].currentBidder = payable(0);\n        products[productCount].currentbidtime =block.timestamp;\n        products[productCount].infoArray.discription =_discription;\n        products[productCount].infoArray.category =_category;\n        products[productCount].bidcount = 0;\n        products[productCount].publickey = _publickey;\n        products[productCount].infoArray.bidinc = _bidinc;\n        products[productCount].infoArray.endtime =  block.timestamp*1000+100000;\n\n        //create the product\n        //products[productCount] = Product(productCount,_name,_baseprice,msg.sender,false, block.timestamp,_baseprice,msg.sender,block.timestamp, _discription,0, _category);\n       \n        //trigger an event\n        //emit ProductCreated(productCount,_name,_baseprice,msg.sender,false,_discription,0, _category);\n        \n        emit ProductEvent(products[productCount]);\n    \n    }\n    \n    modifier validAuction(uint _id) {\n        products[_id].Id <= productCount;\n        _;\n    }\n\n    modifier validbid(uint _id){\n        require (block.timestamp*1000 - products[_id].currentbidtime >= 15 seconds);\n        _;\n    }\n\n\n    function checkvalidity (address payable _owner, address payable _account ) public returns (bool){\n\n        require(_owner == _account);\n\n\n        return true;\n    }\n    \n    function placeBid (uint _id)  payable public{\n        \n        Product storage product = products[_id];\n\n        //difference between bids should be greater than 15 seconds\n        //require(block.timestamp*1000 - product.currentbidtime >= 15 seconds);\n        \n        \n        \n         // bid should be greater than minPrice\n        require(msg.value>=product.baseprice,\"bid value shouldn't be less than the reserve value\");\n        \n        // you should not be the last bidder , no point in outdoing your own bid\n        require(msg.sender != product.currentBidder,\"bidder can't out so their own bid\");\n        \n        // the incoming value should be greater than previous bid\n        require(msg.value >= product.currentBid,\"big value not greater than previous bid\"); \n        \n        \n        \n        if(product.currentBid>0){\n            product.currentBidder.transfer(product.currentBid -    (product.infoArray.bidinc)  );\n        }\n        \n        product.currentBid =  product.currentBid +   (product.infoArray.bidinc)   ;\n        \n        \n\n        \n        product.currentBidder = payable(msg.sender);\n        product.currentbidtime = block.timestamp;\n        product.bidcount = products[_id].bidcount + 1;\n        \n        \n        emit ProductEvent(product);\n    \n        \n        //emit bidplaced(_id,products[_id].name,products[_id].baseprice,products[_id].owner,products[_id].purchased,block.timestamp,\n        //products[_id].currentBid,products[_id].currentBidder,products[_id].bidcount, products[_id].infoArray.category  );\n        \n    }\n    \n    function closeAuction(uint _id) payable public  {\n\n         \n        //require(block.timestamp - products[_id].createdAt >= 120, \"auction not ended\"  );\n\n        \n\n         Product storage product = products[_id];\n        \n        //bidding time\n        require(product.infoArray.endtime < block.timestamp*1000,\"bidding for product is not over yet\");\n        \n        //claimer must be bidder\n        \n        require(msg.sender == product.currentBidder,\"you are not eligible to claim this product\");\n        \n        product.currentBid = product.currentBid  -   (product.infoArray.bidinc) ;\n        \n        // money sent to seller\n        product.owner.transfer(product.currentBid);\n        \n        // set product status sold to true\n        product.purchased = true;\n        \n        \n        emit ProductEvent(product);\n         \n        \n        \n        //emit closeauction(_product.Id,_product.name ,_product.baseprice,true,_product.currentBid, _product.owner,products[_id].bidcount ,products[_id].infoArray.category);\n\n    }\n\n    \n    function getnow()view public returns(uint) {\n        return block.timestamp*1000;\n    }\n    \n    \n}",
  "sourcePath": "/Users/preritrawtani/Desktop/blockchain/Auction/src/contracts/Auction.sol",
  "compiler": {
    "name": "solc",
    "version": "0.8.4+commit.c7e474f2.Emscripten.clang"
  },
  "schemaVersion": "3.4.0",
  "updatedAt": "2021-07-12T13:30:19.748Z",
  "networkType": "ethereum",
  "devdoc": {
    "kind": "dev",
    "methods": {},
    "version": 1
  },
  "userdoc": {
    "kind": "user",
    "methods": {},
    "version": 1
  }
}