{
  "contractName": "Auction",
  "abi": [
    {
      "anonymous": false,
      "inputs": [
        {
          "indexed": false,
          "internalType": "uint256",
          "name": "Id",
          "type": "uint256"
        },
        {
          "indexed": false,
          "internalType": "string",
          "name": "name",
          "type": "string"
        },
        {
          "indexed": false,
          "internalType": "uint256",
          "name": "baseprice",
          "type": "uint256"
        },
        {
          "indexed": false,
          "internalType": "address",
          "name": "owner",
          "type": "address"
        },
        {
          "indexed": false,
          "internalType": "bool",
          "name": "purchased",
          "type": "bool"
        },
        {
          "indexed": false,
          "internalType": "string",
          "name": "discription",
          "type": "string"
        },
        {
          "indexed": false,
          "internalType": "uint256",
          "name": "bidcount",
          "type": "uint256"
        },
        {
          "indexed": false,
          "internalType": "string",
          "name": "category",
          "type": "string"
        }
      ],
      "name": "ProductCreated",
      "type": "event"
    },
    {
      "anonymous": false,
      "inputs": [
        {
          "indexed": false,
          "internalType": "uint256",
          "name": "Id",
          "type": "uint256"
        },
        {
          "indexed": false,
          "internalType": "string",
          "name": "name",
          "type": "string"
        },
        {
          "indexed": false,
          "internalType": "uint256",
          "name": "baseprice",
          "type": "uint256"
        },
        {
          "indexed": false,
          "internalType": "address payable",
          "name": "owner",
          "type": "address"
        },
        {
          "indexed": false,
          "internalType": "bool",
          "name": "purchased",
          "type": "bool"
        },
        {
          "indexed": false,
          "internalType": "uint256",
          "name": "createdAt",
          "type": "uint256"
        },
        {
          "indexed": false,
          "internalType": "uint256",
          "name": "currentBid",
          "type": "uint256"
        },
        {
          "indexed": false,
          "internalType": "address payable",
          "name": "currentBidder",
          "type": "address"
        },
        {
          "indexed": false,
          "internalType": "uint256",
          "name": "bidcount",
          "type": "uint256"
        },
        {
          "indexed": false,
          "internalType": "string",
          "name": "category",
          "type": "string"
        }
      ],
      "name": "bidplaced",
      "type": "event"
    },
    {
      "anonymous": false,
      "inputs": [
        {
          "indexed": false,
          "internalType": "uint256",
          "name": "Id",
          "type": "uint256"
        },
        {
          "indexed": false,
          "internalType": "string",
          "name": "name",
          "type": "string"
        },
        {
          "indexed": false,
          "internalType": "uint256",
          "name": "baseprice",
          "type": "uint256"
        },
        {
          "indexed": false,
          "internalType": "bool",
          "name": "purchased",
          "type": "bool"
        },
        {
          "indexed": false,
          "internalType": "uint256",
          "name": "currentBid",
          "type": "uint256"
        },
        {
          "indexed": false,
          "internalType": "address payable",
          "name": "currentBidder",
          "type": "address"
        },
        {
          "indexed": false,
          "internalType": "uint256",
          "name": "bidcount",
          "type": "uint256"
        },
        {
          "indexed": false,
          "internalType": "string",
          "name": "category",
          "type": "string"
        }
      ],
      "name": "closeauction",
      "type": "event"
    },
    {
      "constant": true,
      "inputs": [
        {
          "internalType": "uint256",
          "name": "",
          "type": "uint256"
        }
      ],
      "name": "arrayhashes",
      "outputs": [
        {
          "internalType": "string",
          "name": "",
          "type": "string"
        }
      ],
      "payable": false,
      "stateMutability": "view",
      "type": "function"
    },
    {
      "constant": true,
      "inputs": [],
      "name": "productCount",
      "outputs": [
        {
          "internalType": "uint256",
          "name": "",
          "type": "uint256"
        }
      ],
      "payable": false,
      "stateMutability": "view",
      "type": "function"
    },
    {
      "constant": true,
      "inputs": [
        {
          "internalType": "uint256",
          "name": "",
          "type": "uint256"
        }
      ],
      "name": "products",
      "outputs": [
        {
          "internalType": "uint256",
          "name": "Id",
          "type": "uint256"
        },
        {
          "internalType": "string",
          "name": "name",
          "type": "string"
        },
        {
          "internalType": "uint256",
          "name": "baseprice",
          "type": "uint256"
        },
        {
          "internalType": "address payable",
          "name": "owner",
          "type": "address"
        },
        {
          "internalType": "bool",
          "name": "purchased",
          "type": "bool"
        },
        {
          "internalType": "uint256",
          "name": "createdAt",
          "type": "uint256"
        },
        {
          "internalType": "uint256",
          "name": "currentBid",
          "type": "uint256"
        },
        {
          "internalType": "address payable",
          "name": "currentBidder",
          "type": "address"
        },
        {
          "internalType": "uint256",
          "name": "currentbidtime",
          "type": "uint256"
        },
        {
          "components": [
            {
              "internalType": "string",
              "name": "discription",
              "type": "string"
            },
            {
              "internalType": "string",
              "name": "category",
              "type": "string"
            },
            {
              "internalType": "uint256",
              "name": "bidinc",
              "type": "uint256"
            }
          ],
          "internalType": "struct Auction.Information",
          "name": "infoArray",
          "type": "tuple"
        },
        {
          "internalType": "uint256",
          "name": "bidcount",
          "type": "uint256"
        },
        {
          "internalType": "string",
          "name": "publickey",
          "type": "string"
        }
      ],
      "payable": false,
      "stateMutability": "view",
      "type": "function"
    },
    {
      "constant": true,
      "inputs": [
        {
          "internalType": "uint256",
          "name": "",
          "type": "uint256"
        }
      ],
      "name": "user",
      "outputs": [
        {
          "internalType": "uint256",
          "name": "id",
          "type": "uint256"
        },
        {
          "internalType": "string",
          "name": "productname",
          "type": "string"
        },
        {
          "internalType": "string",
          "name": "name",
          "type": "string"
        },
        {
          "internalType": "string",
          "name": "email",
          "type": "string"
        },
        {
          "internalType": "string",
          "name": "addres",
          "type": "string"
        }
      ],
      "payable": false,
      "stateMutability": "view",
      "type": "function"
    },
    {
      "constant": true,
      "inputs": [],
      "name": "usercount",
      "outputs": [
        {
          "internalType": "uint256",
          "name": "",
          "type": "uint256"
        }
      ],
      "payable": false,
      "stateMutability": "view",
      "type": "function"
    },
    {
      "constant": false,
      "inputs": [
        {
          "internalType": "string",
          "name": "_hash",
          "type": "string"
        }
      ],
      "name": "set",
      "outputs": [],
      "payable": false,
      "stateMutability": "nonpayable",
      "type": "function"
    },
    {
      "constant": true,
      "inputs": [],
      "name": "get",
      "outputs": [
        {
          "internalType": "string",
          "name": "",
          "type": "string"
        }
      ],
      "payable": false,
      "stateMutability": "view",
      "type": "function"
    },
    {
      "constant": false,
      "inputs": [
        {
          "internalType": "string",
          "name": "_name",
          "type": "string"
        },
        {
          "internalType": "string",
          "name": "_email",
          "type": "string"
        },
        {
          "internalType": "string",
          "name": "_address",
          "type": "string"
        },
        {
          "internalType": "string",
          "name": "_productname",
          "type": "string"
        }
      ],
      "name": "createUser",
      "outputs": [],
      "payable": false,
      "stateMutability": "nonpayable",
      "type": "function"
    },
    {
      "constant": false,
      "inputs": [
        {
          "internalType": "string",
          "name": "_name",
          "type": "string"
        },
        {
          "internalType": "uint256",
          "name": "_baseprice",
          "type": "uint256"
        },
        {
          "internalType": "string",
          "name": "_discription",
          "type": "string"
        },
        {
          "internalType": "string",
          "name": "_category",
          "type": "string"
        },
        {
          "internalType": "string",
          "name": "_publickey",
          "type": "string"
        },
        {
          "internalType": "uint256",
          "name": "_bidinc",
          "type": "uint256"
        }
      ],
      "name": "createProduct",
      "outputs": [],
      "payable": true,
      "stateMutability": "payable",
      "type": "function"
    },
    {
      "constant": false,
      "inputs": [
        {
          "internalType": "address payable",
          "name": "_owner",
          "type": "address"
        },
        {
          "internalType": "address payable",
          "name": "_account",
          "type": "address"
        }
      ],
      "name": "checkvalidity",
      "outputs": [
        {
          "internalType": "bool",
          "name": "",
          "type": "bool"
        }
      ],
      "payable": false,
      "stateMutability": "nonpayable",
      "type": "function"
    },
    {
      "constant": false,
      "inputs": [
        {
          "internalType": "uint256",
          "name": "_id",
          "type": "uint256"
        }
      ],
      "name": "placeBid",
      "outputs": [],
      "payable": true,
      "stateMutability": "payable",
      "type": "function"
    },
    {
      "constant": false,
      "inputs": [
        {
          "internalType": "uint256",
          "name": "_id",
          "type": "uint256"
        }
      ],
      "name": "Auctionstatus",
      "outputs": [
        {
          "internalType": "bool",
          "name": "",
          "type": "bool"
        }
      ],
      "payable": false,
      "stateMutability": "nonpayable",
      "type": "function"
    },
    {
      "constant": false,
      "inputs": [
        {
          "internalType": "uint256",
          "name": "_id",
          "type": "uint256"
        }
      ],
      "name": "closeAuction",
      "outputs": [],
      "payable": true,
      "stateMutability": "payable",
      "type": "function"
    }
  ],
  "bytecode": "0x60806040526000600155600060025534801561001a57600080fd5b5061248a8061002a6000396000f3fe6080604052600436106100c25760003560e01c80636f7fcddb1161007f57806385aeb5b21161005957806385aeb5b21461028e5780639979ef45146102cb578063c51ee432146102e7578063e0f6ef8714610303576100c2565b80636f7fcddb146101e0578063764b7c18146102095780637acc0b2014610246576100c2565b80630f322c1e146100c7578063236ed8f3146100f25780634daf44cd1461010e5780634ed3885e1461014b578063553275be146101745780636d4ce63c146101b5575b600080fd5b3480156100d357600080fd5b506100dc61032e565b6040516100e99190611f6e565b60405180910390f35b61010c60048036036101079190810190611cfb565b610334565b005b34801561011a57600080fd5b5061013560048036036101309190810190611cfb565b610a2f565b6040516101429190611f2a565b60405180910390f35b34801561015757600080fd5b50610172600480360361016d9190810190611b0e565b610ae8565b005b34801561018057600080fd5b5061019b60048036036101969190810190611cfb565b610b41565b6040516101ac95949392919061201c565b60405180910390f35b3480156101c157600080fd5b506101ca610dd7565b6040516101d79190611f4c565b60405180910390f35b3480156101ec57600080fd5b5061020760048036036102029190810190611b4f565b610e79565b005b34801561021557600080fd5b50610230600480360361022b9190810190611cfb565b610f50565b60405161023d9190611f0f565b60405180910390f35b34801561025257600080fd5b5061026d60048036036102689190810190611cfb565b610f86565b6040516102859c9b9a9998979695949392919061208b565b60405180910390f35b34801561029a57600080fd5b506102b560048036036102b09190810190611ad2565b6112bb565b6040516102c29190611f0f565b60405180910390f35b6102e560048036036102e09190810190611cfb565b6112ff565b005b61030160048036036102fc9190810190611c12565b61158b565b005b34801561030f57600080fd5b50610318611873565b6040516103259190611f6e565b60405180910390f35b60025481565b8060015460046000838152602001908152602001600020505061035682610f50565b1561036057610a2b565b603c60046000848152602001908152602001600020600401544203101561038657600080fd5b61038e611879565b600460008481526020019081526020016000206040518061018001604052908160008201548152602001600182018054600181600116156101000203166002900480601f0160208091040260200160405190810160405280929190818152602001828054600181600116156101000203166002900480156104505780601f1061042557610100808354040283529160200191610450565b820191906000526020600020905b81548152906001019060200180831161043357829003601f168201915b50505050508152602001600282015481526020016003820160009054906101000a900473ffffffffffffffffffffffffffffffffffffffff1673ffffffffffffffffffffffffffffffffffffffff1673ffffffffffffffffffffffffffffffffffffffff1681526020016003820160149054906101000a900460ff1615151515815260200160048201548152602001600582015481526020016006820160009054906101000a900473ffffffffffffffffffffffffffffffffffffffff1673ffffffffffffffffffffffffffffffffffffffff1673ffffffffffffffffffffffffffffffffffffffff1681526020016007820154815260200160088201604051806060016040529081600082018054600181600116156101000203166002900480601f0160208091040260200160405190810160405280929190818152602001828054600181600116156101000203166002900480156105f15780601f106105c6576101008083540402835291602001916105f1565b820191906000526020600020905b8154815290600101906020018083116105d457829003601f168201915b50505050508152602001600182018054600181600116156101000203166002900480601f0160208091040260200160405190810160405280929190818152602001828054600181600116156101000203166002900480156106935780601f1061066857610100808354040283529160200191610693565b820191906000526020600020905b81548152906001019060200180831161067657829003601f168201915b505050505081526020016002820154815250508152602001600b8201548152602001600c82018054600181600116156101000203166002900480601f01602080910402602001604051908101604052809291908181526020018280546001816001161561010002031660029004801561074d5780601f106107225761010080835404028352916020019161074d565b820191906000526020600020905b81548152906001019060200180831161073057829003601f168201915b50505050508152505090506000816060015190508160c0015134101561077257600080fd5b81608001511561078157600080fd5b3373ffffffffffffffffffffffffffffffffffffffff168173ffffffffffffffffffffffffffffffffffffffff1614156107ba57600080fd5b6001826080019015159081151581525050816004600086815260200190815260200160002060008201518160000155602082015181600101908051906020019061080592919061190e565b506040820151816002015560608201518160030160006101000a81548173ffffffffffffffffffffffffffffffffffffffff021916908373ffffffffffffffffffffffffffffffffffffffff16021790555060808201518160030160146101000a81548160ff02191690831515021790555060a0820151816004015560c0820151816005015560e08201518160060160006101000a81548173ffffffffffffffffffffffffffffffffffffffff021916908373ffffffffffffffffffffffffffffffffffffffff160217905550610100820151816007015561012082015181600801600082015181600001908051906020019061090392919061190e565b50602082015181600101908051906020019061092092919061190e565b5060408201518160020155505061014082015181600b015561016082015181600c01908051906020019061095592919061190e565b509050508073ffffffffffffffffffffffffffffffffffffffff166108fc349081150290604051600060405180830381858888f1935050505015801561099f573d6000803e3d6000fd5b507f65ce72df2cabf9df3c8a6e7e2928cba08fce370e12a856c22d633d6785a51ee282600001518360200151846040015160018660c001518760600151600460008c8152602001908152602001600020600b0154600460008d8152602001908152602001600020600801600101604051610a2098979695949392919061215a565b60405180910390a150505b5050565b60008181548110610a3c57fe5b906000526020600020016000915090508054600181600116156101000203166002900480601f016020809104026020016040519081016040528092919081815260200182805460018160011615610100020316600290048015610ae05780601f10610ab557610100808354040283529160200191610ae0565b820191906000526020600020905b815481529060010190602001808311610ac357829003601f168201915b505050505081565b8060039080519060200190610afe92919061198e565b506000819080600181540180825580915050906001820390600052602060002001600090919290919091509080519060200190610b3c92919061198e565b505050565b6005602052806000526040600020600091509050806000015490806001018054600181600116156101000203166002900480601f016020809104026020016040519081016040528092919081815260200182805460018160011615610100020316600290048015610bf35780601f10610bc857610100808354040283529160200191610bf3565b820191906000526020600020905b815481529060010190602001808311610bd657829003601f168201915b505050505090806002018054600181600116156101000203166002900480601f016020809104026020016040519081016040528092919081815260200182805460018160011615610100020316600290048015610c915780601f10610c6657610100808354040283529160200191610c91565b820191906000526020600020905b815481529060010190602001808311610c7457829003601f168201915b505050505090806003018054600181600116156101000203166002900480601f016020809104026020016040519081016040528092919081815260200182805460018160011615610100020316600290048015610d2f5780601f10610d0457610100808354040283529160200191610d2f565b820191906000526020600020905b815481529060010190602001808311610d1257829003601f168201915b505050505090806004018054600181600116156101000203166002900480601f016020809104026020016040519081016040528092919081815260200182805460018160011615610100020316600290048015610dcd5780601f10610da257610100808354040283529160200191610dcd565b820191906000526020600020905b815481529060010190602001808311610db057829003601f168201915b5050505050905085565b606060038054600181600116156101000203166002900480601f016020809104026020016040519081016040528092919081815260200182805460018160011615610100020316600290048015610e6f5780601f10610e4457610100808354040283529160200191610e6f565b820191906000526020600020905b815481529060010190602001808311610e5257829003601f168201915b5050505050905090565b6002600081548092919060010191905055506040518060a00160405280600254815260200182815260200185815260200184815260200183815250600560006002548152602001908152602001600020600082015181600001556020820151816001019080519060200190610eef92919061190e565b506040820151816002019080519060200190610f0c92919061190e565b506060820151816003019080519060200190610f2992919061190e565b506080820151816004019080519060200190610f4692919061190e565b5090505050505050565b6000603c600460008481526020019081526020016000206004015442031015610f7c5760019050610f81565b600090505b919050565b6004602052806000526040600020600091509050806000015490806001018054600181600116156101000203166002900480601f0160208091040260200160405190810160405280929190818152602001828054600181600116156101000203166002900480156110385780601f1061100d57610100808354040283529160200191611038565b820191906000526020600020905b81548152906001019060200180831161101b57829003601f168201915b5050505050908060020154908060030160009054906101000a900473ffffffffffffffffffffffffffffffffffffffff16908060030160149054906101000a900460ff16908060040154908060050154908060060160009054906101000a900473ffffffffffffffffffffffffffffffffffffffff169080600701549080600801604051806060016040529081600082018054600181600116156101000203166002900480601f01602080910402602001604051908101604052809291908181526020018280546001816001161561010002031660029004801561115d5780601f106111325761010080835404028352916020019161115d565b820191906000526020600020905b81548152906001019060200180831161114057829003601f168201915b50505050508152602001600182018054600181600116156101000203166002900480601f0160208091040260200160405190810160405280929190818152602001828054600181600116156101000203166002900480156111ff5780601f106111d4576101008083540402835291602001916111ff565b820191906000526020600020905b8154815290600101906020018083116111e257829003601f168201915b505050505081526020016002820154815250509080600b01549080600c018054600181600116156101000203166002900480601f0160208091040260200160405190810160405280929190818152602001828054600181600116156101000203166002900480156112b15780601f10611286576101008083540402835291602001916112b1565b820191906000526020600020905b81548152906001019060200180831161129457829003601f168201915b505050505090508c565b60008173ffffffffffffffffffffffffffffffffffffffff168373ffffffffffffffffffffffffffffffffffffffff16146112f557600080fd5b6001905092915050565b80603c60046000838152602001908152602001600020600401544203111561132657600080fd5b81600f60046000838152602001908152602001600020600701544203101561134d57600080fd5b600460006001548152602001908152602001600020600801600201546004600085815260200190815260200160002060050154016004600085815260200190815260200160002060050181905550336004600085815260200190815260200160002060060160006101000a81548173ffffffffffffffffffffffffffffffffffffffff021916908373ffffffffffffffffffffffffffffffffffffffff160217905550426004600085815260200190815260200160002060070181905550600160046000858152602001908152602001600020600b01540160046000858152602001908152602001600020600b01819055507f87bc609190cf4ff0714b1789eaa756abd9c54e07344430d0f53878da3da4cfb8836004600086815260200190815260200160002060010160046000878152602001908152602001600020600201546004600088815260200190815260200160002060030160009054906101000a900473ffffffffffffffffffffffffffffffffffffffff166004600089815260200190815260200160002060030160149054906101000a900460ff1642600460008b815260200190815260200160002060050154600460008c815260200190815260200160002060060160009054906101000a900473ffffffffffffffffffffffffffffffffffffffff16600460008d8152602001908152602001600020600b0154600460008e815260200190815260200160002060080160010160405161157e9a999897969594939291906121e6565b60405180910390a1505050565b600086511161159957600080fd5b600085116115a657600080fd5b6001600081548092919060010191905055506001546004600060015481526020019081526020016000206000018190555085600460006001548152602001908152602001600020600101908051906020019061160392919061198e565b5084600460006001548152602001908152602001600020600201819055503360046000600154815260200190815260200160002060030160006101000a81548173ffffffffffffffffffffffffffffffffffffffff021916908373ffffffffffffffffffffffffffffffffffffffff160217905550600060046000600154815260200190815260200160002060030160146101000a81548160ff021916908315150217905550426004600060015481526020019081526020016000206004018190555084600460006001548152602001908152602001600020600501819055503360046000600154815260200190815260200160002060060160006101000a81548173ffffffffffffffffffffffffffffffffffffffff021916908373ffffffffffffffffffffffffffffffffffffffff160217905550426004600060015481526020019081526020016000206007018190555083600460006001548152602001908152602001600020600801600001908051906020019061178692919061198e565b508260046000600154815260200190815260200160002060080160010190805190602001906117b692919061198e565b506000600460006001548152602001908152602001600020600b018190555081600460006001548152602001908152602001600020600c01908051906020019061180192919061198e565b5080600460006001548152602001908152602001600020600801600201819055507f79b20e866b3d8a747137399d4912ef8f96009ea7ec6d76493cbbed18d92f733760015487873360008960008a604051611863989796959493929190611f89565b60405180910390a1505050505050565b60015481565b604051806101800160405280600081526020016060815260200160008152602001600073ffffffffffffffffffffffffffffffffffffffff1681526020016000151581526020016000815260200160008152602001600073ffffffffffffffffffffffffffffffffffffffff168152602001600081526020016118fa611a0e565b815260200160008152602001606081525090565b828054600181600116156101000203166002900490600052602060002090601f016020900481019282601f1061194f57805160ff191683800117855561197d565b8280016001018555821561197d579182015b8281111561197c578251825591602001919060010190611961565b5b50905061198a9190611a2f565b5090565b828054600181600116156101000203166002900490600052602060002090601f016020900481019282601f106119cf57805160ff19168380011785556119fd565b828001600101855582156119fd579182015b828111156119fc5782518255916020019190600101906119e1565b5b509050611a0a9190611a2f565b5090565b60405180606001604052806060815260200160608152602001600081525090565b611a5191905b80821115611a4d576000816000905550600101611a35565b5090565b90565b600081359050611a6381612419565b92915050565b600082601f830112611a7a57600080fd5b8135611a8d611a88826122bd565b612290565b91508082526020830160208301858383011115611aa957600080fd5b611ab48382846123c6565b50505092915050565b600081359050611acc81612430565b92915050565b60008060408385031215611ae557600080fd5b6000611af385828601611a54565b9250506020611b0485828601611a54565b9150509250929050565b600060208284031215611b2057600080fd5b600082013567ffffffffffffffff811115611b3a57600080fd5b611b4684828501611a69565b91505092915050565b60008060008060808587031215611b6557600080fd5b600085013567ffffffffffffffff811115611b7f57600080fd5b611b8b87828801611a69565b945050602085013567ffffffffffffffff811115611ba857600080fd5b611bb487828801611a69565b935050604085013567ffffffffffffffff811115611bd157600080fd5b611bdd87828801611a69565b925050606085013567ffffffffffffffff811115611bfa57600080fd5b611c0687828801611a69565b91505092959194509250565b60008060008060008060c08789031215611c2b57600080fd5b600087013567ffffffffffffffff811115611c4557600080fd5b611c5189828a01611a69565b9650506020611c6289828a01611abd565b955050604087013567ffffffffffffffff811115611c7f57600080fd5b611c8b89828a01611a69565b945050606087013567ffffffffffffffff811115611ca857600080fd5b611cb489828a01611a69565b935050608087013567ffffffffffffffff811115611cd157600080fd5b611cdd89828a01611a69565b92505060a0611cee89828a01611abd565b9150509295509295509295565b600060208284031215611d0d57600080fd5b6000611d1b84828501611abd565b91505092915050565b611d2d8161237e565b82525050565b611d3c81612336565b82525050565b611d4b81612348565b82525050565b611d5a81612390565b82525050565b6000611d6b82612309565b611d758185612325565b9350611d858185602086016123d5565b611d8e81612408565b840191505092915050565b6000611da4826122fe565b611dae8185612314565b9350611dbe8185602086016123d5565b611dc781612408565b840191505092915050565b6000611ddd826122fe565b611de78185612325565b9350611df78185602086016123d5565b611e0081612408565b840191505092915050565b600081546001811660008114611e285760018114611e4e57611e92565b607f6002830416611e398187612325565b955060ff198316865260208601935050611e92565b60028204611e5c8187612325565b9550611e67856122e9565b60005b82811015611e8957815481890152600182019150602081019050611e6a565b80880195505050505b505092915050565b60006060830160008301518482036000860152611eb78282611d99565b91505060208301518482036020860152611ed18282611d99565b9150506040830151611ee66040860182611ef1565b508091505092915050565b611efa81612374565b82525050565b611f0981612374565b82525050565b6000602082019050611f246000830184611d42565b92915050565b60006020820190508181036000830152611f448184611dd2565b905092915050565b60006020820190508181036000830152611f668184611d60565b905092915050565b6000602082019050611f836000830184611f00565b92915050565b600061010082019050611f9f600083018b611f00565b8181036020830152611fb1818a611d60565b9050611fc06040830189611f00565b611fcd6060830188611d24565b611fda6080830187611d42565b81810360a0830152611fec8186611d60565b9050611ffb60c0830185611d51565b81810360e083015261200d8184611d60565b90509998505050505050505050565b600060a0820190506120316000830188611f00565b81810360208301526120438187611dd2565b905081810360408301526120578186611dd2565b9050818103606083015261206b8185611dd2565b9050818103608083015261207f8184611dd2565b90509695505050505050565b6000610180820190506120a1600083018f611f00565b81810360208301526120b3818e611dd2565b90506120c2604083018d611f00565b6120cf606083018c611d33565b6120dc608083018b611d42565b6120e960a083018a611f00565b6120f660c0830189611f00565b61210360e0830188611d33565b612111610100830187611f00565b8181036101208301526121248186611e9a565b9050612134610140830185611f00565b8181036101608301526121478184611dd2565b90509d9c50505050505050505050505050565b600061010082019050612170600083018b611f00565b8181036020830152612182818a611dd2565b90506121916040830189611f00565b61219e6060830188611d42565b6121ab6080830187611f00565b6121b860a0830186611d33565b6121c560c0830185611f00565b81810360e08301526121d78184611e0b565b90509998505050505050505050565b6000610140820190506121fc600083018d611f00565b818103602083015261220e818c611e0b565b905061221d604083018b611f00565b61222a606083018a611d33565b6122376080830189611d42565b61224460a0830188611f00565b61225160c0830187611f00565b61225e60e0830186611d33565b61226c610100830185611f00565b81810361012083015261227f8184611e0b565b90509b9a5050505050505050505050565b6000604051905081810181811067ffffffffffffffff821117156122b357600080fd5b8060405250919050565b600067ffffffffffffffff8211156122d457600080fd5b601f19601f8301169050602081019050919050565b60008190508160005260206000209050919050565b600081519050919050565b600081519050919050565b600082825260208201905092915050565b600082825260208201905092915050565b600061234182612354565b9050919050565b60008115159050919050565b600073ffffffffffffffffffffffffffffffffffffffff82169050919050565b6000819050919050565b6000612389826123a2565b9050919050565b600061239b82612374565b9050919050565b60006123ad826123b4565b9050919050565b60006123bf82612354565b9050919050565b82818337600083830152505050565b60005b838110156123f35780820151818401526020810190506123d8565b83811115612402576000848401525b50505050565b6000601f19601f8301169050919050565b61242281612336565b811461242d57600080fd5b50565b61243981612374565b811461244457600080fd5b5056fea365627a7a72315820c4851186e29e6c3c793f1ae88922bf2a3ed014193b2d0ede668b5b7e482303456c6578706572696d656e74616cf564736f6c63430005100040",
  "source": "pragma solidity ^0.5.16;\npragma experimental ABIEncoderV2;\ncontract Auction {\n\n    string[] public arrayhashes;\n\n\n    uint public productCount = 0;\n    uint public usercount = 0;\n    string hash;\n\n     function set(string memory _hash) public {\n        hash = _hash;\n        arrayhashes.push(_hash);\n    }\n\n    //read function\n    function get() public view returns (string memory) {\n    return hash;\n  }\n    \n    mapping(uint => Product) public products;\n    mapping(uint => User)public user;\n\n    struct User{\n        uint id;\n        string productname;\n        string name;\n        string email;\n        string addres;\n        \n    }\n   \n    struct Product {\n        uint Id;\n        string name;\n        uint baseprice;\n        address payable owner;\n        bool purchased;\n        uint createdAt;\n        uint currentBid;\n        address payable currentBidder;\n        uint currentbidtime;\n        Information infoArray;\n        uint bidcount;\n        string publickey;\n    }\n\n    struct Information {\n        string discription;\n        string category;\n        uint bidinc;\n    }\n    \n    event ProductCreated(\n        uint Id,\n        string name,\n        uint baseprice,\n        address owner,\n        bool purchased,\n        string discription,\n        uint bidcount,\n        string category\n    );\n    \n    event bidplaced(\n        uint Id,\n        string name,\n        uint baseprice,\n        address payable owner,\n        bool purchased,\n        uint createdAt,\n        uint currentBid,\n        address payable currentBidder,\n        uint bidcount,\n        string category\n        );\n        \n    event closeauction (\n        uint Id,\n        string name,\n        uint baseprice,\n        bool purchased,\n        uint currentBid,\n        address payable currentBidder,\n        uint bidcount,\n        string category\n        );\n    \n    modifier Auctionactive (uint _id){\n        require(block.timestamp - products[_id].createdAt <= 1 minutes  );\n        _;\n    }\n\n    function createUser(string memory _name,string memory _email,string memory _address,string memory _productname) public {\n        usercount++;\n        user[usercount] = User(usercount,_productname,_name,_email,_address);\n    }\n\n    \n    \n    function createProduct(string memory _name, uint _baseprice, string memory _discription, string memory _category, string memory _publickey, uint _bidinc) public payable{\n        //verify the product\n        require(bytes(_name).length > 0);\n        require(_baseprice >0);\n        //increment productCount\n\n        productCount++;\n        products[productCount].Id = productCount;\n        products[productCount].name =_name;\n        products[productCount].baseprice =_baseprice;\n        products[productCount].owner =msg.sender;\n        products[productCount].purchased =false;\n        products[productCount].createdAt =block.timestamp;\n        products[productCount].currentBid =_baseprice;\n        products[productCount].currentBidder =msg.sender;\n        products[productCount].currentbidtime =block.timestamp;\n        products[productCount].infoArray.discription =_discription;\n        products[productCount].infoArray.category =_category;\n        products[productCount].bidcount = 0;\n        products[productCount].publickey = _publickey;\n        products[productCount].infoArray.bidinc = _bidinc;\n\n        //create the product\n        //products[productCount] = Product(productCount,_name,_baseprice,msg.sender,false, block.timestamp,_baseprice,msg.sender,block.timestamp, _discription,0, _category);\n       \n        //trigger an event\n        emit ProductCreated(productCount,_name,_baseprice,msg.sender,false,_discription,0, _category);\n    \n    }\n    \n    modifier validAuction(uint _id) {\n        products[_id].Id <= productCount;\n        _;\n    }\n\n    modifier validbid(uint _id){\n        require (block.timestamp - products[_id].currentbidtime >= 15 seconds);\n        _;\n    }\n\n\n    function checkvalidity (address payable _owner, address payable _account ) public returns (bool){\n\n        require(_owner == _account);\n\n\n        return true;\n    }\n    \n    function placeBid (uint _id) Auctionactive(_id) validbid(_id)\n    public payable{\n        products[_id].currentBid = products[_id].currentBid + (products[productCount].infoArray.bidinc) ;\n        products[_id].currentBidder = msg.sender;\n        products[_id].currentbidtime = block.timestamp;\n        products[_id].bidcount = products[_id].bidcount + 1;\n    \n        \n        emit bidplaced(_id,products[_id].name,products[_id].baseprice,products[_id].owner,products[_id].purchased,block.timestamp,\n        products[_id].currentBid,products[_id].currentBidder,products[_id].bidcount, products[_id].infoArray.category  );\n        \n    }\n\n    function Auctionstatus(uint _id) public returns(bool){\n        if (block.timestamp - products[_id].createdAt < 1 minutes){\n            return true;\n        }\n        else{\n            return false;\n        }\n    }\n    \n    function closeAuction(uint _id) validAuction(_id) public payable {\n\n         if (Auctionstatus(_id)){\n            return;\n        }\n        require(block.timestamp - products[_id].createdAt >= 1 minutes  );\n\n        //fetch the product\n        Product memory _product = products[_id];\n        \n        //fetch the owner\n        address payable _seller = _product.owner;\n        \n        // Require that there is enough Ether in the transaction\n        require(msg.value >= _product.currentBid);\n        \n         // Require that the product has not been purchased already\n        require(!_product.purchased);\n        \n         // Require that the buyer is not the seller\n        require(_seller != msg.sender);\n\n        // Transfer ownership to the buyer\n        //_product.owner = msg.sender;\n        \n        \n        // Mark as purchased\n        _product.purchased = true;\n        \n        \n        // Update the product\n        products[_id] = _product;\n\n        // Pay the seller by sending them Ether\n        address(_seller).transfer(msg.value);\n        \n        \n        emit closeauction(_product.Id,_product.name ,_product.baseprice,true,_product.currentBid, _product.owner,products[_id].bidcount ,products[_id].infoArray.category);\n\n    }\n    \n    \n}",
  "sourcePath": "/Users/preritrawtani/Desktop/blockchain/Auction/src/contracts/Auction.sol",
  "compiler": {
    "name": "solc",
    "version": "0.5.16+commit.9c3226ce.Emscripten.clang"
  },
  "schemaVersion": "3.4.0",
  "updatedAt": "2021-07-10T11:22:57.551Z",
  "networkType": "ethereum",
  "devdoc": {
    "methods": {}
  },
  "userdoc": {
    "methods": {}
  }
}