{
  "contractName": "Auction",
  "abi": [
    {
      "anonymous": false,
      "inputs": [
        {
          "indexed": false,
          "internalType": "uint256",
          "name": "Id",
          "type": "uint256"
        },
        {
          "indexed": false,
          "internalType": "string",
          "name": "name",
          "type": "string"
        },
        {
          "indexed": false,
          "internalType": "uint256",
          "name": "baseprice",
          "type": "uint256"
        },
        {
          "indexed": false,
          "internalType": "address",
          "name": "owner",
          "type": "address"
        },
        {
          "indexed": false,
          "internalType": "bool",
          "name": "purchased",
          "type": "bool"
        }
      ],
      "name": "ProductCreated",
      "type": "event"
    },
    {
      "anonymous": false,
      "inputs": [
        {
          "indexed": false,
          "internalType": "uint256",
          "name": "Id",
          "type": "uint256"
        },
        {
          "indexed": false,
          "internalType": "string",
          "name": "name",
          "type": "string"
        },
        {
          "indexed": false,
          "internalType": "uint256",
          "name": "baseprice",
          "type": "uint256"
        },
        {
          "indexed": false,
          "internalType": "address payable",
          "name": "owner",
          "type": "address"
        },
        {
          "indexed": false,
          "internalType": "bool",
          "name": "purchased",
          "type": "bool"
        },
        {
          "indexed": false,
          "internalType": "uint256",
          "name": "createdAt",
          "type": "uint256"
        },
        {
          "indexed": false,
          "internalType": "uint256",
          "name": "currentBid",
          "type": "uint256"
        },
        {
          "indexed": false,
          "internalType": "address payable",
          "name": "currentBidder",
          "type": "address"
        }
      ],
      "name": "bidplaced",
      "type": "event"
    },
    {
      "anonymous": false,
      "inputs": [
        {
          "indexed": false,
          "internalType": "uint256",
          "name": "Id",
          "type": "uint256"
        },
        {
          "indexed": false,
          "internalType": "string",
          "name": "name",
          "type": "string"
        },
        {
          "indexed": false,
          "internalType": "uint256",
          "name": "baseprice",
          "type": "uint256"
        },
        {
          "indexed": false,
          "internalType": "bool",
          "name": "purchased",
          "type": "bool"
        },
        {
          "indexed": false,
          "internalType": "uint256",
          "name": "currentBid",
          "type": "uint256"
        },
        {
          "indexed": false,
          "internalType": "address payable",
          "name": "currentBidder",
          "type": "address"
        }
      ],
      "name": "closeauction",
      "type": "event"
    },
    {
      "constant": true,
      "inputs": [],
      "name": "productCount",
      "outputs": [
        {
          "internalType": "uint256",
          "name": "",
          "type": "uint256"
        }
      ],
      "payable": false,
      "stateMutability": "view",
      "type": "function"
    },
    {
      "constant": true,
      "inputs": [
        {
          "internalType": "uint256",
          "name": "",
          "type": "uint256"
        }
      ],
      "name": "products",
      "outputs": [
        {
          "internalType": "uint256",
          "name": "Id",
          "type": "uint256"
        },
        {
          "internalType": "string",
          "name": "name",
          "type": "string"
        },
        {
          "internalType": "uint256",
          "name": "baseprice",
          "type": "uint256"
        },
        {
          "internalType": "address payable",
          "name": "owner",
          "type": "address"
        },
        {
          "internalType": "bool",
          "name": "purchased",
          "type": "bool"
        },
        {
          "internalType": "uint256",
          "name": "createdAt",
          "type": "uint256"
        },
        {
          "internalType": "uint256",
          "name": "currentBid",
          "type": "uint256"
        },
        {
          "internalType": "address payable",
          "name": "currentBidder",
          "type": "address"
        }
      ],
      "payable": false,
      "stateMutability": "view",
      "type": "function"
    },
    {
      "constant": false,
      "inputs": [
        {
          "internalType": "string",
          "name": "_name",
          "type": "string"
        },
        {
          "internalType": "uint256",
          "name": "_baseprice",
          "type": "uint256"
        }
      ],
      "name": "createProduct",
      "outputs": [],
      "payable": true,
      "stateMutability": "payable",
      "type": "function"
    },
    {
      "constant": false,
      "inputs": [
        {
          "internalType": "uint256",
          "name": "_id",
          "type": "uint256"
        }
      ],
      "name": "placeBid",
      "outputs": [],
      "payable": true,
      "stateMutability": "payable",
      "type": "function"
    },
    {
      "constant": false,
      "inputs": [
        {
          "internalType": "uint256",
          "name": "_id",
          "type": "uint256"
        }
      ],
      "name": "Auctionstatus",
      "outputs": [
        {
          "internalType": "bool",
          "name": "",
          "type": "bool"
        }
      ],
      "payable": false,
      "stateMutability": "nonpayable",
      "type": "function"
    },
    {
      "constant": false,
      "inputs": [
        {
          "internalType": "uint256",
          "name": "_id",
          "type": "uint256"
        }
      ],
      "name": "closeAuction",
      "outputs": [],
      "payable": true,
      "stateMutability": "payable",
      "type": "function"
    }
  ],
  "bytecode": "0x60806040526000805534801561001457600080fd5b5061104e806100246000396000f3fe6080604052600436106100555760003560e01c8063236ed8f31461005a578063764b7c18146100885780637acc0b20146100db5780639979ef451461021c578063e0f6ef871461024a578063e9300c6c14610275575b600080fd5b6100866004803603602081101561007057600080fd5b810190808035906020019092919050505061033a565b005b34801561009457600080fd5b506100c1600480360360208110156100ab57600080fd5b810190808035906020019092919050505061082c565b604051808215151515815260200191505060405180910390f35b3480156100e757600080fd5b50610114600480360360208110156100fe57600080fd5b8101908080359060200190929190505050610862565b60405180898152602001806020018881526020018773ffffffffffffffffffffffffffffffffffffffff1673ffffffffffffffffffffffffffffffffffffffff168152602001861515151581526020018581526020018481526020018373ffffffffffffffffffffffffffffffffffffffff1673ffffffffffffffffffffffffffffffffffffffff168152602001828103825289818151815260200191508051906020019080838360005b838110156101da5780820151818401526020810190506101bf565b50505050905090810190601f1680156102075780820380516001836020036101000a031916815260200191505b50995050505050505050505060405180910390f35b6102486004803603602081101561023257600080fd5b810190808035906020019092919050505061098f565b005b34801561025657600080fd5b5061025f610c67565b6040518082815260200191505060405180910390f35b6103386004803603604081101561028b57600080fd5b81019080803590602001906401000000008111156102a857600080fd5b8201836020820111156102ba57600080fd5b803590602001918460018302840111640100000000831117156102dc57600080fd5b91908080601f016020809104026020016040519081016040528093929190818152602001838380828437600081840152601f19601f82011690508083019250505050505050919291929080359060200190929190505050610c6d565b005b8060005460016000838152602001908152602001600020505061035c8261082c565b1561036657610828565b61036e610f01565b600160008481526020019081526020016000206040518061010001604052908160008201548152602001600182018054600181600116156101000203166002900480601f0160208091040260200160405190810160405280929190818152602001828054600181600116156101000203166002900480156104305780601f1061040557610100808354040283529160200191610430565b820191906000526020600020905b81548152906001019060200180831161041357829003601f168201915b50505050508152602001600282015481526020016003820160009054906101000a900473ffffffffffffffffffffffffffffffffffffffff1673ffffffffffffffffffffffffffffffffffffffff1673ffffffffffffffffffffffffffffffffffffffff1681526020016003820160149054906101000a900460ff1615151515815260200160048201548152602001600582015481526020016006820160009054906101000a900473ffffffffffffffffffffffffffffffffffffffff1673ffffffffffffffffffffffffffffffffffffffff1673ffffffffffffffffffffffffffffffffffffffff168152505090506000816060015190508160c0015134101561053a57600080fd5b81608001511561054957600080fd5b3373ffffffffffffffffffffffffffffffffffffffff168173ffffffffffffffffffffffffffffffffffffffff16141561058257600080fd5b33826060019073ffffffffffffffffffffffffffffffffffffffff16908173ffffffffffffffffffffffffffffffffffffffff168152505060018260800190151590811515815250508160016000868152602001908152602001600020600082015181600001556020820151816001019080519060200190610605929190610f74565b506040820151816002015560608201518160030160006101000a81548173ffffffffffffffffffffffffffffffffffffffff021916908373ffffffffffffffffffffffffffffffffffffffff16021790555060808201518160030160146101000a81548160ff02191690831515021790555060a0820151816004015560c0820151816005015560e08201518160060160006101000a81548173ffffffffffffffffffffffffffffffffffffffff021916908373ffffffffffffffffffffffffffffffffffffffff1602179055509050508073ffffffffffffffffffffffffffffffffffffffff166108fc349081150290604051600060405180830381858888f1935050505015801561071b573d6000803e3d6000fd5b507f027adaf68c6d2ef4daac6b2e4a1253051b5ae8ee562142d09add6440cf55b21c82600001518360200151846040015160018660c0015187606001516040518087815260200180602001868152602001851515151581526020018481526020018373ffffffffffffffffffffffffffffffffffffffff1673ffffffffffffffffffffffffffffffffffffffff168152602001828103825287818151815260200191508051906020019080838360005b838110156107e65780820151818401526020810190506107cb565b50505050905090810190601f1680156108135780820380516001836020036101000a031916815260200191505b5097505050505050505060405180910390a150505b5050565b6000603c600160008481526020019081526020016000206004015442031015610858576001905061085d565b600090505b919050565b6001602052806000526040600020600091509050806000015490806001018054600181600116156101000203166002900480601f0160208091040260200160405190810160405280929190818152602001828054600181600116156101000203166002900480156109145780601f106108e957610100808354040283529160200191610914565b820191906000526020600020905b8154815290600101906020018083116108f757829003601f168201915b5050505050908060020154908060030160009054906101000a900473ffffffffffffffffffffffffffffffffffffffff16908060030160149054906101000a900460ff16908060040154908060050154908060060160009054906101000a900473ffffffffffffffffffffffffffffffffffffffff16905088565b80603c6001600083815260200190815260200160002060040154420311156109b657600080fd5b6706f05b59d3b200006001600084815260200190815260200160002060050154016001600084815260200190815260200160002060050181905550336001600084815260200190815260200160002060060160006101000a81548173ffffffffffffffffffffffffffffffffffffffff021916908373ffffffffffffffffffffffffffffffffffffffff1602179055507f78947800aabe45ef06de4a38e29e3d116b7b93c75b49f15548322129bd9ac16c826001600085815260200190815260200160002060010160016000868152602001908152602001600020600201546001600087815260200190815260200160002060030160009054906101000a900473ffffffffffffffffffffffffffffffffffffffff166001600088815260200190815260200160002060030160149054906101000a900460ff1642600160008a815260200190815260200160002060050154600160008b815260200190815260200160002060060160009054906101000a900473ffffffffffffffffffffffffffffffffffffffff1660405180898152602001806020018881526020018773ffffffffffffffffffffffffffffffffffffffff1673ffffffffffffffffffffffffffffffffffffffff168152602001861515151581526020018581526020018481526020018373ffffffffffffffffffffffffffffffffffffffff1673ffffffffffffffffffffffffffffffffffffffff168152602001828103825289818154600181600116156101000203166002900481526020019150805460018160011615610100020316600290048015610c4e5780601f10610c2357610100808354040283529160200191610c4e565b820191906000526020600020905b815481529060010190602001808311610c3157829003601f168201915b5050995050505050505050505060405180910390a15050565b60005481565b6000825111610c7b57600080fd5b60008111610c8857600080fd5b600080815480929190600101919050555060405180610100016040528060005481526020018381526020018281526020013373ffffffffffffffffffffffffffffffffffffffff1681526020016000151581526020014281526020018281526020013373ffffffffffffffffffffffffffffffffffffffff168152506001600080548152602001908152602001600020600082015181600001556020820151816001019080519060200190610d3e929190610f74565b506040820151816002015560608201518160030160006101000a81548173ffffffffffffffffffffffffffffffffffffffff021916908373ffffffffffffffffffffffffffffffffffffffff16021790555060808201518160030160146101000a81548160ff02191690831515021790555060a0820151816004015560c0820151816005015560e08201518160060160006101000a81548173ffffffffffffffffffffffffffffffffffffffff021916908373ffffffffffffffffffffffffffffffffffffffff1602179055509050507fbc59c0c8165864dcceb377dd07d8f431d4303f8e501cb0a0374a10cc68d71836600054838333600060405180868152602001806020018581526020018473ffffffffffffffffffffffffffffffffffffffff1673ffffffffffffffffffffffffffffffffffffffff16815260200183151515158152602001828103825286818151815260200191508051906020019080838360005b83811015610ebf578082015181840152602081019050610ea4565b50505050905090810190601f168015610eec5780820380516001836020036101000a031916815260200191505b50965050505050505060405180910390a15050565b604051806101000160405280600081526020016060815260200160008152602001600073ffffffffffffffffffffffffffffffffffffffff1681526020016000151581526020016000815260200160008152602001600073ffffffffffffffffffffffffffffffffffffffff1681525090565b828054600181600116156101000203166002900490600052602060002090601f016020900481019282601f10610fb557805160ff1916838001178555610fe3565b82800160010185558215610fe3579182015b82811115610fe2578251825591602001919060010190610fc7565b5b509050610ff09190610ff4565b5090565b61101691905b80821115611012576000816000905550600101610ffa565b5090565b9056fea265627a7a72315820730604267657496bc66c8213f233ad0f5ff50bc69ab2e7c5c23bbcc87544ee2f64736f6c63430005100032",
  "source": "pragma solidity ^0.5.16;\n\n\ncontract Auction {\n    \n    uint public productCount = 0;\n    \n    mapping(uint => Product)public products;\n    \n    struct User{\n        uint id;\n        string name;\n    }\n    \n    \n    struct Product {\n        uint Id;\n        string name;\n        uint baseprice;\n        address payable owner;\n        bool purchased;\n        uint createdAt;\n        uint currentBid;\n        address payable currentBidder;\n    }\n    \n    event ProductCreated(\n        uint Id,\n        string name,\n        uint baseprice,\n        address owner,\n        bool purchased\n    );\n    \n    event bidplaced(\n        uint Id,\n        string name,\n        uint baseprice,\n        address payable owner,\n        bool purchased,\n        uint createdAt,\n        uint currentBid,\n        address payable currentBidder\n        );\n        \n    event closeauction (\n        uint Id,\n        string name,\n        uint baseprice,\n        bool purchased,\n        uint currentBid,\n        address payable currentBidder\n        );\n    \n    modifier Auctionactive (uint _id){\n        require(block.timestamp - products[_id].createdAt <= 1 minutes  );\n        _;\n    }\n    \n    \n    function createProduct(string memory _name, uint _baseprice) public payable{\n        //verify the product\n        require(bytes(_name).length > 0);\n        require(_baseprice >0);\n        //increment productCount\n\n        productCount++;\n\n        //create the product\n        products[productCount] = Product(productCount,_name,_baseprice,msg.sender,false, block.timestamp,_baseprice,msg.sender);\n       \n        //trigger an event\n        emit ProductCreated(productCount,_name,_baseprice,msg.sender,false);\n    \n    }\n    \n    modifier validAuction(uint _id) {\n        products[_id].Id <= productCount;\n        _;\n    }\n    \n    function placeBid (uint _id) Auctionactive(_id)\n    public payable{\n        products[_id].currentBid = products[_id].currentBid + 0.5*1000000000000000000 ;\n        products[_id].currentBidder = msg.sender;\n        \n        emit bidplaced(_id,products[_id].name,products[_id].baseprice,products[_id].owner,products[_id].purchased,block.timestamp,\n        products[_id].currentBid,products[_id].currentBidder );\n        \n    }\n\n    function Auctionstatus(uint _id) public returns(bool){\n        if (block.timestamp - products[_id].createdAt < 1 minutes){\n            return true;\n        }\n        else{\n            return false;\n        }\n    }\n    \n    function closeAuction(uint _id) validAuction(_id) public payable {\n\n         if (Auctionstatus(_id)){\n            return;\n        }\n\n        //fetch the product\n        Product memory _product = products[_id];\n        \n        //fetch the owner\n        address payable _seller = _product.owner;\n        \n        // Require that there is enough Ether in the transaction\n        require(msg.value >= _product.currentBid);\n        \n         // Require that the product has not been purchased already\n        require(!_product.purchased);\n        \n         // Require that the buyer is not the seller\n        require(_seller != msg.sender);\n\n        // Transfer ownership to the buyer\n        _product.owner = msg.sender;\n        \n        \n        // Mark as purchased\n        _product.purchased = true;\n        \n        \n        // Update the product\n        products[_id] = _product;\n\n        // Pay the seller by sending them Ether\n        address(_seller).transfer(msg.value);\n        \n        \n        emit closeauction(_product.Id,_product.name ,_product.baseprice,true,_product.currentBid, _product.owner  );\n\n    }\n    \n    \n}",
  "sourcePath": "/Users/preritrawtani/Desktop/blockchain/Auction/src/contracts/Auction.sol",
  "compiler": {
    "name": "solc",
    "version": "0.5.16+commit.9c3226ce.Emscripten.clang"
  },
  "schemaVersion": "3.4.0",
  "updatedAt": "2021-05-07T16:56:28.098Z",
  "networkType": "ethereum",
  "devdoc": {
    "methods": {}
  },
  "userdoc": {
    "methods": {}
  }
}