{
  "contractName": "Auction",
  "abi": [
    {
      "anonymous": false,
      "inputs": [
        {
          "indexed": false,
          "internalType": "uint256",
          "name": "Id",
          "type": "uint256"
        },
        {
          "indexed": false,
          "internalType": "string",
          "name": "name",
          "type": "string"
        },
        {
          "indexed": false,
          "internalType": "uint256",
          "name": "baseprice",
          "type": "uint256"
        },
        {
          "indexed": false,
          "internalType": "address",
          "name": "owner",
          "type": "address"
        },
        {
          "indexed": false,
          "internalType": "bool",
          "name": "purchased",
          "type": "bool"
        },
        {
          "indexed": false,
          "internalType": "string",
          "name": "discription",
          "type": "string"
        },
        {
          "indexed": false,
          "internalType": "uint256",
          "name": "bidcount",
          "type": "uint256"
        },
        {
          "indexed": false,
          "internalType": "string",
          "name": "category",
          "type": "string"
        }
      ],
      "name": "ProductCreated",
      "type": "event"
    },
    {
      "anonymous": false,
      "inputs": [
        {
          "components": [
            {
              "internalType": "uint256",
              "name": "Id",
              "type": "uint256"
            },
            {
              "internalType": "string",
              "name": "name",
              "type": "string"
            },
            {
              "internalType": "uint256",
              "name": "baseprice",
              "type": "uint256"
            },
            {
              "internalType": "address payable",
              "name": "owner",
              "type": "address"
            },
            {
              "internalType": "bool",
              "name": "purchased",
              "type": "bool"
            },
            {
              "internalType": "uint256",
              "name": "createdAt",
              "type": "uint256"
            },
            {
              "internalType": "uint256",
              "name": "currentBid",
              "type": "uint256"
            },
            {
              "internalType": "address payable",
              "name": "currentBidder",
              "type": "address"
            },
            {
              "internalType": "uint256",
              "name": "currentbidtime",
              "type": "uint256"
            },
            {
              "components": [
                {
                  "internalType": "string",
                  "name": "discription",
                  "type": "string"
                },
                {
                  "internalType": "string",
                  "name": "category",
                  "type": "string"
                },
                {
                  "internalType": "uint256",
                  "name": "bidinc",
                  "type": "uint256"
                },
                {
                  "internalType": "uint256",
                  "name": "endtime",
                  "type": "uint256"
                },
                {
                  "internalType": "string",
                  "name": "hash",
                  "type": "string"
                }
              ],
              "internalType": "struct Auction.Information",
              "name": "infoArray",
              "type": "tuple"
            },
            {
              "internalType": "uint256",
              "name": "bidcount",
              "type": "uint256"
            },
            {
              "internalType": "string",
              "name": "publickey",
              "type": "string"
            }
          ],
          "indexed": false,
          "internalType": "struct Auction.Product",
          "name": "",
          "type": "tuple"
        }
      ],
      "name": "ProductEvent",
      "type": "event"
    },
    {
      "anonymous": false,
      "inputs": [
        {
          "indexed": false,
          "internalType": "uint256",
          "name": "Id",
          "type": "uint256"
        },
        {
          "indexed": false,
          "internalType": "string",
          "name": "name",
          "type": "string"
        },
        {
          "indexed": false,
          "internalType": "uint256",
          "name": "baseprice",
          "type": "uint256"
        },
        {
          "indexed": false,
          "internalType": "address payable",
          "name": "owner",
          "type": "address"
        },
        {
          "indexed": false,
          "internalType": "bool",
          "name": "purchased",
          "type": "bool"
        },
        {
          "indexed": false,
          "internalType": "uint256",
          "name": "createdAt",
          "type": "uint256"
        },
        {
          "indexed": false,
          "internalType": "uint256",
          "name": "currentBid",
          "type": "uint256"
        },
        {
          "indexed": false,
          "internalType": "address payable",
          "name": "currentBidder",
          "type": "address"
        },
        {
          "indexed": false,
          "internalType": "uint256",
          "name": "bidcount",
          "type": "uint256"
        },
        {
          "indexed": false,
          "internalType": "string",
          "name": "category",
          "type": "string"
        }
      ],
      "name": "bidplaced",
      "type": "event"
    },
    {
      "anonymous": false,
      "inputs": [
        {
          "indexed": false,
          "internalType": "uint256",
          "name": "Id",
          "type": "uint256"
        },
        {
          "indexed": false,
          "internalType": "string",
          "name": "name",
          "type": "string"
        },
        {
          "indexed": false,
          "internalType": "uint256",
          "name": "baseprice",
          "type": "uint256"
        },
        {
          "indexed": false,
          "internalType": "bool",
          "name": "purchased",
          "type": "bool"
        },
        {
          "indexed": false,
          "internalType": "uint256",
          "name": "currentBid",
          "type": "uint256"
        },
        {
          "indexed": false,
          "internalType": "address payable",
          "name": "currentBidder",
          "type": "address"
        },
        {
          "indexed": false,
          "internalType": "uint256",
          "name": "bidcount",
          "type": "uint256"
        },
        {
          "indexed": false,
          "internalType": "string",
          "name": "category",
          "type": "string"
        }
      ],
      "name": "closeauction",
      "type": "event"
    },
    {
      "inputs": [
        {
          "internalType": "uint256",
          "name": "",
          "type": "uint256"
        }
      ],
      "name": "arrayhashes",
      "outputs": [
        {
          "internalType": "string",
          "name": "",
          "type": "string"
        }
      ],
      "stateMutability": "view",
      "type": "function",
      "constant": true
    },
    {
      "inputs": [],
      "name": "productCount",
      "outputs": [
        {
          "internalType": "uint256",
          "name": "",
          "type": "uint256"
        }
      ],
      "stateMutability": "view",
      "type": "function",
      "constant": true
    },
    {
      "inputs": [
        {
          "internalType": "uint256",
          "name": "",
          "type": "uint256"
        }
      ],
      "name": "products",
      "outputs": [
        {
          "internalType": "uint256",
          "name": "Id",
          "type": "uint256"
        },
        {
          "internalType": "string",
          "name": "name",
          "type": "string"
        },
        {
          "internalType": "uint256",
          "name": "baseprice",
          "type": "uint256"
        },
        {
          "internalType": "address payable",
          "name": "owner",
          "type": "address"
        },
        {
          "internalType": "bool",
          "name": "purchased",
          "type": "bool"
        },
        {
          "internalType": "uint256",
          "name": "createdAt",
          "type": "uint256"
        },
        {
          "internalType": "uint256",
          "name": "currentBid",
          "type": "uint256"
        },
        {
          "internalType": "address payable",
          "name": "currentBidder",
          "type": "address"
        },
        {
          "internalType": "uint256",
          "name": "currentbidtime",
          "type": "uint256"
        },
        {
          "components": [
            {
              "internalType": "string",
              "name": "discription",
              "type": "string"
            },
            {
              "internalType": "string",
              "name": "category",
              "type": "string"
            },
            {
              "internalType": "uint256",
              "name": "bidinc",
              "type": "uint256"
            },
            {
              "internalType": "uint256",
              "name": "endtime",
              "type": "uint256"
            },
            {
              "internalType": "string",
              "name": "hash",
              "type": "string"
            }
          ],
          "internalType": "struct Auction.Information",
          "name": "infoArray",
          "type": "tuple"
        },
        {
          "internalType": "uint256",
          "name": "bidcount",
          "type": "uint256"
        },
        {
          "internalType": "string",
          "name": "publickey",
          "type": "string"
        }
      ],
      "stateMutability": "view",
      "type": "function",
      "constant": true
    },
    {
      "inputs": [
        {
          "internalType": "uint256",
          "name": "",
          "type": "uint256"
        }
      ],
      "name": "user",
      "outputs": [
        {
          "internalType": "uint256",
          "name": "id",
          "type": "uint256"
        },
        {
          "internalType": "string",
          "name": "productname",
          "type": "string"
        },
        {
          "internalType": "string",
          "name": "name",
          "type": "string"
        },
        {
          "internalType": "string",
          "name": "email",
          "type": "string"
        },
        {
          "internalType": "string",
          "name": "addres",
          "type": "string"
        },
        {
          "internalType": "string",
          "name": "location",
          "type": "string"
        }
      ],
      "stateMutability": "view",
      "type": "function",
      "constant": true
    },
    {
      "inputs": [],
      "name": "usercount",
      "outputs": [
        {
          "internalType": "uint256",
          "name": "",
          "type": "uint256"
        }
      ],
      "stateMutability": "view",
      "type": "function",
      "constant": true
    },
    {
      "inputs": [
        {
          "internalType": "string",
          "name": "_hash",
          "type": "string"
        }
      ],
      "name": "set",
      "outputs": [],
      "stateMutability": "nonpayable",
      "type": "function"
    },
    {
      "inputs": [],
      "name": "get",
      "outputs": [
        {
          "internalType": "string",
          "name": "",
          "type": "string"
        }
      ],
      "stateMutability": "view",
      "type": "function",
      "constant": true
    },
    {
      "inputs": [
        {
          "internalType": "string",
          "name": "_name",
          "type": "string"
        },
        {
          "internalType": "string",
          "name": "_email",
          "type": "string"
        },
        {
          "internalType": "string",
          "name": "_address",
          "type": "string"
        },
        {
          "internalType": "string",
          "name": "_location",
          "type": "string"
        },
        {
          "internalType": "string",
          "name": "_productname",
          "type": "string"
        }
      ],
      "name": "createUser",
      "outputs": [],
      "stateMutability": "nonpayable",
      "type": "function"
    },
    {
      "inputs": [
        {
          "internalType": "string",
          "name": "_name",
          "type": "string"
        },
        {
          "internalType": "uint256",
          "name": "_baseprice",
          "type": "uint256"
        },
        {
          "internalType": "string",
          "name": "_discription",
          "type": "string"
        },
        {
          "internalType": "string",
          "name": "_category",
          "type": "string"
        },
        {
          "internalType": "string",
          "name": "_publickey",
          "type": "string"
        },
        {
          "internalType": "uint256",
          "name": "_bidinc",
          "type": "uint256"
        },
        {
          "internalType": "uint256",
          "name": "_etime",
          "type": "uint256"
        },
        {
          "internalType": "string",
          "name": "_hash",
          "type": "string"
        }
      ],
      "name": "createProduct",
      "outputs": [],
      "stateMutability": "payable",
      "type": "function",
      "payable": true
    },
    {
      "inputs": [
        {
          "internalType": "address payable",
          "name": "_owner",
          "type": "address"
        },
        {
          "internalType": "address payable",
          "name": "_account",
          "type": "address"
        }
      ],
      "name": "checkvalidity",
      "outputs": [
        {
          "internalType": "bool",
          "name": "",
          "type": "bool"
        }
      ],
      "stateMutability": "nonpayable",
      "type": "function"
    },
    {
      "inputs": [
        {
          "internalType": "uint256",
          "name": "_id",
          "type": "uint256"
        }
      ],
      "name": "placeBid",
      "outputs": [],
      "stateMutability": "payable",
      "type": "function",
      "payable": true
    },
    {
      "inputs": [
        {
          "internalType": "uint256",
          "name": "_id",
          "type": "uint256"
        }
      ],
      "name": "closeAuction",
      "outputs": [],
      "stateMutability": "payable",
      "type": "function",
      "payable": true
    },
    {
      "inputs": [
        {
          "internalType": "uint256",
          "name": "_id",
          "type": "uint256"
        }
      ],
      "name": "closeAuctionOwner",
      "outputs": [],
      "stateMutability": "payable",
      "type": "function",
      "payable": true
    },
    {
      "inputs": [],
      "name": "getnow",
      "outputs": [
        {
          "internalType": "uint256",
          "name": "",
          "type": "uint256"
        }
      ],
      "stateMutability": "view",
      "type": "function",
      "constant": true
    }
  ],
  "bytecode": "0x60806040526000600155600060025534801561001a57600080fd5b50612aa48061002a6000396000f3fe6080604052600436106100dd5760003560e01c80636d4ce63c1161007f57806385aeb5b21161005957806385aeb5b2146102a5578063881cf122146102e25780639979ef451461030d578063e0f6ef8714610329576100dd565b80636d4ce63c14610216578063725cb391146102415780637acc0b201461025d576100dd565b80634daf44cd116100bb5780634daf44cd146101455780634ed3885e14610182578063553275be146101ab57806365c06f70146101ed576100dd565b80630f322c1e146100e2578063236ed8f31461010d5780633cb57f3614610129575b600080fd5b3480156100ee57600080fd5b506100f7610354565b60405161010491906122b7565b60405180910390f35b61012760048036038101906101229190611aba565b61035a565b005b610143600480360381019061013e9190611990565b61053f565b005b34801561015157600080fd5b5061016c60048036038101906101679190611aba565b61089c565b6040516101799190612151565b60405180910390f35b34801561018e57600080fd5b506101a960048036038101906101a49190611860565b610948565b005b3480156101b757600080fd5b506101d260048036038101906101cd9190611aba565b61099e565b6040516101e4969594939291906122d2565b60405180910390f35b3480156101f957600080fd5b50610214600480360381019061020f91906118a1565b610c82565b005b34801561022257600080fd5b5061022b610d83565b6040516102389190612151565b60405180910390f35b61025b60048036038101906102569190611aba565b610e15565b005b34801561026957600080fd5b50610284600480360381019061027f9190611aba565b610fa4565b60405161029c9c9b9a99989796959493929190612356565b60405180910390f35b3480156102b157600080fd5b506102cc60048036038101906102c79190611824565b611335565b6040516102d99190612136565b60405180910390f35b3480156102ee57600080fd5b506102f7611379565b60405161030491906122b7565b60405180910390f35b61032760048036038101906103229190611aba565b61138e565b005b34801561033557600080fd5b5061033e6116e9565b60405161034b91906122b7565b60405180910390f35b60025481565b60006004600083815260200190815260200160002090506103e84261037f9190612513565b8160080160030154106103c7576040517f08c379a00000000000000000000000000000000000000000000000000000000081526004016103be90612253565b60405180910390fd5b8060060160009054906101000a900473ffffffffffffffffffffffffffffffffffffffff1673ffffffffffffffffffffffffffffffffffffffff163373ffffffffffffffffffffffffffffffffffffffff1614610459576040517f08c379a000000000000000000000000000000000000000000000000000000000815260040161045090612173565b60405180910390fd5b80600801600201548160050154610470919061256d565b81600501819055508060030160009054906101000a900473ffffffffffffffffffffffffffffffffffffffff1673ffffffffffffffffffffffffffffffffffffffff166108fc82600501549081150290604051600060405180830381858888f193505050501580156104e6573d6000803e3d6000fd5b5060018160030160146101000a81548160ff0219169083151502179055507f6b7e99a869191eeddfa86ee3a13dd194cb86c80f7308e96e3aa904630d60ddd8816040516105339190612295565b60405180910390a15050565b600088511161054d57600080fd5b6000871161055a57600080fd5b6001600081548092919061056d90612713565b9190505550600154600460006001548152602001908152602001600020600001819055508760046000600154815260200190815260200160002060010190805190602001906105bd9291906116ef565b5086600460006001548152602001908152602001600020600201819055503360046000600154815260200190815260200160002060030160006101000a81548173ffffffffffffffffffffffffffffffffffffffff021916908373ffffffffffffffffffffffffffffffffffffffff160217905550600060046000600154815260200190815260200160002060030160146101000a81548160ff0219169083151502179055506103e8426106719190612513565b600460006001548152602001908152602001600020600401819055508660046000600154815260200190815260200160002060050181905550600060046000600154815260200190815260200160002060060160006101000a81548173ffffffffffffffffffffffffffffffffffffffff021916908373ffffffffffffffffffffffffffffffffffffffff1602179055506103e8426107109190612513565b6004600060015481526020019081526020016000206007018190555085600460006001548152602001908152602001600020600801600001908051906020019061075b9291906116ef565b5084600460006001548152602001908152602001600020600801600101908051906020019061078b9291906116ef565b506000600460006001548152602001908152602001600020600d018190555083600460006001548152602001908152602001600020600e0190805190602001906107d69291906116ef565b50826004600060015481526020019081526020016000206008016002018190555081600460006001548152602001908152602001600020600801600301819055508060046000600154815260200190815260200160002060080160040190805190602001906108469291906116ef565b507f6b7e99a869191eeddfa86ee3a13dd194cb86c80f7308e96e3aa904630d60ddd860046000600154815260200190815260200160002060405161088a9190612273565b60405180910390a15050505050505050565b600081815481106108ac57600080fd5b9060005260206000200160009150905080546108c790612662565b80601f01602080910402602001604051908101604052809291908181526020018280546108f390612662565b80156109405780601f1061091557610100808354040283529160200191610940565b820191906000526020600020905b81548152906001019060200180831161092357829003601f168201915b505050505081565b806003908051906020019061095e9291906116ef565b5060008190806001815401808255809150506001900390600052602060002001600090919091909150908051906020019061099a9291906116ef565b5050565b60056020528060005260406000206000915090508060000154908060010180546109c790612662565b80601f01602080910402602001604051908101604052809291908181526020018280546109f390612662565b8015610a405780601f10610a1557610100808354040283529160200191610a40565b820191906000526020600020905b815481529060010190602001808311610a2357829003601f168201915b505050505090806002018054610a5590612662565b80601f0160208091040260200160405190810160405280929190818152602001828054610a8190612662565b8015610ace5780601f10610aa357610100808354040283529160200191610ace565b820191906000526020600020905b815481529060010190602001808311610ab157829003601f168201915b505050505090806003018054610ae390612662565b80601f0160208091040260200160405190810160405280929190818152602001828054610b0f90612662565b8015610b5c5780601f10610b3157610100808354040283529160200191610b5c565b820191906000526020600020905b815481529060010190602001808311610b3f57829003601f168201915b505050505090806004018054610b7190612662565b80601f0160208091040260200160405190810160405280929190818152602001828054610b9d90612662565b8015610bea5780601f10610bbf57610100808354040283529160200191610bea565b820191906000526020600020905b815481529060010190602001808311610bcd57829003601f168201915b505050505090806005018054610bff90612662565b80601f0160208091040260200160405190810160405280929190818152602001828054610c2b90612662565b8015610c785780601f10610c4d57610100808354040283529160200191610c78565b820191906000526020600020905b815481529060010190602001808311610c5b57829003601f168201915b5050505050905086565b60026000815480929190610c9590612713565b91905055506040518060c00160405280600254815260200182815260200186815260200185815260200184815260200183815250600560006002548152602001908152602001600020600082015181600001556020820151816001019080519060200190610d049291906116ef565b506040820151816002019080519060200190610d219291906116ef565b506060820151816003019080519060200190610d3e9291906116ef565b506080820151816004019080519060200190610d5b9291906116ef565b5060a0820151816005019080519060200190610d789291906116ef565b509050505050505050565b606060038054610d9290612662565b80601f0160208091040260200160405190810160405280929190818152602001828054610dbe90612662565b8015610e0b5780601f10610de057610100808354040283529160200191610e0b565b820191906000526020600020905b815481529060010190602001808311610dee57829003601f168201915b5050505050905090565b60006004600083815260200190815260200160002090508060030160009054906101000a900473ffffffffffffffffffffffffffffffffffffffff1673ffffffffffffffffffffffffffffffffffffffff163373ffffffffffffffffffffffffffffffffffffffff1614610ebe576040517f08c379a0000000000000000000000000000000000000000000000000000000008152600401610eb590612193565b60405180910390fd5b80600801600201548160050154610ed5919061256d565b81600501819055508060030160009054906101000a900473ffffffffffffffffffffffffffffffffffffffff1673ffffffffffffffffffffffffffffffffffffffff166108fc82600501549081150290604051600060405180830381858888f19350505050158015610f4b573d6000803e3d6000fd5b5060018160030160146101000a81548160ff0219169083151502179055507f6b7e99a869191eeddfa86ee3a13dd194cb86c80f7308e96e3aa904630d60ddd881604051610f989190612295565b60405180910390a15050565b6004602052806000526040600020600091509050806000015490806001018054610fcd90612662565b80601f0160208091040260200160405190810160405280929190818152602001828054610ff990612662565b80156110465780601f1061101b57610100808354040283529160200191611046565b820191906000526020600020905b81548152906001019060200180831161102957829003601f168201915b5050505050908060020154908060030160009054906101000a900473ffffffffffffffffffffffffffffffffffffffff16908060030160149054906101000a900460ff16908060040154908060050154908060060160009054906101000a900473ffffffffffffffffffffffffffffffffffffffff1690806007015490806008016040518060a00160405290816000820180546110e290612662565b80601f016020809104026020016040519081016040528092919081815260200182805461110e90612662565b801561115b5780601f106111305761010080835404028352916020019161115b565b820191906000526020600020905b81548152906001019060200180831161113e57829003601f168201915b5050505050815260200160018201805461117490612662565b80601f01602080910402602001604051908101604052809291908181526020018280546111a090612662565b80156111ed5780601f106111c2576101008083540402835291602001916111ed565b820191906000526020600020905b8154815290600101906020018083116111d057829003601f168201915b50505050508152602001600282015481526020016003820154815260200160048201805461121a90612662565b80601f016020809104026020016040519081016040528092919081815260200182805461124690612662565b80156112935780601f1061126857610100808354040283529160200191611293565b820191906000526020600020905b81548152906001019060200180831161127657829003601f168201915b5050505050815250509080600d01549080600e0180546112b290612662565b80601f01602080910402602001604051908101604052809291908181526020018280546112de90612662565b801561132b5780601f106113005761010080835404028352916020019161132b565b820191906000526020600020905b81548152906001019060200180831161130e57829003601f168201915b505050505090508c565b60008173ffffffffffffffffffffffffffffffffffffffff168373ffffffffffffffffffffffffffffffffffffffff161461136f57600080fd5b6001905092915050565b60006103e8426113899190612513565b905090565b6000600460008381526020019081526020016000209050600f81600701546103e8426113ba9190612513565b6113c4919061256d565b1015611405576040517f08c379a00000000000000000000000000000000000000000000000000000000081526004016113fc906121f3565b60405180910390fd5b80600801600301546103e84261141b9190612513565b1061145b576040517f08c379a000000000000000000000000000000000000000000000000000000000815260040161145290612233565b60405180910390fd5b80600201543410156114a2576040517f08c379a0000000000000000000000000000000000000000000000000000000008152600401611499906121d3565b60405180910390fd5b8060060160009054906101000a900473ffffffffffffffffffffffffffffffffffffffff1673ffffffffffffffffffffffffffffffffffffffff163373ffffffffffffffffffffffffffffffffffffffff161415611535576040517f08c379a000000000000000000000000000000000000000000000000000000000815260040161152c90612213565b60405180910390fd5b806005015434101561157c576040517f08c379a0000000000000000000000000000000000000000000000000000000008152600401611573906121b3565b60405180910390fd5b60008160050154111561160b578060060160009054906101000a900473ffffffffffffffffffffffffffffffffffffffff1673ffffffffffffffffffffffffffffffffffffffff166108fc826008016002015483600501546115de919061256d565b9081150290604051600060405180830381858888f19350505050158015611609573d6000803e3d6000fd5b505b8060080160020154816005015461162291906124bd565b8160050181905550338160060160006101000a81548173ffffffffffffffffffffffffffffffffffffffff021916908373ffffffffffffffffffffffffffffffffffffffff1602179055506103e84261167b9190612513565b8160070181905550600160046000848152602001908152602001600020600d01546116a691906124bd565b81600d01819055507f6b7e99a869191eeddfa86ee3a13dd194cb86c80f7308e96e3aa904630d60ddd8816040516116dd9190612295565b60405180910390a15050565b60015481565b8280546116fb90612662565b90600052602060002090601f01602090048101928261171d5760008555611764565b82601f1061173657805160ff1916838001178555611764565b82800160010185558215611764579182015b82811115611763578251825591602001919060010190611748565b5b5090506117719190611775565b5090565b5b8082111561178e576000816000905550600101611776565b5090565b60006117a56117a08461244a565b612425565b9050828152602081018484840111156117bd57600080fd5b6117c8848285612620565b509392505050565b6000813590506117df81612a40565b92915050565b600082601f8301126117f657600080fd5b8135611806848260208601611792565b91505092915050565b60008135905061181e81612a57565b92915050565b6000806040838503121561183757600080fd5b6000611845858286016117d0565b9250506020611856858286016117d0565b9150509250929050565b60006020828403121561187257600080fd5b600082013567ffffffffffffffff81111561188c57600080fd5b611898848285016117e5565b91505092915050565b600080600080600060a086880312156118b957600080fd5b600086013567ffffffffffffffff8111156118d357600080fd5b6118df888289016117e5565b955050602086013567ffffffffffffffff8111156118fc57600080fd5b611908888289016117e5565b945050604086013567ffffffffffffffff81111561192557600080fd5b611931888289016117e5565b935050606086013567ffffffffffffffff81111561194e57600080fd5b61195a888289016117e5565b925050608086013567ffffffffffffffff81111561197757600080fd5b611983888289016117e5565b9150509295509295909350565b600080600080600080600080610100898b0312156119ad57600080fd5b600089013567ffffffffffffffff8111156119c757600080fd5b6119d38b828c016117e5565b98505060206119e48b828c0161180f565b975050604089013567ffffffffffffffff811115611a0157600080fd5b611a0d8b828c016117e5565b965050606089013567ffffffffffffffff811115611a2a57600080fd5b611a368b828c016117e5565b955050608089013567ffffffffffffffff811115611a5357600080fd5b611a5f8b828c016117e5565b94505060a0611a708b828c0161180f565b93505060c0611a818b828c0161180f565b92505060e089013567ffffffffffffffff811115611a9e57600080fd5b611aaa8b828c016117e5565b9150509295985092959890939650565b600060208284031215611acc57600080fd5b6000611ada8482850161180f565b91505092915050565b611aec816125d8565b82525050565b611afb816125d8565b82525050565b611b0a816125ea565b82525050565b611b19816125ea565b82525050565b6000611b2a82612490565b611b34818561249b565b9350611b4481856020860161262f565b611b4d816127e9565b840191505092915050565b6000611b6382612490565b611b6d81856124ac565b9350611b7d81856020860161262f565b611b86816127e9565b840191505092915050565b60008154611b9e81612662565b611ba8818661249b565b94506001821660008114611bc35760018114611bd557611c08565b60ff1983168652602086019350611c08565b611bde8561247b565b60005b83811015611c0057815481890152600182019150602081019050611be1565b808801955050505b50505092915050565b6000611c1e602a836124ac565b9150611c2982612814565b604082019050919050565b6000611c41602a836124ac565b9150611c4c82612863565b604082019050919050565b6000611c646027836124ac565b9150611c6f826128b2565b604082019050919050565b6000611c876032836124ac565b9150611c9282612901565b604082019050919050565b6000611caa6004836124ac565b9150611cb582612950565b602082019050919050565b6000611ccd6021836124ac565b9150611cd882612979565b604082019050919050565b6000611cf06003836124ac565b9150611cfb826129c8565b602082019050919050565b6000611d136023836124ac565b9150611d1e826129f1565b604082019050919050565b600060a0830160008301518482036000860152611d468282611b1f565b91505060208301518482036020860152611d608282611b1f565b9150506040830151611d756040860182612118565b506060830151611d886060860182612118565b5060808301518482036080860152611da08282611b1f565b9150508091505092915050565b600060a0830160008084018583036000870152611dca8382611b91565b925050600184018583036020870152611de38382611b91565b92505060028401549050611df6816126ae565b611e036040870182612118565b5060038401549050611e14816126ae565b611e216060870182612118565b50600484018583036080870152611e388382611b91565b925050819250505092915050565b600061018083016000808401549050611e5e816126ae565b611e6b6000870182612118565b50600184018583036020870152611e828382611b91565b92505060028401549050611e95816126ae565b611ea26040870182612118565b5060038401549050611eb381612694565b611ec06060870182611ae3565b50611eca816126c8565b611ed76080870182611b01565b5060048401549050611ee8816126ae565b611ef560a0870182612118565b5060058401549050611f06816126ae565b611f1360c0870182612118565b5060068401549050611f2481612694565b611f3160e0870182611ae3565b5060078401549050611f42816126ae565b611f50610100870182612118565b5060088401858303610120870152611f688382611dad565b925050600d8401549050611f7b816126ae565b611f89610140870182612118565b50600e8401858303610160870152611fa18382611b91565b925050819250505092915050565b600061018083016000808401549050611fc7816126ae565b611fd46000870182612118565b50600184018583036020870152611feb8382611b91565b92505060028401549050611ffe816126ae565b61200b6040870182612118565b506003840154905061201c81612694565b6120296060870182611ae3565b50612033816126c8565b6120406080870182611b01565b5060048401549050612051816126ae565b61205e60a0870182612118565b506005840154905061206f816126ae565b61207c60c0870182612118565b506006840154905061208d81612694565b61209a60e0870182611ae3565b50600784015490506120ab816126ae565b6120b9610100870182612118565b50600884018583036101208701526120d18382611dad565b925050600d84015490506120e4816126ae565b6120f2610140870182612118565b50600e840185830361016087015261210a8382611b91565b925050819250505092915050565b61212181612616565b82525050565b61213081612616565b82525050565b600060208201905061214b6000830184611b10565b92915050565b6000602082019050818103600083015261216b8184611b58565b905092915050565b6000602082019050818103600083015261218c81611c11565b9050919050565b600060208201905081810360008301526121ac81611c34565b9050919050565b600060208201905081810360008301526121cc81611c57565b9050919050565b600060208201905081810360008301526121ec81611c7a565b9050919050565b6000602082019050818103600083015261220c81611c9d565b9050919050565b6000602082019050818103600083015261222c81611cc0565b9050919050565b6000602082019050818103600083015261224c81611ce3565b9050919050565b6000602082019050818103600083015261226c81611d06565b9050919050565b6000602082019050818103600083015261228d8184611faf565b905092915050565b600060208201905081810360008301526122af8184611e46565b905092915050565b60006020820190506122cc6000830184612127565b92915050565b600060c0820190506122e76000830189612127565b81810360208301526122f98188611b58565b9050818103604083015261230d8187611b58565b905081810360608301526123218186611b58565b905081810360808301526123358185611b58565b905081810360a08301526123498184611b58565b9050979650505050505050565b60006101808201905061236c600083018f612127565b818103602083015261237e818e611b58565b905061238d604083018d612127565b61239a606083018c611af2565b6123a7608083018b611b10565b6123b460a083018a612127565b6123c160c0830189612127565b6123ce60e0830188611af2565b6123dc610100830187612127565b8181036101208301526123ef8186611d29565b90506123ff610140830185612127565b8181036101608301526124128184611b58565b90509d9c50505050505050505050505050565b600061242f612440565b905061243b82826126e2565b919050565b6000604051905090565b600067ffffffffffffffff821115612465576124646127ba565b5b61246e826127e9565b9050602081019050919050565b60008190508160005260206000209050919050565b600081519050919050565b600082825260208201905092915050565b600082825260208201905092915050565b60006124c882612616565b91506124d383612616565b9250827fffffffffffffffffffffffffffffffffffffffffffffffffffffffffffffffff038211156125085761250761275c565b5b828201905092915050565b600061251e82612616565b915061252983612616565b9250817fffffffffffffffffffffffffffffffffffffffffffffffffffffffffffffffff04831182151516156125625761256161275c565b5b828202905092915050565b600061257882612616565b915061258383612616565b9250828210156125965761259561275c565b5b828203905092915050565b600073ffffffffffffffffffffffffffffffffffffffff82169050919050565b600060ff82169050919050565b6000819050919050565b60006125e3826125f6565b9050919050565b60008115159050919050565b600073ffffffffffffffffffffffffffffffffffffffff82169050919050565b6000819050919050565b82818337600083830152505050565b60005b8381101561264d578082015181840152602081019050612632565b8381111561265c576000848401525b50505050565b6000600282049050600182168061267a57607f821691505b6020821081141561268e5761268d61278b565b5b50919050565b60006126a76126a2836127fa565b6125a1565b9050919050565b60006126c16126bc836127fa565b6125ce565b9050919050565b60006126db6126d683612807565b6125c1565b9050919050565b6126eb826127e9565b810181811067ffffffffffffffff8211171561270a576127096127ba565b5b80604052505050565b600061271e82612616565b91507fffffffffffffffffffffffffffffffffffffffffffffffffffffffffffffffff8214156127515761275061275c565b5b600182019050919050565b7f4e487b7100000000000000000000000000000000000000000000000000000000600052601160045260246000fd5b7f4e487b7100000000000000000000000000000000000000000000000000000000600052602260045260246000fd5b7f4e487b7100000000000000000000000000000000000000000000000000000000600052604160045260246000fd5b6000601f19601f8301169050919050565b60008160001c9050919050565b60008160a01c9050919050565b7f796f7520617265206e6f7420656c696769626c6520746f20636c61696d20746860008201527f69732070726f6475637400000000000000000000000000000000000000000000602082015250565b7f796f7520617265206e6f7420656c696769626c6520746f20636c6f736520746860008201527f69732061756374696f6e00000000000000000000000000000000000000000000602082015250565b7f6269672076616c7565206e6f742067726561746572207468616e20707265766960008201527f6f75732062696400000000000000000000000000000000000000000000000000602082015250565b7f6269642076616c75652073686f756c646e2774206265206c657373207468616e60008201527f2074686520726573657276652076616c75650000000000000000000000000000602082015250565b7f6162636400000000000000000000000000000000000000000000000000000000600082015250565b7f6269646465722063616e2774206f757420736f207468656972206f776e20626960008201527f6400000000000000000000000000000000000000000000000000000000000000602082015250565b7f6566670000000000000000000000000000000000000000000000000000000000600082015250565b7f62696464696e6720666f722070726f64756374206973206e6f74206f7665722060008201527f7965740000000000000000000000000000000000000000000000000000000000602082015250565b612a49816125d8565b8114612a5457600080fd5b50565b612a6081612616565b8114612a6b57600080fd5b5056fea2646970667358221220d996daec574e1d693a770f47c688c1c23550df4b729f93c6ba3caf49bbf3d76764736f6c63430008040033",
  "immutableReferences": {},
  "source": "pragma solidity ^0.8.4;\r\npragma experimental ABIEncoderV2;\r\ncontract Auction {\r\n\r\n    string[] public arrayhashes;\r\n\r\n\r\n    uint public productCount = 0;\r\n    uint public usercount = 0;\r\n    string hash;\r\n\r\n     function set(string memory _hash) public {\r\n        hash = _hash;\r\n        arrayhashes.push(_hash);\r\n    }\r\n\r\n    //read function\r\n    function get() public view returns (string memory) {\r\n    return hash;\r\n  }\r\n    \r\n    mapping(uint => Product) public products;\r\n    mapping(uint => User)public user;\r\n\r\n    struct User{\r\n        uint id;\r\n        string productname;\r\n        string name;\r\n        string email;\r\n        string addres;\r\n        string location;\r\n        \r\n    }\r\n   \r\n    struct Product {\r\n        uint Id;\r\n        string name;\r\n        uint baseprice;\r\n        address payable owner;\r\n        bool purchased;\r\n        uint createdAt;\r\n        uint currentBid;\r\n        address payable currentBidder;\r\n        uint currentbidtime;\r\n        Information infoArray;\r\n        uint bidcount;\r\n        string publickey;\r\n    }\r\n\r\n    struct Information {\r\n        string discription;\r\n        string category;\r\n        uint bidinc;\r\n        uint endtime;\r\n        string hash;\r\n        \r\n    }\r\n    \r\n    event ProductCreated(\r\n        uint Id,\r\n        string name,\r\n        uint baseprice,\r\n        address owner,\r\n        bool purchased,\r\n        string discription,\r\n        uint bidcount,\r\n        string category\r\n    );\r\n    \r\n    event bidplaced(\r\n        uint Id,\r\n        string name,\r\n        uint baseprice,\r\n        address payable owner,\r\n        bool purchased,\r\n        uint createdAt,\r\n        uint currentBid,\r\n        address payable currentBidder,\r\n        uint bidcount,\r\n        string category\r\n        );\r\n        \r\n    event closeauction (\r\n        uint Id,\r\n        string name,\r\n        uint baseprice,\r\n        bool purchased,\r\n        uint currentBid,\r\n        address payable currentBidder,\r\n        uint bidcount,\r\n        string category\r\n        );\r\n        \r\n    event ProductEvent (Product);\r\n    \r\n    modifier Auctionactive (uint _id){\r\n        require(block.timestamp - products[_id].createdAt <= 200  );\r\n        _;\r\n    }\r\n\r\n    function createUser(string memory _name,string memory _email,string memory _address,string memory _location ,string memory _productname) public {\r\n        usercount++;\r\n        user[usercount] = User(usercount,_productname,_name,_email,_address, _location);\r\n    }\r\n\r\n    function createProduct(string memory _name, uint _baseprice, string memory _discription, string memory _category, string memory _publickey, uint _bidinc, uint _etime, string memory _hash) public payable{\r\n        //verify the product\r\n        require(bytes(_name).length > 0);\r\n        require(_baseprice >0);\r\n        //increment productCount\r\n\r\n        productCount++;\r\n        products[productCount].Id = productCount;\r\n        products[productCount].name =_name;\r\n        products[productCount].baseprice =_baseprice;\r\n        products[productCount].owner = payable(msg.sender);\r\n        products[productCount].purchased =false;\r\n        products[productCount].createdAt =block.timestamp*1000;\r\n        products[productCount].currentBid = _baseprice ;\r\n        products[productCount].currentBidder = payable(0);\r\n        products[productCount].currentbidtime =block.timestamp*1000;\r\n        products[productCount].infoArray.discription =_discription;\r\n        products[productCount].infoArray.category =_category;\r\n        products[productCount].bidcount = 0;\r\n        products[productCount].publickey = _publickey;\r\n        products[productCount].infoArray.bidinc = _bidinc;\r\n        products[productCount].infoArray.endtime =  _etime;\r\n        products[productCount].infoArray.hash = _hash;\r\n        \r\n        //create the product\r\n        //products[productCount] = Product(productCount,_name,_baseprice,msg.sender,false, block.timestamp,_baseprice,msg.sender,block.timestamp, _discription,0, _category);\r\n       \r\n        //trigger an event\r\n        //emit ProductCreated(productCount,_name,_baseprice,msg.sender,false,_discription,0, _category);\r\n        \r\n        emit ProductEvent(products[productCount]);\r\n    \r\n    }\r\n    \r\n    modifier validAuction(uint _id) {\r\n        products[_id].Id <= productCount;\r\n        _;\r\n    }\r\n\r\n    modifier validbid(uint _id){\r\n        require (block.timestamp*1000 - products[_id].currentbidtime >= 15 seconds);\r\n        _;\r\n    }\r\n\r\n\r\n    function checkvalidity (address payable _owner, address payable _account ) public returns (bool){\r\n\r\n        require(_owner == _account);\r\n\r\n\r\n        return true;\r\n    }\r\n    \r\n    function placeBid (uint _id)  payable public{\r\n        \r\n        Product storage product = products[_id];\r\n\r\n        //difference between bids should be greater than 15 seconds\r\n        require(block.timestamp*1000 - product.currentbidtime >= 15 seconds, \"abcd\");\r\n        \r\n        require(block.timestamp*1000 < product.infoArray.endtime , \"efg\");\r\n        \r\n         // bid should be greater than minPrice\r\n        require(msg.value>=product.baseprice,\"bid value shouldn't be less than the reserve value\");\r\n        \r\n        // you should not be the last bidder , no point in outdoing your own bid\r\n        require(msg.sender != product.currentBidder,\"bidder can't out so their own bid\");\r\n        \r\n        // the incoming value should be greater than previous bid\r\n        require(msg.value >= product.currentBid,\"big value not greater than previous bid\"); \r\n        \r\n        \r\n        \r\n        if(product.currentBid>0){\r\n            product.currentBidder.transfer(product.currentBid -    (product.infoArray.bidinc)  );\r\n        }\r\n        \r\n        product.currentBid =  product.currentBid +   (product.infoArray.bidinc)   ;\r\n        \r\n        \r\n\r\n        \r\n        product.currentBidder = payable(msg.sender);\r\n        product.currentbidtime = block.timestamp*1000;\r\n        product.bidcount = products[_id].bidcount + 1;\r\n        \r\n        \r\n        emit ProductEvent(product);\r\n    \r\n        \r\n        //emit bidplaced(_id,products[_id].name,products[_id].baseprice,products[_id].owner,products[_id].purchased,block.timestamp,\r\n        //products[_id].currentBid,products[_id].currentBidder,products[_id].bidcount, products[_id].infoArray.category  );\r\n        \r\n    }\r\n    \r\n    function closeAuction(uint _id) payable public  {\r\n        //require(block.timestamp - products[_id].createdAt >= 120, \"auction not ended\"  );\r\n\r\n         Product storage product = products[_id];\r\n        \r\n        //bidding time\r\n        require(product.infoArray.endtime < block.timestamp*1000,\"bidding for product is not over yet\");\r\n        \r\n        //claimer must be bidder\r\n        \r\n        require(msg.sender == product.currentBidder,\"you are not eligible to claim this product\");\r\n        \r\n        product.currentBid = product.currentBid  -   (product.infoArray.bidinc) ;\r\n        \r\n        // money sent to seller\r\n        product.owner.transfer(product.currentBid);\r\n        \r\n        // set product status sold to true\r\n        product.purchased = true;\r\n        \r\n        \r\n        emit ProductEvent(product);\r\n         \r\n        \r\n        \r\n        //emit closeauction(_product.Id,_product.name ,_product.baseprice,true,_product.currentBid, _product.owner,products[_id].bidcount ,products[_id].infoArray.category);\r\n\r\n    }\r\n    \r\n    \r\n     function closeAuctionOwner(uint _id) payable public  {\r\n\r\n         Product storage product = products[_id];\r\n        \r\n        //claimer must be owner\r\n        \r\n        require(msg.sender == product.owner,\"you are not eligible to close this auction\");\r\n        \r\n        product.currentBid = product.currentBid  -   (product.infoArray.bidinc) ;\r\n        \r\n        // money sent to seller\r\n        product.owner.transfer(product.currentBid);\r\n        \r\n        // set product status sold to true\r\n        product.purchased = true;\r\n        \r\n        \r\n        emit ProductEvent(product);\r\n         \r\n        \r\n        \r\n        //emit closeauction(_product.Id,_product.name ,_product.baseprice,true,_product.currentBid, _product.owner,products[_id].bidcount ,products[_id].infoArray.category);\r\n\r\n    }\r\n\r\n    \r\n    function getnow()view public returns(uint) {\r\n        return block.timestamp*1000;\r\n    }\r\n    \r\n}",
  "sourcePath": "/Users/preritrawtani/Desktop/blockchain/Auction/src/contracts/Auction.sol",
  "compiler": {
    "name": "solc",
    "version": "0.8.4+commit.c7e474f2.Emscripten.clang"
  },
  "schemaVersion": "3.4.0",
  "updatedAt": "2021-07-27T04:12:43.018Z",
  "networkType": "ethereum",
  "devdoc": {
    "kind": "dev",
    "methods": {},
    "version": 1
  },
  "userdoc": {
    "kind": "user",
    "methods": {},
    "version": 1
  }
}