{
  "contractName": "Auction",
  "abi": [
    {
      "anonymous": false,
      "inputs": [
        {
          "indexed": false,
          "internalType": "uint256",
          "name": "Id",
          "type": "uint256"
        },
        {
          "indexed": false,
          "internalType": "string",
          "name": "name",
          "type": "string"
        },
        {
          "indexed": false,
          "internalType": "uint256",
          "name": "baseprice",
          "type": "uint256"
        },
        {
          "indexed": false,
          "internalType": "address",
          "name": "owner",
          "type": "address"
        },
        {
          "indexed": false,
          "internalType": "bool",
          "name": "purchased",
          "type": "bool"
        },
        {
          "indexed": false,
          "internalType": "string",
          "name": "discription",
          "type": "string"
        },
        {
          "indexed": false,
          "internalType": "uint256",
          "name": "bidcount",
          "type": "uint256"
        },
        {
          "indexed": false,
          "internalType": "string",
          "name": "category",
          "type": "string"
        }
      ],
      "name": "ProductCreated",
      "type": "event"
    },
    {
      "anonymous": false,
      "inputs": [
        {
          "indexed": false,
          "internalType": "uint256",
          "name": "Id",
          "type": "uint256"
        },
        {
          "indexed": false,
          "internalType": "string",
          "name": "name",
          "type": "string"
        },
        {
          "indexed": false,
          "internalType": "uint256",
          "name": "baseprice",
          "type": "uint256"
        },
        {
          "indexed": false,
          "internalType": "address payable",
          "name": "owner",
          "type": "address"
        },
        {
          "indexed": false,
          "internalType": "bool",
          "name": "purchased",
          "type": "bool"
        },
        {
          "indexed": false,
          "internalType": "uint256",
          "name": "createdAt",
          "type": "uint256"
        },
        {
          "indexed": false,
          "internalType": "uint256",
          "name": "currentBid",
          "type": "uint256"
        },
        {
          "indexed": false,
          "internalType": "address payable",
          "name": "currentBidder",
          "type": "address"
        },
        {
          "indexed": false,
          "internalType": "uint256",
          "name": "bidcount",
          "type": "uint256"
        },
        {
          "indexed": false,
          "internalType": "string",
          "name": "category",
          "type": "string"
        }
      ],
      "name": "bidplaced",
      "type": "event"
    },
    {
      "anonymous": false,
      "inputs": [
        {
          "indexed": false,
          "internalType": "uint256",
          "name": "Id",
          "type": "uint256"
        },
        {
          "indexed": false,
          "internalType": "string",
          "name": "name",
          "type": "string"
        },
        {
          "indexed": false,
          "internalType": "uint256",
          "name": "baseprice",
          "type": "uint256"
        },
        {
          "indexed": false,
          "internalType": "bool",
          "name": "purchased",
          "type": "bool"
        },
        {
          "indexed": false,
          "internalType": "uint256",
          "name": "currentBid",
          "type": "uint256"
        },
        {
          "indexed": false,
          "internalType": "address payable",
          "name": "currentBidder",
          "type": "address"
        },
        {
          "indexed": false,
          "internalType": "uint256",
          "name": "bidcount",
          "type": "uint256"
        },
        {
          "indexed": false,
          "internalType": "string",
          "name": "category",
          "type": "string"
        }
      ],
      "name": "closeauction",
      "type": "event"
    },
    {
      "constant": true,
      "inputs": [
        {
          "internalType": "uint256",
          "name": "",
          "type": "uint256"
        }
      ],
      "name": "arrayhashes",
      "outputs": [
        {
          "internalType": "string",
          "name": "",
          "type": "string"
        }
      ],
      "payable": false,
      "stateMutability": "view",
      "type": "function"
    },
    {
      "constant": true,
      "inputs": [],
      "name": "productCount",
      "outputs": [
        {
          "internalType": "uint256",
          "name": "",
          "type": "uint256"
        }
      ],
      "payable": false,
      "stateMutability": "view",
      "type": "function"
    },
    {
      "constant": true,
      "inputs": [
        {
          "internalType": "uint256",
          "name": "",
          "type": "uint256"
        }
      ],
      "name": "products",
      "outputs": [
        {
          "internalType": "uint256",
          "name": "Id",
          "type": "uint256"
        },
        {
          "internalType": "string",
          "name": "name",
          "type": "string"
        },
        {
          "internalType": "uint256",
          "name": "baseprice",
          "type": "uint256"
        },
        {
          "internalType": "address payable",
          "name": "owner",
          "type": "address"
        },
        {
          "internalType": "bool",
          "name": "purchased",
          "type": "bool"
        },
        {
          "internalType": "uint256",
          "name": "createdAt",
          "type": "uint256"
        },
        {
          "internalType": "uint256",
          "name": "currentBid",
          "type": "uint256"
        },
        {
          "internalType": "address payable",
          "name": "currentBidder",
          "type": "address"
        },
        {
          "internalType": "uint256",
          "name": "currentbidtime",
          "type": "uint256"
        },
        {
          "components": [
            {
              "internalType": "string",
              "name": "discription",
              "type": "string"
            },
            {
              "internalType": "string",
              "name": "category",
              "type": "string"
            }
          ],
          "internalType": "struct Auction.Information",
          "name": "infoArray",
          "type": "tuple"
        },
        {
          "internalType": "uint256",
          "name": "bidcount",
          "type": "uint256"
        },
        {
          "internalType": "string",
          "name": "publickey",
          "type": "string"
        }
      ],
      "payable": false,
      "stateMutability": "view",
      "type": "function"
    },
    {
      "constant": true,
      "inputs": [
        {
          "internalType": "uint256",
          "name": "",
          "type": "uint256"
        }
      ],
      "name": "user",
      "outputs": [
        {
          "internalType": "uint256",
          "name": "id",
          "type": "uint256"
        },
        {
          "internalType": "string",
          "name": "productname",
          "type": "string"
        },
        {
          "internalType": "string",
          "name": "name",
          "type": "string"
        },
        {
          "internalType": "string",
          "name": "email",
          "type": "string"
        },
        {
          "internalType": "string",
          "name": "addres",
          "type": "string"
        }
      ],
      "payable": false,
      "stateMutability": "view",
      "type": "function"
    },
    {
      "constant": true,
      "inputs": [],
      "name": "usercount",
      "outputs": [
        {
          "internalType": "uint256",
          "name": "",
          "type": "uint256"
        }
      ],
      "payable": false,
      "stateMutability": "view",
      "type": "function"
    },
    {
      "constant": false,
      "inputs": [
        {
          "internalType": "string",
          "name": "_hash",
          "type": "string"
        }
      ],
      "name": "set",
      "outputs": [],
      "payable": false,
      "stateMutability": "nonpayable",
      "type": "function"
    },
    {
      "constant": true,
      "inputs": [],
      "name": "get",
      "outputs": [
        {
          "internalType": "string",
          "name": "",
          "type": "string"
        }
      ],
      "payable": false,
      "stateMutability": "view",
      "type": "function"
    },
    {
      "constant": false,
      "inputs": [
        {
          "internalType": "string",
          "name": "_name",
          "type": "string"
        },
        {
          "internalType": "string",
          "name": "_email",
          "type": "string"
        },
        {
          "internalType": "string",
          "name": "_address",
          "type": "string"
        },
        {
          "internalType": "string",
          "name": "_productname",
          "type": "string"
        }
      ],
      "name": "createUser",
      "outputs": [],
      "payable": false,
      "stateMutability": "nonpayable",
      "type": "function"
    },
    {
      "constant": false,
      "inputs": [
        {
          "internalType": "string",
          "name": "_name",
          "type": "string"
        },
        {
          "internalType": "uint256",
          "name": "_baseprice",
          "type": "uint256"
        },
        {
          "internalType": "string",
          "name": "_discription",
          "type": "string"
        },
        {
          "internalType": "string",
          "name": "_category",
          "type": "string"
        },
        {
          "internalType": "string",
          "name": "_publickey",
          "type": "string"
        }
      ],
      "name": "createProduct",
      "outputs": [],
      "payable": true,
      "stateMutability": "payable",
      "type": "function"
    },
    {
      "constant": false,
      "inputs": [
        {
          "internalType": "address payable",
          "name": "_owner",
          "type": "address"
        },
        {
          "internalType": "address payable",
          "name": "_account",
          "type": "address"
        }
      ],
      "name": "checkvalidity",
      "outputs": [
        {
          "internalType": "bool",
          "name": "",
          "type": "bool"
        }
      ],
      "payable": false,
      "stateMutability": "nonpayable",
      "type": "function"
    },
    {
      "constant": false,
      "inputs": [
        {
          "internalType": "uint256",
          "name": "_id",
          "type": "uint256"
        }
      ],
      "name": "placeBid",
      "outputs": [],
      "payable": true,
      "stateMutability": "payable",
      "type": "function"
    },
    {
      "constant": false,
      "inputs": [
        {
          "internalType": "uint256",
          "name": "_id",
          "type": "uint256"
        }
      ],
      "name": "Auctionstatus",
      "outputs": [
        {
          "internalType": "bool",
          "name": "",
          "type": "bool"
        }
      ],
      "payable": false,
      "stateMutability": "nonpayable",
      "type": "function"
    },
    {
      "constant": false,
      "inputs": [
        {
          "internalType": "uint256",
          "name": "_id",
          "type": "uint256"
        }
      ],
      "name": "closeAuction",
      "outputs": [],
      "payable": true,
      "stateMutability": "payable",
      "type": "function"
    }
  ],
  "bytecode": "0x60806040526000600155600060025534801561001a57600080fd5b506123d78061002a6000396000f3fe6080604052600436106100c25760003560e01c80636d4ce63c1161007f5780637acc0b20116100595780637acc0b201461026257806385aeb5b2146102aa5780639979ef45146102e7578063e0f6ef8714610303576100c2565b80636d4ce63c146101d15780636f7fcddb146101fc578063764b7c1814610225576100c2565b80630f322c1e146100c7578063236ed8f3146100f25780634daf44cd1461010e5780634ed3885e1461014b578063553275be14610174578063592a13fc146101b5575b600080fd5b3480156100d357600080fd5b506100dc61032e565b6040516100e99190611ebb565b60405180910390f35b61010c60048036036101079190810190611c6a565b610334565b005b34801561011a57600080fd5b5061013560048036036101309190810190611c6a565b6109f5565b6040516101429190611e77565b60405180910390f35b34801561015757600080fd5b50610172600480360361016d9190810190611a8f565b610aae565b005b34801561018057600080fd5b5061019b60048036036101969190810190611c6a565b610b07565b6040516101ac959493929190611f69565b60405180910390f35b6101cf60048036036101ca9190810190611b93565b610d9d565b005b3480156101dd57600080fd5b506101e6611064565b6040516101f39190611e99565b60405180910390f35b34801561020857600080fd5b50610223600480360361021e9190810190611ad0565b611106565b005b34801561023157600080fd5b5061024c60048036036102479190810190611c6a565b6111dd565b6040516102599190611e5c565b60405180910390f35b34801561026e57600080fd5b5061028960048036036102849190810190611c6a565b611213565b6040516102a19c9b9a99989796959493929190611fd8565b60405180910390f35b3480156102b657600080fd5b506102d160048036036102cc9190810190611a53565b61153e565b6040516102de9190611e5c565b60405180910390f35b61030160048036036102fc9190810190611c6a565b611582565b005b34801561030f57600080fd5b506103186117fb565b6040516103259190611ebb565b60405180910390f35b60025481565b80600154600460008381526020019081526020016000205050610356826111dd565b15610360576109f1565b610368611801565b600460008481526020019081526020016000206040518061018001604052908160008201548152602001600182018054600181600116156101000203166002900480601f01602080910402602001604051908101604052809291908181526020018280546001816001161561010002031660029004801561042a5780601f106103ff5761010080835404028352916020019161042a565b820191906000526020600020905b81548152906001019060200180831161040d57829003601f168201915b50505050508152602001600282015481526020016003820160009054906101000a900473ffffffffffffffffffffffffffffffffffffffff1673ffffffffffffffffffffffffffffffffffffffff1673ffffffffffffffffffffffffffffffffffffffff1681526020016003820160149054906101000a900460ff1615151515815260200160048201548152602001600582015481526020016006820160009054906101000a900473ffffffffffffffffffffffffffffffffffffffff1673ffffffffffffffffffffffffffffffffffffffff1673ffffffffffffffffffffffffffffffffffffffff1681526020016007820154815260200160088201604051806040016040529081600082018054600181600116156101000203166002900480601f0160208091040260200160405190810160405280929190818152602001828054600181600116156101000203166002900480156105cb5780601f106105a0576101008083540402835291602001916105cb565b820191906000526020600020905b8154815290600101906020018083116105ae57829003601f168201915b50505050508152602001600182018054600181600116156101000203166002900480601f01602080910402602001604051908101604052809291908181526020018280546001816001161561010002031660029004801561066d5780601f106106425761010080835404028352916020019161066d565b820191906000526020600020905b81548152906001019060200180831161065057829003601f168201915b5050505050815250508152602001600a8201548152602001600b82018054600181600116156101000203166002900480601f01602080910402602001604051908101604052809291908181526020018280546001816001161561010002031660029004801561071d5780601f106106f25761010080835404028352916020019161071d565b820191906000526020600020905b81548152906001019060200180831161070057829003601f168201915b50505050508152505090506000816060015190508160c0015134101561074257600080fd5b81608001511561075157600080fd5b3373ffffffffffffffffffffffffffffffffffffffff168173ffffffffffffffffffffffffffffffffffffffff16141561078a57600080fd5b600182608001901515908115158152505081600460008681526020019081526020016000206000820151816000015560208201518160010190805190602001906107d5929190611896565b506040820151816002015560608201518160030160006101000a81548173ffffffffffffffffffffffffffffffffffffffff021916908373ffffffffffffffffffffffffffffffffffffffff16021790555060808201518160030160146101000a81548160ff02191690831515021790555060a0820151816004015560c0820151816005015560e08201518160060160006101000a81548173ffffffffffffffffffffffffffffffffffffffff021916908373ffffffffffffffffffffffffffffffffffffffff16021790555061010082015181600701556101208201518160080160008201518160000190805190602001906108d3929190611896565b5060208201518160010190805190602001906108f0929190611896565b50505061014082015181600a015561016082015181600b01908051906020019061091b929190611896565b509050508073ffffffffffffffffffffffffffffffffffffffff166108fc349081150290604051600060405180830381858888f19350505050158015610965573d6000803e3d6000fd5b507f65ce72df2cabf9df3c8a6e7e2928cba08fce370e12a856c22d633d6785a51ee282600001518360200151846040015160018660c001518760600151600460008c8152602001908152602001600020600a0154600460008d81526020019081526020016000206008016001016040516109e69897969594939291906120a7565b60405180910390a150505b5050565b60008181548110610a0257fe5b906000526020600020016000915090508054600181600116156101000203166002900480601f016020809104026020016040519081016040528092919081815260200182805460018160011615610100020316600290048015610aa65780601f10610a7b57610100808354040283529160200191610aa6565b820191906000526020600020905b815481529060010190602001808311610a8957829003601f168201915b505050505081565b8060039080519060200190610ac4929190611916565b506000819080600181540180825580915050906001820390600052602060002001600090919290919091509080519060200190610b02929190611916565b505050565b6005602052806000526040600020600091509050806000015490806001018054600181600116156101000203166002900480601f016020809104026020016040519081016040528092919081815260200182805460018160011615610100020316600290048015610bb95780601f10610b8e57610100808354040283529160200191610bb9565b820191906000526020600020905b815481529060010190602001808311610b9c57829003601f168201915b505050505090806002018054600181600116156101000203166002900480601f016020809104026020016040519081016040528092919081815260200182805460018160011615610100020316600290048015610c575780601f10610c2c57610100808354040283529160200191610c57565b820191906000526020600020905b815481529060010190602001808311610c3a57829003601f168201915b505050505090806003018054600181600116156101000203166002900480601f016020809104026020016040519081016040528092919081815260200182805460018160011615610100020316600290048015610cf55780601f10610cca57610100808354040283529160200191610cf5565b820191906000526020600020905b815481529060010190602001808311610cd857829003601f168201915b505050505090806004018054600181600116156101000203166002900480601f016020809104026020016040519081016040528092919081815260200182805460018160011615610100020316600290048015610d935780601f10610d6857610100808354040283529160200191610d93565b820191906000526020600020905b815481529060010190602001808311610d7657829003601f168201915b5050505050905085565b6000855111610dab57600080fd5b60008411610db857600080fd5b60016000815480929190600101919050555060015460046000600154815260200190815260200160002060000181905550846004600060015481526020019081526020016000206001019080519060200190610e15929190611916565b5083600460006001548152602001908152602001600020600201819055503360046000600154815260200190815260200160002060030160006101000a81548173ffffffffffffffffffffffffffffffffffffffff021916908373ffffffffffffffffffffffffffffffffffffffff160217905550600060046000600154815260200190815260200160002060030160146101000a81548160ff021916908315150217905550426004600060015481526020019081526020016000206004018190555083600460006001548152602001908152602001600020600501819055503360046000600154815260200190815260200160002060060160006101000a81548173ffffffffffffffffffffffffffffffffffffffff021916908373ffffffffffffffffffffffffffffffffffffffff1602179055504260046000600154815260200190815260200160002060070181905550826004600060015481526020019081526020016000206008016000019080519060200190610f98929190611916565b50816004600060015481526020019081526020016000206008016001019080519060200190610fc8929190611916565b506000600460006001548152602001908152602001600020600a018190555080600460006001548152602001908152602001600020600b019080519060200190611013929190611916565b507f79b20e866b3d8a747137399d4912ef8f96009ea7ec6d76493cbbed18d92f7337600154868633600088600089604051611055989796959493929190611ed6565b60405180910390a15050505050565b606060038054600181600116156101000203166002900480601f0160208091040260200160405190810160405280929190818152602001828054600181600116156101000203166002900480156110fc5780601f106110d1576101008083540402835291602001916110fc565b820191906000526020600020905b8154815290600101906020018083116110df57829003601f168201915b5050505050905090565b6002600081548092919060010191905055506040518060a0016040528060025481526020018281526020018581526020018481526020018381525060056000600254815260200190815260200160002060008201518160000155602082015181600101908051906020019061117c929190611896565b506040820151816002019080519060200190611199929190611896565b5060608201518160030190805190602001906111b6929190611896565b5060808201518160040190805190602001906111d3929190611896565b5090505050505050565b6000603c600460008481526020019081526020016000206004015442031015611209576001905061120e565b600090505b919050565b6004602052806000526040600020600091509050806000015490806001018054600181600116156101000203166002900480601f0160208091040260200160405190810160405280929190818152602001828054600181600116156101000203166002900480156112c55780601f1061129a576101008083540402835291602001916112c5565b820191906000526020600020905b8154815290600101906020018083116112a857829003601f168201915b5050505050908060020154908060030160009054906101000a900473ffffffffffffffffffffffffffffffffffffffff16908060030160149054906101000a900460ff16908060040154908060050154908060060160009054906101000a900473ffffffffffffffffffffffffffffffffffffffff169080600701549080600801604051806040016040529081600082018054600181600116156101000203166002900480601f0160208091040260200160405190810160405280929190818152602001828054600181600116156101000203166002900480156113ea5780601f106113bf576101008083540402835291602001916113ea565b820191906000526020600020905b8154815290600101906020018083116113cd57829003601f168201915b50505050508152602001600182018054600181600116156101000203166002900480601f01602080910402602001604051908101604052809291908181526020018280546001816001161561010002031660029004801561148c5780601f106114615761010080835404028352916020019161148c565b820191906000526020600020905b81548152906001019060200180831161146f57829003601f168201915b5050505050815250509080600a01549080600b018054600181600116156101000203166002900480601f0160208091040260200160405190810160405280929190818152602001828054600181600116156101000203166002900480156115345780601f1061150957610100808354040283529160200191611534565b820191906000526020600020905b81548152906001019060200180831161151757829003601f168201915b505050505090508c565b60008173ffffffffffffffffffffffffffffffffffffffff168373ffffffffffffffffffffffffffffffffffffffff161461157857600080fd5b6001905092915050565b80603c6004600083815260200190815260200160002060040154420311156115a957600080fd5b81600f6004600083815260200190815260200160002060070154420310156115d057600080fd5b6706f05b59d3b200006004600085815260200190815260200160002060050154016004600085815260200190815260200160002060050181905550336004600085815260200190815260200160002060060160006101000a81548173ffffffffffffffffffffffffffffffffffffffff021916908373ffffffffffffffffffffffffffffffffffffffff160217905550426004600085815260200190815260200160002060070181905550600160046000858152602001908152602001600020600a01540160046000858152602001908152602001600020600a01819055507f87bc609190cf4ff0714b1789eaa756abd9c54e07344430d0f53878da3da4cfb8836004600086815260200190815260200160002060010160046000878152602001908152602001600020600201546004600088815260200190815260200160002060030160009054906101000a900473ffffffffffffffffffffffffffffffffffffffff166004600089815260200190815260200160002060030160149054906101000a900460ff1642600460008b815260200190815260200160002060050154600460008c815260200190815260200160002060060160009054906101000a900473ffffffffffffffffffffffffffffffffffffffff16600460008d8152602001908152602001600020600a0154600460008e81526020019081526020016000206008016001016040516117ee9a99989796959493929190612133565b60405180910390a1505050565b60015481565b604051806101800160405280600081526020016060815260200160008152602001600073ffffffffffffffffffffffffffffffffffffffff1681526020016000151581526020016000815260200160008152602001600073ffffffffffffffffffffffffffffffffffffffff16815260200160008152602001611882611996565b815260200160008152602001606081525090565b828054600181600116156101000203166002900490600052602060002090601f016020900481019282601f106118d757805160ff1916838001178555611905565b82800160010185558215611905579182015b828111156119045782518255916020019190600101906118e9565b5b50905061191291906119b0565b5090565b828054600181600116156101000203166002900490600052602060002090601f016020900481019282601f1061195757805160ff1916838001178555611985565b82800160010185558215611985579182015b82811115611984578251825591602001919060010190611969565b5b50905061199291906119b0565b5090565b604051806040016040528060608152602001606081525090565b6119d291905b808211156119ce5760008160009055506001016119b6565b5090565b90565b6000813590506119e481612366565b92915050565b600082601f8301126119fb57600080fd5b8135611a0e611a098261220a565b6121dd565b91508082526020830160208301858383011115611a2a57600080fd5b611a35838284612313565b50505092915050565b600081359050611a4d8161237d565b92915050565b60008060408385031215611a6657600080fd5b6000611a74858286016119d5565b9250506020611a85858286016119d5565b9150509250929050565b600060208284031215611aa157600080fd5b600082013567ffffffffffffffff811115611abb57600080fd5b611ac7848285016119ea565b91505092915050565b60008060008060808587031215611ae657600080fd5b600085013567ffffffffffffffff811115611b0057600080fd5b611b0c878288016119ea565b945050602085013567ffffffffffffffff811115611b2957600080fd5b611b35878288016119ea565b935050604085013567ffffffffffffffff811115611b5257600080fd5b611b5e878288016119ea565b925050606085013567ffffffffffffffff811115611b7b57600080fd5b611b87878288016119ea565b91505092959194509250565b600080600080600060a08688031215611bab57600080fd5b600086013567ffffffffffffffff811115611bc557600080fd5b611bd1888289016119ea565b9550506020611be288828901611a3e565b945050604086013567ffffffffffffffff811115611bff57600080fd5b611c0b888289016119ea565b935050606086013567ffffffffffffffff811115611c2857600080fd5b611c34888289016119ea565b925050608086013567ffffffffffffffff811115611c5157600080fd5b611c5d888289016119ea565b9150509295509295909350565b600060208284031215611c7c57600080fd5b6000611c8a84828501611a3e565b91505092915050565b611c9c816122cb565b82525050565b611cab81612283565b82525050565b611cba81612295565b82525050565b611cc9816122dd565b82525050565b6000611cda82612256565b611ce48185612272565b9350611cf4818560208601612322565b611cfd81612355565b840191505092915050565b6000611d138261224b565b611d1d8185612261565b9350611d2d818560208601612322565b611d3681612355565b840191505092915050565b6000611d4c8261224b565b611d568185612272565b9350611d66818560208601612322565b611d6f81612355565b840191505092915050565b600081546001811660008114611d975760018114611dbd57611e01565b607f6002830416611da88187612272565b955060ff198316865260208601935050611e01565b60028204611dcb8187612272565b9550611dd685612236565b60005b82811015611df857815481890152600182019150602081019050611dd9565b80880195505050505b505092915050565b60006040830160008301518482036000860152611e268282611d08565b91505060208301518482036020860152611e408282611d08565b9150508091505092915050565b611e56816122c1565b82525050565b6000602082019050611e716000830184611cb1565b92915050565b60006020820190508181036000830152611e918184611d41565b905092915050565b60006020820190508181036000830152611eb38184611ccf565b905092915050565b6000602082019050611ed06000830184611e4d565b92915050565b600061010082019050611eec600083018b611e4d565b8181036020830152611efe818a611ccf565b9050611f0d6040830189611e4d565b611f1a6060830188611c93565b611f276080830187611cb1565b81810360a0830152611f398186611ccf565b9050611f4860c0830185611cc0565b81810360e0830152611f5a8184611ccf565b90509998505050505050505050565b600060a082019050611f7e6000830188611e4d565b8181036020830152611f908187611d41565b90508181036040830152611fa48186611d41565b90508181036060830152611fb88185611d41565b90508181036080830152611fcc8184611d41565b90509695505050505050565b600061018082019050611fee600083018f611e4d565b8181036020830152612000818e611d41565b905061200f604083018d611e4d565b61201c606083018c611ca2565b612029608083018b611cb1565b61203660a083018a611e4d565b61204360c0830189611e4d565b61205060e0830188611ca2565b61205e610100830187611e4d565b8181036101208301526120718186611e09565b9050612081610140830185611e4d565b8181036101608301526120948184611d41565b90509d9c50505050505050505050505050565b6000610100820190506120bd600083018b611e4d565b81810360208301526120cf818a611d41565b90506120de6040830189611e4d565b6120eb6060830188611cb1565b6120f86080830187611e4d565b61210560a0830186611ca2565b61211260c0830185611e4d565b81810360e08301526121248184611d7a565b90509998505050505050505050565b600061014082019050612149600083018d611e4d565b818103602083015261215b818c611d7a565b905061216a604083018b611e4d565b612177606083018a611ca2565b6121846080830189611cb1565b61219160a0830188611e4d565b61219e60c0830187611e4d565b6121ab60e0830186611ca2565b6121b9610100830185611e4d565b8181036101208301526121cc8184611d7a565b90509b9a5050505050505050505050565b6000604051905081810181811067ffffffffffffffff8211171561220057600080fd5b8060405250919050565b600067ffffffffffffffff82111561222157600080fd5b601f19601f8301169050602081019050919050565b60008190508160005260206000209050919050565b600081519050919050565b600081519050919050565b600082825260208201905092915050565b600082825260208201905092915050565b600061228e826122a1565b9050919050565b60008115159050919050565b600073ffffffffffffffffffffffffffffffffffffffff82169050919050565b6000819050919050565b60006122d6826122ef565b9050919050565b60006122e8826122c1565b9050919050565b60006122fa82612301565b9050919050565b600061230c826122a1565b9050919050565b82818337600083830152505050565b60005b83811015612340578082015181840152602081019050612325565b8381111561234f576000848401525b50505050565b6000601f19601f8301169050919050565b61236f81612283565b811461237a57600080fd5b50565b612386816122c1565b811461239157600080fd5b5056fea365627a7a723158202b9a8e1df0a6ca3713034bde4462ea490107fdf375f074734b559921e3a2abb96c6578706572696d656e74616cf564736f6c63430005100040",
  "source": "pragma solidity ^0.5.16;\npragma experimental ABIEncoderV2;\ncontract Auction {\n\n    string[] public arrayhashes;\n\n\n    uint public productCount = 0;\n    uint public usercount = 0;\n    string hash;\n\n     function set(string memory _hash) public {\n        hash = _hash;\n        arrayhashes.push(_hash);\n    }\n\n    //read function\n    function get() public view returns (string memory) {\n    return hash;\n  }\n    \n    mapping(uint => Product) public products;\n    mapping(uint => User)public user;\n\n    struct User{\n        uint id;\n        string productname;\n        string name;\n        string email;\n        string addres;\n        \n    }\n   \n    struct Product {\n        uint Id;\n        string name;\n        uint baseprice;\n        address payable owner;\n        bool purchased;\n        uint createdAt;\n        uint currentBid;\n        address payable currentBidder;\n        uint currentbidtime;\n        Information infoArray;\n        uint bidcount;\n        string publickey;\n    }\n\n    struct Information {\n        string discription;\n        string category;\n    }\n    \n    event ProductCreated(\n        uint Id,\n        string name,\n        uint baseprice,\n        address owner,\n        bool purchased,\n        string discription,\n        uint bidcount,\n        string category\n    );\n    \n    event bidplaced(\n        uint Id,\n        string name,\n        uint baseprice,\n        address payable owner,\n        bool purchased,\n        uint createdAt,\n        uint currentBid,\n        address payable currentBidder,\n        uint bidcount,\n        string category\n        );\n        \n    event closeauction (\n        uint Id,\n        string name,\n        uint baseprice,\n        bool purchased,\n        uint currentBid,\n        address payable currentBidder,\n        uint bidcount,\n        string category\n        );\n    \n    modifier Auctionactive (uint _id){\n        require(block.timestamp - products[_id].createdAt <= 1 minutes  );\n        _;\n    }\n\n    function createUser(string memory _name,string memory _email,string memory _address,string memory _productname) public {\n        usercount++;\n        user[usercount] = User(usercount,_productname,_name,_email,_address);\n    }\n\n    \n    \n    function createProduct(string memory _name, uint _baseprice, string memory _discription, string memory _category, string memory _publickey) public payable{\n        //verify the product\n        require(bytes(_name).length > 0);\n        require(_baseprice >0);\n        //increment productCount\n\n        productCount++;\n        products[productCount].Id = productCount;\n        products[productCount].name =_name;\n        products[productCount].baseprice =_baseprice;\n        products[productCount].owner =msg.sender;\n        products[productCount].purchased =false;\n        products[productCount].createdAt =block.timestamp;\n        products[productCount].currentBid =_baseprice;\n        products[productCount].currentBidder =msg.sender;\n        products[productCount].currentbidtime =block.timestamp;\n        products[productCount].infoArray.discription =_discription;\n        products[productCount].infoArray.category =_category;\n        products[productCount].bidcount = 0;\n        products[productCount].publickey = _publickey;\n\n        //create the product\n        //products[productCount] = Product(productCount,_name,_baseprice,msg.sender,false, block.timestamp,_baseprice,msg.sender,block.timestamp, _discription,0, _category);\n       \n        //trigger an event\n        emit ProductCreated(productCount,_name,_baseprice,msg.sender,false,_discription,0, _category);\n    \n    }\n    \n    modifier validAuction(uint _id) {\n        products[_id].Id <= productCount;\n        _;\n    }\n\n    modifier validbid(uint _id){\n        require (block.timestamp - products[_id].currentbidtime >= 15 seconds);\n        _;\n    }\n\n\n    function checkvalidity (address payable _owner, address payable _account ) public returns (bool){\n\n        require(_owner == _account);\n\n\n        return true;\n    }\n    \n    function placeBid (uint _id) Auctionactive(_id) validbid(_id)\n    public payable{\n        products[_id].currentBid = products[_id].currentBid + 0.5*1000000000000000000 ;\n        products[_id].currentBidder = msg.sender;\n        products[_id].currentbidtime = block.timestamp;\n        products[_id].bidcount = products[_id].bidcount + 1;\n    \n        \n        emit bidplaced(_id,products[_id].name,products[_id].baseprice,products[_id].owner,products[_id].purchased,block.timestamp,\n        products[_id].currentBid,products[_id].currentBidder,products[_id].bidcount, products[_id].infoArray.category  );\n        \n    }\n\n    function Auctionstatus(uint _id) public returns(bool){\n        if (block.timestamp - products[_id].createdAt < 1 minutes){\n            return true;\n        }\n        else{\n            return false;\n        }\n    }\n    \n    function closeAuction(uint _id) validAuction(_id) public payable {\n\n         if (Auctionstatus(_id)){\n            return;\n        }\n\n        //fetch the product\n        Product memory _product = products[_id];\n        \n        //fetch the owner\n        address payable _seller = _product.owner;\n        \n        // Require that there is enough Ether in the transaction\n        require(msg.value >= _product.currentBid);\n        \n         // Require that the product has not been purchased already\n        require(!_product.purchased);\n        \n         // Require that the buyer is not the seller\n        require(_seller != msg.sender);\n\n        // Transfer ownership to the buyer\n        //_product.owner = msg.sender;\n        \n        \n        // Mark as purchased\n        _product.purchased = true;\n        \n        \n        // Update the product\n        products[_id] = _product;\n\n        // Pay the seller by sending them Ether\n        address(_seller).transfer(msg.value);\n        \n        \n        emit closeauction(_product.Id,_product.name ,_product.baseprice,true,_product.currentBid, _product.owner,products[_id].bidcount ,products[_id].infoArray.category);\n\n    }\n    \n    \n}",
  "sourcePath": "/Users/preritrawtani/Desktop/blockchain/Auction/src/contracts/Auction.sol",
  "compiler": {
    "name": "solc",
    "version": "0.5.16+commit.9c3226ce.Emscripten.clang"
  },
  "schemaVersion": "3.4.0",
  "updatedAt": "2021-07-08T04:15:36.304Z",
  "networkType": "ethereum",
  "devdoc": {
    "methods": {}
  },
  "userdoc": {
    "methods": {}
  }
}