{
  "contractName": "Auction",
  "abi": [
    {
      "anonymous": false,
      "inputs": [
        {
          "indexed": false,
          "internalType": "uint256",
          "name": "Id",
          "type": "uint256"
        },
        {
          "indexed": false,
          "internalType": "string",
          "name": "name",
          "type": "string"
        },
        {
          "indexed": false,
          "internalType": "uint256",
          "name": "baseprice",
          "type": "uint256"
        },
        {
          "indexed": false,
          "internalType": "address",
          "name": "owner",
          "type": "address"
        },
        {
          "indexed": false,
          "internalType": "bool",
          "name": "purchased",
          "type": "bool"
        },
        {
          "indexed": false,
          "internalType": "string",
          "name": "discription",
          "type": "string"
        },
        {
          "indexed": false,
          "internalType": "uint256",
          "name": "bidcount",
          "type": "uint256"
        },
        {
          "indexed": false,
          "internalType": "string",
          "name": "category",
          "type": "string"
        }
      ],
      "name": "ProductCreated",
      "type": "event"
    },
    {
      "anonymous": false,
      "inputs": [
        {
          "components": [
            {
              "internalType": "uint256",
              "name": "Id",
              "type": "uint256"
            },
            {
              "internalType": "string",
              "name": "name",
              "type": "string"
            },
            {
              "internalType": "uint256",
              "name": "baseprice",
              "type": "uint256"
            },
            {
              "internalType": "address payable",
              "name": "owner",
              "type": "address"
            },
            {
              "internalType": "bool",
              "name": "purchased",
              "type": "bool"
            },
            {
              "internalType": "uint256",
              "name": "createdAt",
              "type": "uint256"
            },
            {
              "internalType": "uint256",
              "name": "currentBid",
              "type": "uint256"
            },
            {
              "internalType": "address payable",
              "name": "currentBidder",
              "type": "address"
            },
            {
              "internalType": "uint256",
              "name": "currentbidtime",
              "type": "uint256"
            },
            {
              "components": [
                {
                  "internalType": "string",
                  "name": "discription",
                  "type": "string"
                },
                {
                  "internalType": "string",
                  "name": "category",
                  "type": "string"
                },
                {
                  "internalType": "uint256",
                  "name": "bidinc",
                  "type": "uint256"
                },
                {
                  "internalType": "uint256",
                  "name": "endtime",
                  "type": "uint256"
                }
              ],
              "internalType": "struct Auction.Information",
              "name": "infoArray",
              "type": "tuple"
            },
            {
              "internalType": "uint256",
              "name": "bidcount",
              "type": "uint256"
            },
            {
              "internalType": "string",
              "name": "publickey",
              "type": "string"
            }
          ],
          "indexed": false,
          "internalType": "struct Auction.Product",
          "name": "",
          "type": "tuple"
        }
      ],
      "name": "ProductEvent",
      "type": "event"
    },
    {
      "anonymous": false,
      "inputs": [
        {
          "indexed": false,
          "internalType": "uint256",
          "name": "Id",
          "type": "uint256"
        },
        {
          "indexed": false,
          "internalType": "string",
          "name": "name",
          "type": "string"
        },
        {
          "indexed": false,
          "internalType": "uint256",
          "name": "baseprice",
          "type": "uint256"
        },
        {
          "indexed": false,
          "internalType": "address payable",
          "name": "owner",
          "type": "address"
        },
        {
          "indexed": false,
          "internalType": "bool",
          "name": "purchased",
          "type": "bool"
        },
        {
          "indexed": false,
          "internalType": "uint256",
          "name": "createdAt",
          "type": "uint256"
        },
        {
          "indexed": false,
          "internalType": "uint256",
          "name": "currentBid",
          "type": "uint256"
        },
        {
          "indexed": false,
          "internalType": "address payable",
          "name": "currentBidder",
          "type": "address"
        },
        {
          "indexed": false,
          "internalType": "uint256",
          "name": "bidcount",
          "type": "uint256"
        },
        {
          "indexed": false,
          "internalType": "string",
          "name": "category",
          "type": "string"
        }
      ],
      "name": "bidplaced",
      "type": "event"
    },
    {
      "anonymous": false,
      "inputs": [
        {
          "indexed": false,
          "internalType": "uint256",
          "name": "Id",
          "type": "uint256"
        },
        {
          "indexed": false,
          "internalType": "string",
          "name": "name",
          "type": "string"
        },
        {
          "indexed": false,
          "internalType": "uint256",
          "name": "baseprice",
          "type": "uint256"
        },
        {
          "indexed": false,
          "internalType": "bool",
          "name": "purchased",
          "type": "bool"
        },
        {
          "indexed": false,
          "internalType": "uint256",
          "name": "currentBid",
          "type": "uint256"
        },
        {
          "indexed": false,
          "internalType": "address payable",
          "name": "currentBidder",
          "type": "address"
        },
        {
          "indexed": false,
          "internalType": "uint256",
          "name": "bidcount",
          "type": "uint256"
        },
        {
          "indexed": false,
          "internalType": "string",
          "name": "category",
          "type": "string"
        }
      ],
      "name": "closeauction",
      "type": "event"
    },
    {
      "inputs": [
        {
          "internalType": "uint256",
          "name": "",
          "type": "uint256"
        }
      ],
      "name": "arrayhashes",
      "outputs": [
        {
          "internalType": "string",
          "name": "",
          "type": "string"
        }
      ],
      "stateMutability": "view",
      "type": "function",
      "constant": true
    },
    {
      "inputs": [],
      "name": "productCount",
      "outputs": [
        {
          "internalType": "uint256",
          "name": "",
          "type": "uint256"
        }
      ],
      "stateMutability": "view",
      "type": "function",
      "constant": true
    },
    {
      "inputs": [
        {
          "internalType": "uint256",
          "name": "",
          "type": "uint256"
        }
      ],
      "name": "products",
      "outputs": [
        {
          "internalType": "uint256",
          "name": "Id",
          "type": "uint256"
        },
        {
          "internalType": "string",
          "name": "name",
          "type": "string"
        },
        {
          "internalType": "uint256",
          "name": "baseprice",
          "type": "uint256"
        },
        {
          "internalType": "address payable",
          "name": "owner",
          "type": "address"
        },
        {
          "internalType": "bool",
          "name": "purchased",
          "type": "bool"
        },
        {
          "internalType": "uint256",
          "name": "createdAt",
          "type": "uint256"
        },
        {
          "internalType": "uint256",
          "name": "currentBid",
          "type": "uint256"
        },
        {
          "internalType": "address payable",
          "name": "currentBidder",
          "type": "address"
        },
        {
          "internalType": "uint256",
          "name": "currentbidtime",
          "type": "uint256"
        },
        {
          "components": [
            {
              "internalType": "string",
              "name": "discription",
              "type": "string"
            },
            {
              "internalType": "string",
              "name": "category",
              "type": "string"
            },
            {
              "internalType": "uint256",
              "name": "bidinc",
              "type": "uint256"
            },
            {
              "internalType": "uint256",
              "name": "endtime",
              "type": "uint256"
            }
          ],
          "internalType": "struct Auction.Information",
          "name": "infoArray",
          "type": "tuple"
        },
        {
          "internalType": "uint256",
          "name": "bidcount",
          "type": "uint256"
        },
        {
          "internalType": "string",
          "name": "publickey",
          "type": "string"
        }
      ],
      "stateMutability": "view",
      "type": "function",
      "constant": true
    },
    {
      "inputs": [
        {
          "internalType": "uint256",
          "name": "",
          "type": "uint256"
        }
      ],
      "name": "user",
      "outputs": [
        {
          "internalType": "uint256",
          "name": "id",
          "type": "uint256"
        },
        {
          "internalType": "string",
          "name": "productname",
          "type": "string"
        },
        {
          "internalType": "string",
          "name": "name",
          "type": "string"
        },
        {
          "internalType": "string",
          "name": "email",
          "type": "string"
        },
        {
          "internalType": "string",
          "name": "addres",
          "type": "string"
        },
        {
          "internalType": "string",
          "name": "location",
          "type": "string"
        }
      ],
      "stateMutability": "view",
      "type": "function",
      "constant": true
    },
    {
      "inputs": [],
      "name": "usercount",
      "outputs": [
        {
          "internalType": "uint256",
          "name": "",
          "type": "uint256"
        }
      ],
      "stateMutability": "view",
      "type": "function",
      "constant": true
    },
    {
      "inputs": [
        {
          "internalType": "string",
          "name": "_hash",
          "type": "string"
        }
      ],
      "name": "set",
      "outputs": [],
      "stateMutability": "nonpayable",
      "type": "function"
    },
    {
      "inputs": [],
      "name": "get",
      "outputs": [
        {
          "internalType": "string",
          "name": "",
          "type": "string"
        }
      ],
      "stateMutability": "view",
      "type": "function",
      "constant": true
    },
    {
      "inputs": [
        {
          "internalType": "string",
          "name": "_name",
          "type": "string"
        },
        {
          "internalType": "string",
          "name": "_email",
          "type": "string"
        },
        {
          "internalType": "string",
          "name": "_address",
          "type": "string"
        },
        {
          "internalType": "string",
          "name": "_location",
          "type": "string"
        },
        {
          "internalType": "string",
          "name": "_productname",
          "type": "string"
        }
      ],
      "name": "createUser",
      "outputs": [],
      "stateMutability": "nonpayable",
      "type": "function"
    },
    {
      "inputs": [
        {
          "internalType": "string",
          "name": "_name",
          "type": "string"
        },
        {
          "internalType": "uint256",
          "name": "_baseprice",
          "type": "uint256"
        },
        {
          "internalType": "string",
          "name": "_discription",
          "type": "string"
        },
        {
          "internalType": "string",
          "name": "_category",
          "type": "string"
        },
        {
          "internalType": "string",
          "name": "_publickey",
          "type": "string"
        },
        {
          "internalType": "uint256",
          "name": "_bidinc",
          "type": "uint256"
        },
        {
          "internalType": "uint256",
          "name": "_etime",
          "type": "uint256"
        }
      ],
      "name": "createProduct",
      "outputs": [],
      "stateMutability": "payable",
      "type": "function",
      "payable": true
    },
    {
      "inputs": [
        {
          "internalType": "address payable",
          "name": "_owner",
          "type": "address"
        },
        {
          "internalType": "address payable",
          "name": "_account",
          "type": "address"
        }
      ],
      "name": "checkvalidity",
      "outputs": [
        {
          "internalType": "bool",
          "name": "",
          "type": "bool"
        }
      ],
      "stateMutability": "nonpayable",
      "type": "function"
    },
    {
      "inputs": [
        {
          "internalType": "uint256",
          "name": "_id",
          "type": "uint256"
        }
      ],
      "name": "placeBid",
      "outputs": [],
      "stateMutability": "payable",
      "type": "function",
      "payable": true
    },
    {
      "inputs": [
        {
          "internalType": "uint256",
          "name": "_id",
          "type": "uint256"
        }
      ],
      "name": "closeAuction",
      "outputs": [],
      "stateMutability": "payable",
      "type": "function",
      "payable": true
    },
    {
      "inputs": [
        {
          "internalType": "uint256",
          "name": "_id",
          "type": "uint256"
        }
      ],
      "name": "closeAuctionOwner",
      "outputs": [],
      "stateMutability": "payable",
      "type": "function",
      "payable": true
    },
    {
      "inputs": [],
      "name": "getnow",
      "outputs": [
        {
          "internalType": "uint256",
          "name": "",
          "type": "uint256"
        }
      ],
      "stateMutability": "view",
      "type": "function",
      "constant": true
    }
  ],
  "bytecode": "0x60806040526000600155600060025534801561001a57600080fd5b5061283e8061002a6000396000f3fe6080604052600436106100dd5760003560e01c80636d4ce63c1161007f57806385aeb5b21161005957806385aeb5b2146102a5578063881cf122146102e25780639979ef451461030d578063e0f6ef8714610329576100dd565b80636d4ce63c14610216578063725cb391146102415780637acc0b201461025d576100dd565b80634daf44cd116100bb5780634daf44cd146101455780634ed3885e14610182578063553275be146101ab57806365c06f70146101ed576100dd565b80630f322c1e146100e2578063236ed8f31461010d57806340b2492814610129575b600080fd5b3480156100ee57600080fd5b506100f7610354565b60405161010491906120a3565b60405180910390f35b6101276004803603810190610122919061195f565b61035a565b005b610143600480360381019061013e9190611861565b61053f565b005b34801561015157600080fd5b5061016c6004803603810190610167919061195f565b61086b565b6040516101799190611f7d565b60405180910390f35b34801561018e57600080fd5b506101a960048036038101906101a49190611731565b610917565b005b3480156101b757600080fd5b506101d260048036038101906101cd919061195f565b61096d565b6040516101e4969594939291906120be565b60405180910390f35b3480156101f957600080fd5b50610214600480360381019061020f9190611772565b610c51565b005b34801561022257600080fd5b5061022b610d52565b6040516102389190611f7d565b60405180910390f35b61025b6004803603810190610256919061195f565b610de4565b005b34801561026957600080fd5b50610284600480360381019061027f919061195f565b610f73565b60405161029c9c9b9a99989796959493929190612142565b60405180910390f35b3480156102b157600080fd5b506102cc60048036038101906102c791906116f5565b611272565b6040516102d99190611f62565b60405180910390f35b3480156102ee57600080fd5b506102f76112b6565b60405161030491906120a3565b60405180910390f35b6103276004803603810190610322919061195f565b6112cb565b005b34801561033557600080fd5b5061033e6115ba565b60405161034b91906120a3565b60405180910390f35b60025481565b60006004600083815260200190815260200160002090506103e84261037f91906122ff565b8160080160030154106103c7576040517f08c379a00000000000000000000000000000000000000000000000000000000081526004016103be9061203f565b60405180910390fd5b8060060160009054906101000a900473ffffffffffffffffffffffffffffffffffffffff1673ffffffffffffffffffffffffffffffffffffffff163373ffffffffffffffffffffffffffffffffffffffff1614610459576040517f08c379a000000000000000000000000000000000000000000000000000000000815260040161045090611f9f565b60405180910390fd5b806008016002015481600501546104709190612359565b81600501819055508060030160009054906101000a900473ffffffffffffffffffffffffffffffffffffffff1673ffffffffffffffffffffffffffffffffffffffff166108fc82600501549081150290604051600060405180830381858888f193505050501580156104e6573d6000803e3d6000fd5b5060018160030160146101000a81548160ff0219169083151502179055507f26260b89742fae7e37cece7568d3ec9cb6842308d1f2343869dea83642130bcc816040516105339190612081565b60405180910390a15050565b600087511161054d57600080fd5b6000861161055a57600080fd5b6001600081548092919061056d906124ff565b9190505550600154600460006001548152602001908152602001600020600001819055508660046000600154815260200190815260200160002060010190805190602001906105bd9291906115c0565b5085600460006001548152602001908152602001600020600201819055503360046000600154815260200190815260200160002060030160006101000a81548173ffffffffffffffffffffffffffffffffffffffff021916908373ffffffffffffffffffffffffffffffffffffffff160217905550600060046000600154815260200190815260200160002060030160146101000a81548160ff0219169083151502179055506103e84261067191906122ff565b600460006001548152602001908152602001600020600401819055508560046000600154815260200190815260200160002060050181905550600060046000600154815260200190815260200160002060060160006101000a81548173ffffffffffffffffffffffffffffffffffffffff021916908373ffffffffffffffffffffffffffffffffffffffff1602179055506103e84261071091906122ff565b6004600060015481526020019081526020016000206007018190555084600460006001548152602001908152602001600020600801600001908051906020019061075b9291906115c0565b5083600460006001548152602001908152602001600020600801600101908051906020019061078b9291906115c0565b506000600460006001548152602001908152602001600020600c018190555082600460006001548152602001908152602001600020600d0190805190602001906107d69291906115c0565b50816004600060015481526020019081526020016000206008016002018190555080600460006001548152602001908152602001600020600801600301819055507f26260b89742fae7e37cece7568d3ec9cb6842308d1f2343869dea83642130bcc60046000600154815260200190815260200160002060405161085a919061205f565b60405180910390a150505050505050565b6000818154811061087b57600080fd5b9060005260206000200160009150905080546108969061244e565b80601f01602080910402602001604051908101604052809291908181526020018280546108c29061244e565b801561090f5780601f106108e45761010080835404028352916020019161090f565b820191906000526020600020905b8154815290600101906020018083116108f257829003601f168201915b505050505081565b806003908051906020019061092d9291906115c0565b506000819080600181540180825580915050600190039060005260206000200160009091909190915090805190602001906109699291906115c0565b5050565b60056020528060005260406000206000915090508060000154908060010180546109969061244e565b80601f01602080910402602001604051908101604052809291908181526020018280546109c29061244e565b8015610a0f5780601f106109e457610100808354040283529160200191610a0f565b820191906000526020600020905b8154815290600101906020018083116109f257829003601f168201915b505050505090806002018054610a249061244e565b80601f0160208091040260200160405190810160405280929190818152602001828054610a509061244e565b8015610a9d5780601f10610a7257610100808354040283529160200191610a9d565b820191906000526020600020905b815481529060010190602001808311610a8057829003601f168201915b505050505090806003018054610ab29061244e565b80601f0160208091040260200160405190810160405280929190818152602001828054610ade9061244e565b8015610b2b5780601f10610b0057610100808354040283529160200191610b2b565b820191906000526020600020905b815481529060010190602001808311610b0e57829003601f168201915b505050505090806004018054610b409061244e565b80601f0160208091040260200160405190810160405280929190818152602001828054610b6c9061244e565b8015610bb95780601f10610b8e57610100808354040283529160200191610bb9565b820191906000526020600020905b815481529060010190602001808311610b9c57829003601f168201915b505050505090806005018054610bce9061244e565b80601f0160208091040260200160405190810160405280929190818152602001828054610bfa9061244e565b8015610c475780601f10610c1c57610100808354040283529160200191610c47565b820191906000526020600020905b815481529060010190602001808311610c2a57829003601f168201915b5050505050905086565b60026000815480929190610c64906124ff565b91905055506040518060c00160405280600254815260200182815260200186815260200185815260200184815260200183815250600560006002548152602001908152602001600020600082015181600001556020820151816001019080519060200190610cd39291906115c0565b506040820151816002019080519060200190610cf09291906115c0565b506060820151816003019080519060200190610d0d9291906115c0565b506080820151816004019080519060200190610d2a9291906115c0565b5060a0820151816005019080519060200190610d479291906115c0565b509050505050505050565b606060038054610d619061244e565b80601f0160208091040260200160405190810160405280929190818152602001828054610d8d9061244e565b8015610dda5780601f10610daf57610100808354040283529160200191610dda565b820191906000526020600020905b815481529060010190602001808311610dbd57829003601f168201915b5050505050905090565b60006004600083815260200190815260200160002090508060030160009054906101000a900473ffffffffffffffffffffffffffffffffffffffff1673ffffffffffffffffffffffffffffffffffffffff163373ffffffffffffffffffffffffffffffffffffffff1614610e8d576040517f08c379a0000000000000000000000000000000000000000000000000000000008152600401610e8490611fbf565b60405180910390fd5b80600801600201548160050154610ea49190612359565b81600501819055508060030160009054906101000a900473ffffffffffffffffffffffffffffffffffffffff1673ffffffffffffffffffffffffffffffffffffffff166108fc82600501549081150290604051600060405180830381858888f19350505050158015610f1a573d6000803e3d6000fd5b5060018160030160146101000a81548160ff0219169083151502179055507f26260b89742fae7e37cece7568d3ec9cb6842308d1f2343869dea83642130bcc81604051610f679190612081565b60405180910390a15050565b6004602052806000526040600020600091509050806000015490806001018054610f9c9061244e565b80601f0160208091040260200160405190810160405280929190818152602001828054610fc89061244e565b80156110155780601f10610fea57610100808354040283529160200191611015565b820191906000526020600020905b815481529060010190602001808311610ff857829003601f168201915b5050505050908060020154908060030160009054906101000a900473ffffffffffffffffffffffffffffffffffffffff16908060030160149054906101000a900460ff16908060040154908060050154908060060160009054906101000a900473ffffffffffffffffffffffffffffffffffffffff1690806007015490806008016040518060800160405290816000820180546110b19061244e565b80601f01602080910402602001604051908101604052809291908181526020018280546110dd9061244e565b801561112a5780601f106110ff5761010080835404028352916020019161112a565b820191906000526020600020905b81548152906001019060200180831161110d57829003601f168201915b505050505081526020016001820180546111439061244e565b80601f016020809104026020016040519081016040528092919081815260200182805461116f9061244e565b80156111bc5780601f10611191576101008083540402835291602001916111bc565b820191906000526020600020905b81548152906001019060200180831161119f57829003601f168201915b50505050508152602001600282015481526020016003820154815250509080600c01549080600d0180546111ef9061244e565b80601f016020809104026020016040519081016040528092919081815260200182805461121b9061244e565b80156112685780601f1061123d57610100808354040283529160200191611268565b820191906000526020600020905b81548152906001019060200180831161124b57829003601f168201915b505050505090508c565b60008173ffffffffffffffffffffffffffffffffffffffff168373ffffffffffffffffffffffffffffffffffffffff16146112ac57600080fd5b6001905092915050565b60006103e8426112c691906122ff565b905090565b6000600460008381526020019081526020016000209050600f81600701546103e8426112f791906122ff565b6113019190612359565b101561130c57600080fd5b80600801600301546103e84261132291906122ff565b1061132c57600080fd5b8060020154341015611373576040517f08c379a000000000000000000000000000000000000000000000000000000000815260040161136a90611fff565b60405180910390fd5b8060060160009054906101000a900473ffffffffffffffffffffffffffffffffffffffff1673ffffffffffffffffffffffffffffffffffffffff163373ffffffffffffffffffffffffffffffffffffffff161415611406576040517f08c379a00000000000000000000000000000000000000000000000000000000081526004016113fd9061201f565b60405180910390fd5b806005015434101561144d576040517f08c379a000000000000000000000000000000000000000000000000000000000815260040161144490611fdf565b60405180910390fd5b6000816005015411156114dc578060060160009054906101000a900473ffffffffffffffffffffffffffffffffffffffff1673ffffffffffffffffffffffffffffffffffffffff166108fc826008016002015483600501546114af9190612359565b9081150290604051600060405180830381858888f193505050501580156114da573d6000803e3d6000fd5b505b806008016002015481600501546114f391906122a9565b8160050181905550338160060160006101000a81548173ffffffffffffffffffffffffffffffffffffffff021916908373ffffffffffffffffffffffffffffffffffffffff1602179055506103e84261154c91906122ff565b8160070181905550600160046000848152602001908152602001600020600c015461157791906122a9565b81600c01819055507f26260b89742fae7e37cece7568d3ec9cb6842308d1f2343869dea83642130bcc816040516115ae9190612081565b60405180910390a15050565b60015481565b8280546115cc9061244e565b90600052602060002090601f0160209004810192826115ee5760008555611635565b82601f1061160757805160ff1916838001178555611635565b82800160010185558215611635579182015b82811115611634578251825591602001919060010190611619565b5b5090506116429190611646565b5090565b5b8082111561165f576000816000905550600101611647565b5090565b600061167661167184612236565b612211565b90508281526020810184848401111561168e57600080fd5b61169984828561240c565b509392505050565b6000813590506116b0816127da565b92915050565b600082601f8301126116c757600080fd5b81356116d7848260208601611663565b91505092915050565b6000813590506116ef816127f1565b92915050565b6000806040838503121561170857600080fd5b6000611716858286016116a1565b9250506020611727858286016116a1565b9150509250929050565b60006020828403121561174357600080fd5b600082013567ffffffffffffffff81111561175d57600080fd5b611769848285016116b6565b91505092915050565b600080600080600060a0868803121561178a57600080fd5b600086013567ffffffffffffffff8111156117a457600080fd5b6117b0888289016116b6565b955050602086013567ffffffffffffffff8111156117cd57600080fd5b6117d9888289016116b6565b945050604086013567ffffffffffffffff8111156117f657600080fd5b611802888289016116b6565b935050606086013567ffffffffffffffff81111561181f57600080fd5b61182b888289016116b6565b925050608086013567ffffffffffffffff81111561184857600080fd5b611854888289016116b6565b9150509295509295909350565b600080600080600080600060e0888a03121561187c57600080fd5b600088013567ffffffffffffffff81111561189657600080fd5b6118a28a828b016116b6565b97505060206118b38a828b016116e0565b965050604088013567ffffffffffffffff8111156118d057600080fd5b6118dc8a828b016116b6565b955050606088013567ffffffffffffffff8111156118f957600080fd5b6119058a828b016116b6565b945050608088013567ffffffffffffffff81111561192257600080fd5b61192e8a828b016116b6565b93505060a061193f8a828b016116e0565b92505060c06119508a828b016116e0565b91505092959891949750929550565b60006020828403121561197157600080fd5b600061197f848285016116e0565b91505092915050565b611991816123c4565b82525050565b6119a0816123c4565b82525050565b6119af816123d6565b82525050565b6119be816123d6565b82525050565b60006119cf8261227c565b6119d98185612287565b93506119e981856020860161241b565b6119f2816125d5565b840191505092915050565b6000611a088261227c565b611a128185612298565b9350611a2281856020860161241b565b611a2b816125d5565b840191505092915050565b60008154611a438161244e565b611a4d8186612287565b94506001821660008114611a685760018114611a7a57611aad565b60ff1983168652602086019350611aad565b611a8385612267565b60005b83811015611aa557815481890152600182019150602081019050611a86565b808801955050505b50505092915050565b6000611ac3602a83612298565b9150611ace82612600565b604082019050919050565b6000611ae6602a83612298565b9150611af18261264f565b604082019050919050565b6000611b09602783612298565b9150611b148261269e565b604082019050919050565b6000611b2c603283612298565b9150611b37826126ed565b604082019050919050565b6000611b4f602183612298565b9150611b5a8261273c565b604082019050919050565b6000611b72602383612298565b9150611b7d8261278b565b604082019050919050565b60006080830160008301518482036000860152611ba582826119c4565b91505060208301518482036020860152611bbf82826119c4565b9150506040830151611bd46040860182611f44565b506060830151611be76060860182611f44565b508091505092915050565b60006080830160008084018583036000870152611c0f8382611a36565b925050600184018583036020870152611c288382611a36565b92505060028401549050611c3b8161249a565b611c486040870182611f44565b5060038401549050611c598161249a565b611c666060870182611f44565b50819250505092915050565b600061018083016000808401549050611c8a8161249a565b611c976000870182611f44565b50600184018583036020870152611cae8382611a36565b92505060028401549050611cc18161249a565b611cce6040870182611f44565b5060038401549050611cdf81612480565b611cec6060870182611988565b50611cf6816124b4565b611d0360808701826119a6565b5060048401549050611d148161249a565b611d2160a0870182611f44565b5060058401549050611d328161249a565b611d3f60c0870182611f44565b5060068401549050611d5081612480565b611d5d60e0870182611988565b5060078401549050611d6e8161249a565b611d7c610100870182611f44565b5060088401858303610120870152611d948382611bf2565b925050600c8401549050611da78161249a565b611db5610140870182611f44565b50600d8401858303610160870152611dcd8382611a36565b925050819250505092915050565b600061018083016000808401549050611df38161249a565b611e006000870182611f44565b50600184018583036020870152611e178382611a36565b92505060028401549050611e2a8161249a565b611e376040870182611f44565b5060038401549050611e4881612480565b611e556060870182611988565b50611e5f816124b4565b611e6c60808701826119a6565b5060048401549050611e7d8161249a565b611e8a60a0870182611f44565b5060058401549050611e9b8161249a565b611ea860c0870182611f44565b5060068401549050611eb981612480565b611ec660e0870182611988565b5060078401549050611ed78161249a565b611ee5610100870182611f44565b5060088401858303610120870152611efd8382611bf2565b925050600c8401549050611f108161249a565b611f1e610140870182611f44565b50600d8401858303610160870152611f368382611a36565b925050819250505092915050565b611f4d81612402565b82525050565b611f5c81612402565b82525050565b6000602082019050611f7760008301846119b5565b92915050565b60006020820190508181036000830152611f9781846119fd565b905092915050565b60006020820190508181036000830152611fb881611ab6565b9050919050565b60006020820190508181036000830152611fd881611ad9565b9050919050565b60006020820190508181036000830152611ff881611afc565b9050919050565b6000602082019050818103600083015261201881611b1f565b9050919050565b6000602082019050818103600083015261203881611b42565b9050919050565b6000602082019050818103600083015261205881611b65565b9050919050565b600060208201905081810360008301526120798184611ddb565b905092915050565b6000602082019050818103600083015261209b8184611c72565b905092915050565b60006020820190506120b86000830184611f53565b92915050565b600060c0820190506120d36000830189611f53565b81810360208301526120e581886119fd565b905081810360408301526120f981876119fd565b9050818103606083015261210d81866119fd565b9050818103608083015261212181856119fd565b905081810360a083015261213581846119fd565b9050979650505050505050565b600061018082019050612158600083018f611f53565b818103602083015261216a818e6119fd565b9050612179604083018d611f53565b612186606083018c611997565b612193608083018b6119b5565b6121a060a083018a611f53565b6121ad60c0830189611f53565b6121ba60e0830188611997565b6121c8610100830187611f53565b8181036101208301526121db8186611b88565b90506121eb610140830185611f53565b8181036101608301526121fe81846119fd565b90509d9c50505050505050505050505050565b600061221b61222c565b905061222782826124ce565b919050565b6000604051905090565b600067ffffffffffffffff821115612251576122506125a6565b5b61225a826125d5565b9050602081019050919050565b60008190508160005260206000209050919050565b600081519050919050565b600082825260208201905092915050565b600082825260208201905092915050565b60006122b482612402565b91506122bf83612402565b9250827fffffffffffffffffffffffffffffffffffffffffffffffffffffffffffffffff038211156122f4576122f3612548565b5b828201905092915050565b600061230a82612402565b915061231583612402565b9250817fffffffffffffffffffffffffffffffffffffffffffffffffffffffffffffffff048311821515161561234e5761234d612548565b5b828202905092915050565b600061236482612402565b915061236f83612402565b92508282101561238257612381612548565b5b828203905092915050565b600073ffffffffffffffffffffffffffffffffffffffff82169050919050565b600060ff82169050919050565b6000819050919050565b60006123cf826123e2565b9050919050565b60008115159050919050565b600073ffffffffffffffffffffffffffffffffffffffff82169050919050565b6000819050919050565b82818337600083830152505050565b60005b8381101561243957808201518184015260208101905061241e565b83811115612448576000848401525b50505050565b6000600282049050600182168061246657607f821691505b6020821081141561247a57612479612577565b5b50919050565b600061249361248e836125e6565b61238d565b9050919050565b60006124ad6124a8836125e6565b6123ba565b9050919050565b60006124c76124c2836125f3565b6123ad565b9050919050565b6124d7826125d5565b810181811067ffffffffffffffff821117156124f6576124f56125a6565b5b80604052505050565b600061250a82612402565b91507fffffffffffffffffffffffffffffffffffffffffffffffffffffffffffffffff82141561253d5761253c612548565b5b600182019050919050565b7f4e487b7100000000000000000000000000000000000000000000000000000000600052601160045260246000fd5b7f4e487b7100000000000000000000000000000000000000000000000000000000600052602260045260246000fd5b7f4e487b7100000000000000000000000000000000000000000000000000000000600052604160045260246000fd5b6000601f19601f8301169050919050565b60008160001c9050919050565b60008160a01c9050919050565b7f796f7520617265206e6f7420656c696769626c6520746f20636c61696d20746860008201527f69732070726f6475637400000000000000000000000000000000000000000000602082015250565b7f796f7520617265206e6f7420656c696769626c6520746f20636c6f736520746860008201527f69732061756374696f6e00000000000000000000000000000000000000000000602082015250565b7f6269672076616c7565206e6f742067726561746572207468616e20707265766960008201527f6f75732062696400000000000000000000000000000000000000000000000000602082015250565b7f6269642076616c75652073686f756c646e2774206265206c657373207468616e60008201527f2074686520726573657276652076616c75650000000000000000000000000000602082015250565b7f6269646465722063616e2774206f757420736f207468656972206f776e20626960008201527f6400000000000000000000000000000000000000000000000000000000000000602082015250565b7f62696464696e6720666f722070726f64756374206973206e6f74206f7665722060008201527f7965740000000000000000000000000000000000000000000000000000000000602082015250565b6127e3816123c4565b81146127ee57600080fd5b50565b6127fa81612402565b811461280557600080fd5b5056fea264697066735822122076d94a8bcc444f623d7d22b4ac6d73e34d558a5e0d5db8f025de4c9e59da7d1a64736f6c63430008040033",
  "immutableReferences": {},
  "source": "pragma solidity ^0.8.4;\r\npragma experimental ABIEncoderV2;\r\ncontract Auction {\r\n\r\n    string[] public arrayhashes;\r\n\r\n\r\n    uint public productCount = 0;\r\n    uint public usercount = 0;\r\n    string hash;\r\n\r\n     function set(string memory _hash) public {\r\n        hash = _hash;\r\n        arrayhashes.push(_hash);\r\n    }\r\n\r\n    //read function\r\n    function get() public view returns (string memory) {\r\n    return hash;\r\n  }\r\n    \r\n    mapping(uint => Product) public products;\r\n    mapping(uint => User)public user;\r\n\r\n    struct User{\r\n        uint id;\r\n        string productname;\r\n        string name;\r\n        string email;\r\n        string addres;\r\n        string location;\r\n        \r\n    }\r\n   \r\n    struct Product {\r\n        uint Id;\r\n        string name;\r\n        uint baseprice;\r\n        address payable owner;\r\n        bool purchased;\r\n        uint createdAt;\r\n        uint currentBid;\r\n        address payable currentBidder;\r\n        uint currentbidtime;\r\n        Information infoArray;\r\n        uint bidcount;\r\n        string publickey;\r\n    }\r\n\r\n    struct Information {\r\n        string discription;\r\n        string category;\r\n        uint bidinc;\r\n        uint endtime;\r\n    }\r\n    \r\n    event ProductCreated(\r\n        uint Id,\r\n        string name,\r\n        uint baseprice,\r\n        address owner,\r\n        bool purchased,\r\n        string discription,\r\n        uint bidcount,\r\n        string category\r\n    );\r\n    \r\n    event bidplaced(\r\n        uint Id,\r\n        string name,\r\n        uint baseprice,\r\n        address payable owner,\r\n        bool purchased,\r\n        uint createdAt,\r\n        uint currentBid,\r\n        address payable currentBidder,\r\n        uint bidcount,\r\n        string category\r\n        );\r\n        \r\n    event closeauction (\r\n        uint Id,\r\n        string name,\r\n        uint baseprice,\r\n        bool purchased,\r\n        uint currentBid,\r\n        address payable currentBidder,\r\n        uint bidcount,\r\n        string category\r\n        );\r\n        \r\n    event ProductEvent (Product);\r\n    \r\n    modifier Auctionactive (uint _id){\r\n        require(block.timestamp - products[_id].createdAt <= 200  );\r\n        _;\r\n    }\r\n\r\n    function createUser(string memory _name,string memory _email,string memory _address,string memory _location ,string memory _productname) public {\r\n        usercount++;\r\n        user[usercount] = User(usercount,_productname,_name,_email,_address, _location);\r\n    }\r\n\r\n    function createProduct(string memory _name, uint _baseprice, string memory _discription, string memory _category, string memory _publickey, uint _bidinc, uint _etime) public payable{\r\n        //verify the product\r\n        require(bytes(_name).length > 0);\r\n        require(_baseprice >0);\r\n        //increment productCount\r\n\r\n        productCount++;\r\n        products[productCount].Id = productCount;\r\n        products[productCount].name =_name;\r\n        products[productCount].baseprice =_baseprice;\r\n        products[productCount].owner = payable(msg.sender);\r\n        products[productCount].purchased =false;\r\n        products[productCount].createdAt =block.timestamp*1000;\r\n        products[productCount].currentBid = _baseprice ;\r\n        products[productCount].currentBidder = payable(0);\r\n        products[productCount].currentbidtime =block.timestamp*1000;\r\n        products[productCount].infoArray.discription =_discription;\r\n        products[productCount].infoArray.category =_category;\r\n        products[productCount].bidcount = 0;\r\n        products[productCount].publickey = _publickey;\r\n        products[productCount].infoArray.bidinc = _bidinc;\r\n        products[productCount].infoArray.endtime =  _etime;\r\n\r\n        //create the product\r\n        //products[productCount] = Product(productCount,_name,_baseprice,msg.sender,false, block.timestamp,_baseprice,msg.sender,block.timestamp, _discription,0, _category);\r\n       \r\n        //trigger an event\r\n        //emit ProductCreated(productCount,_name,_baseprice,msg.sender,false,_discription,0, _category);\r\n        \r\n        emit ProductEvent(products[productCount]);\r\n    \r\n    }\r\n    \r\n    modifier validAuction(uint _id) {\r\n        products[_id].Id <= productCount;\r\n        _;\r\n    }\r\n\r\n    modifier validbid(uint _id){\r\n        require (block.timestamp*1000 - products[_id].currentbidtime >= 15 seconds);\r\n        _;\r\n    }\r\n\r\n\r\n    function checkvalidity (address payable _owner, address payable _account ) public returns (bool){\r\n\r\n        require(_owner == _account);\r\n\r\n\r\n        return true;\r\n    }\r\n    \r\n    function placeBid (uint _id)  payable public{\r\n        \r\n        Product storage product = products[_id];\r\n\r\n        //difference between bids should be greater than 15 seconds\r\n        require(block.timestamp*1000 - product.currentbidtime >= 15 seconds);\r\n        \r\n        require(block.timestamp*1000 < product.infoArray.endtime);\r\n        \r\n         // bid should be greater than minPrice\r\n        require(msg.value>=product.baseprice,\"bid value shouldn't be less than the reserve value\");\r\n        \r\n        // you should not be the last bidder , no point in outdoing your own bid\r\n        require(msg.sender != product.currentBidder,\"bidder can't out so their own bid\");\r\n        \r\n        // the incoming value should be greater than previous bid\r\n        require(msg.value >= product.currentBid,\"big value not greater than previous bid\"); \r\n        \r\n        \r\n        \r\n        if(product.currentBid>0){\r\n            product.currentBidder.transfer(product.currentBid -    (product.infoArray.bidinc)  );\r\n        }\r\n        \r\n        product.currentBid =  product.currentBid +   (product.infoArray.bidinc)   ;\r\n        \r\n        \r\n\r\n        \r\n        product.currentBidder = payable(msg.sender);\r\n        product.currentbidtime = block.timestamp*1000;\r\n        product.bidcount = products[_id].bidcount + 1;\r\n        \r\n        \r\n        emit ProductEvent(product);\r\n    \r\n        \r\n        //emit bidplaced(_id,products[_id].name,products[_id].baseprice,products[_id].owner,products[_id].purchased,block.timestamp,\r\n        //products[_id].currentBid,products[_id].currentBidder,products[_id].bidcount, products[_id].infoArray.category  );\r\n        \r\n    }\r\n    \r\n    function closeAuction(uint _id) payable public  {\r\n        //require(block.timestamp - products[_id].createdAt >= 120, \"auction not ended\"  );\r\n\r\n         Product storage product = products[_id];\r\n        \r\n        //bidding time\r\n        require(product.infoArray.endtime < block.timestamp*1000,\"bidding for product is not over yet\");\r\n        \r\n        //claimer must be bidder\r\n        \r\n        require(msg.sender == product.currentBidder,\"you are not eligible to claim this product\");\r\n        \r\n        product.currentBid = product.currentBid  -   (product.infoArray.bidinc) ;\r\n        \r\n        // money sent to seller\r\n        product.owner.transfer(product.currentBid);\r\n        \r\n        // set product status sold to true\r\n        product.purchased = true;\r\n        \r\n        \r\n        emit ProductEvent(product);\r\n         \r\n        \r\n        \r\n        //emit closeauction(_product.Id,_product.name ,_product.baseprice,true,_product.currentBid, _product.owner,products[_id].bidcount ,products[_id].infoArray.category);\r\n\r\n    }\r\n    \r\n    \r\n     function closeAuctionOwner(uint _id) payable public  {\r\n\r\n         \r\n        //require(block.timestamp - products[_id].createdAt >= 120, \"auction not ended\"  );\r\n\r\n        \r\n\r\n         Product storage product = products[_id];\r\n        \r\n        //claimer must be owner\r\n        \r\n        require(msg.sender == product.owner,\"you are not eligible to close this auction\");\r\n        \r\n        product.currentBid = product.currentBid  -   (product.infoArray.bidinc) ;\r\n        \r\n        // money sent to seller\r\n        product.owner.transfer(product.currentBid);\r\n        \r\n        // set product status sold to true\r\n        product.purchased = true;\r\n        \r\n        \r\n        emit ProductEvent(product);\r\n         \r\n        \r\n        \r\n        //emit closeauction(_product.Id,_product.name ,_product.baseprice,true,_product.currentBid, _product.owner,products[_id].bidcount ,products[_id].infoArray.category);\r\n\r\n    }\r\n\r\n    \r\n    function getnow()view public returns(uint) {\r\n        return block.timestamp*1000;\r\n    }\r\n    \r\n}",
  "sourcePath": "/Users/preritrawtani/Desktop/blockchain/Auction/src/contracts/Auction.sol",
  "compiler": {
    "name": "solc",
    "version": "0.8.4+commit.c7e474f2.Emscripten.clang"
  },
  "schemaVersion": "3.4.0",
  "updatedAt": "2021-07-17T19:50:18.824Z",
  "networkType": "ethereum",
  "devdoc": {
    "kind": "dev",
    "methods": {},
    "version": 1
  },
  "userdoc": {
    "kind": "user",
    "methods": {},
    "version": 1
  }
}