{
  "contractName": "Auction",
  "abi": [
    {
      "anonymous": false,
      "inputs": [
        {
          "indexed": false,
          "internalType": "uint256",
          "name": "Id",
          "type": "uint256"
        },
        {
          "indexed": false,
          "internalType": "string",
          "name": "name",
          "type": "string"
        },
        {
          "indexed": false,
          "internalType": "uint256",
          "name": "baseprice",
          "type": "uint256"
        },
        {
          "indexed": false,
          "internalType": "address",
          "name": "owner",
          "type": "address"
        },
        {
          "indexed": false,
          "internalType": "bool",
          "name": "purchased",
          "type": "bool"
        },
        {
          "indexed": false,
          "internalType": "string",
          "name": "discription",
          "type": "string"
        },
        {
          "indexed": false,
          "internalType": "uint256",
          "name": "bidcount",
          "type": "uint256"
        },
        {
          "indexed": false,
          "internalType": "string",
          "name": "category",
          "type": "string"
        }
      ],
      "name": "ProductCreated",
      "type": "event"
    },
    {
      "anonymous": false,
      "inputs": [
        {
          "components": [
            {
              "internalType": "uint256",
              "name": "Id",
              "type": "uint256"
            },
            {
              "internalType": "string",
              "name": "name",
              "type": "string"
            },
            {
              "internalType": "uint256",
              "name": "baseprice",
              "type": "uint256"
            },
            {
              "internalType": "address payable",
              "name": "owner",
              "type": "address"
            },
            {
              "internalType": "bool",
              "name": "purchased",
              "type": "bool"
            },
            {
              "internalType": "uint256",
              "name": "createdAt",
              "type": "uint256"
            },
            {
              "internalType": "uint256",
              "name": "currentBid",
              "type": "uint256"
            },
            {
              "internalType": "address payable",
              "name": "currentBidder",
              "type": "address"
            },
            {
              "internalType": "uint256",
              "name": "currentbidtime",
              "type": "uint256"
            },
            {
              "components": [
                {
                  "internalType": "string",
                  "name": "discription",
                  "type": "string"
                },
                {
                  "internalType": "string",
                  "name": "category",
                  "type": "string"
                },
                {
                  "internalType": "uint256",
                  "name": "bidinc",
                  "type": "uint256"
                },
                {
                  "internalType": "uint256",
                  "name": "endtime",
                  "type": "uint256"
                }
              ],
              "internalType": "struct Auction.Information",
              "name": "infoArray",
              "type": "tuple"
            },
            {
              "internalType": "uint256",
              "name": "bidcount",
              "type": "uint256"
            },
            {
              "internalType": "string",
              "name": "publickey",
              "type": "string"
            }
          ],
          "indexed": false,
          "internalType": "struct Auction.Product",
          "name": "",
          "type": "tuple"
        }
      ],
      "name": "ProductEvent",
      "type": "event"
    },
    {
      "anonymous": false,
      "inputs": [
        {
          "indexed": false,
          "internalType": "uint256",
          "name": "Id",
          "type": "uint256"
        },
        {
          "indexed": false,
          "internalType": "string",
          "name": "name",
          "type": "string"
        },
        {
          "indexed": false,
          "internalType": "uint256",
          "name": "baseprice",
          "type": "uint256"
        },
        {
          "indexed": false,
          "internalType": "address payable",
          "name": "owner",
          "type": "address"
        },
        {
          "indexed": false,
          "internalType": "bool",
          "name": "purchased",
          "type": "bool"
        },
        {
          "indexed": false,
          "internalType": "uint256",
          "name": "createdAt",
          "type": "uint256"
        },
        {
          "indexed": false,
          "internalType": "uint256",
          "name": "currentBid",
          "type": "uint256"
        },
        {
          "indexed": false,
          "internalType": "address payable",
          "name": "currentBidder",
          "type": "address"
        },
        {
          "indexed": false,
          "internalType": "uint256",
          "name": "bidcount",
          "type": "uint256"
        },
        {
          "indexed": false,
          "internalType": "string",
          "name": "category",
          "type": "string"
        }
      ],
      "name": "bidplaced",
      "type": "event"
    },
    {
      "anonymous": false,
      "inputs": [
        {
          "indexed": false,
          "internalType": "uint256",
          "name": "Id",
          "type": "uint256"
        },
        {
          "indexed": false,
          "internalType": "string",
          "name": "name",
          "type": "string"
        },
        {
          "indexed": false,
          "internalType": "uint256",
          "name": "baseprice",
          "type": "uint256"
        },
        {
          "indexed": false,
          "internalType": "bool",
          "name": "purchased",
          "type": "bool"
        },
        {
          "indexed": false,
          "internalType": "uint256",
          "name": "currentBid",
          "type": "uint256"
        },
        {
          "indexed": false,
          "internalType": "address payable",
          "name": "currentBidder",
          "type": "address"
        },
        {
          "indexed": false,
          "internalType": "uint256",
          "name": "bidcount",
          "type": "uint256"
        },
        {
          "indexed": false,
          "internalType": "string",
          "name": "category",
          "type": "string"
        }
      ],
      "name": "closeauction",
      "type": "event"
    },
    {
      "inputs": [
        {
          "internalType": "uint256",
          "name": "",
          "type": "uint256"
        }
      ],
      "name": "arrayhashes",
      "outputs": [
        {
          "internalType": "string",
          "name": "",
          "type": "string"
        }
      ],
      "stateMutability": "view",
      "type": "function",
      "constant": true
    },
    {
      "inputs": [],
      "name": "productCount",
      "outputs": [
        {
          "internalType": "uint256",
          "name": "",
          "type": "uint256"
        }
      ],
      "stateMutability": "view",
      "type": "function",
      "constant": true
    },
    {
      "inputs": [
        {
          "internalType": "uint256",
          "name": "",
          "type": "uint256"
        }
      ],
      "name": "products",
      "outputs": [
        {
          "internalType": "uint256",
          "name": "Id",
          "type": "uint256"
        },
        {
          "internalType": "string",
          "name": "name",
          "type": "string"
        },
        {
          "internalType": "uint256",
          "name": "baseprice",
          "type": "uint256"
        },
        {
          "internalType": "address payable",
          "name": "owner",
          "type": "address"
        },
        {
          "internalType": "bool",
          "name": "purchased",
          "type": "bool"
        },
        {
          "internalType": "uint256",
          "name": "createdAt",
          "type": "uint256"
        },
        {
          "internalType": "uint256",
          "name": "currentBid",
          "type": "uint256"
        },
        {
          "internalType": "address payable",
          "name": "currentBidder",
          "type": "address"
        },
        {
          "internalType": "uint256",
          "name": "currentbidtime",
          "type": "uint256"
        },
        {
          "components": [
            {
              "internalType": "string",
              "name": "discription",
              "type": "string"
            },
            {
              "internalType": "string",
              "name": "category",
              "type": "string"
            },
            {
              "internalType": "uint256",
              "name": "bidinc",
              "type": "uint256"
            },
            {
              "internalType": "uint256",
              "name": "endtime",
              "type": "uint256"
            }
          ],
          "internalType": "struct Auction.Information",
          "name": "infoArray",
          "type": "tuple"
        },
        {
          "internalType": "uint256",
          "name": "bidcount",
          "type": "uint256"
        },
        {
          "internalType": "string",
          "name": "publickey",
          "type": "string"
        }
      ],
      "stateMutability": "view",
      "type": "function",
      "constant": true
    },
    {
      "inputs": [
        {
          "internalType": "uint256",
          "name": "",
          "type": "uint256"
        }
      ],
      "name": "user",
      "outputs": [
        {
          "internalType": "uint256",
          "name": "id",
          "type": "uint256"
        },
        {
          "internalType": "string",
          "name": "productname",
          "type": "string"
        },
        {
          "internalType": "string",
          "name": "name",
          "type": "string"
        },
        {
          "internalType": "string",
          "name": "email",
          "type": "string"
        },
        {
          "internalType": "string",
          "name": "addres",
          "type": "string"
        }
      ],
      "stateMutability": "view",
      "type": "function",
      "constant": true
    },
    {
      "inputs": [],
      "name": "usercount",
      "outputs": [
        {
          "internalType": "uint256",
          "name": "",
          "type": "uint256"
        }
      ],
      "stateMutability": "view",
      "type": "function",
      "constant": true
    },
    {
      "inputs": [
        {
          "internalType": "string",
          "name": "_hash",
          "type": "string"
        }
      ],
      "name": "set",
      "outputs": [],
      "stateMutability": "nonpayable",
      "type": "function"
    },
    {
      "inputs": [],
      "name": "get",
      "outputs": [
        {
          "internalType": "string",
          "name": "",
          "type": "string"
        }
      ],
      "stateMutability": "view",
      "type": "function",
      "constant": true
    },
    {
      "inputs": [
        {
          "internalType": "string",
          "name": "_name",
          "type": "string"
        },
        {
          "internalType": "string",
          "name": "_email",
          "type": "string"
        },
        {
          "internalType": "string",
          "name": "_address",
          "type": "string"
        },
        {
          "internalType": "string",
          "name": "_productname",
          "type": "string"
        }
      ],
      "name": "createUser",
      "outputs": [],
      "stateMutability": "nonpayable",
      "type": "function"
    },
    {
      "inputs": [
        {
          "internalType": "string",
          "name": "_name",
          "type": "string"
        },
        {
          "internalType": "uint256",
          "name": "_baseprice",
          "type": "uint256"
        },
        {
          "internalType": "string",
          "name": "_discription",
          "type": "string"
        },
        {
          "internalType": "string",
          "name": "_category",
          "type": "string"
        },
        {
          "internalType": "string",
          "name": "_publickey",
          "type": "string"
        },
        {
          "internalType": "uint256",
          "name": "_bidinc",
          "type": "uint256"
        }
      ],
      "name": "createProduct",
      "outputs": [],
      "stateMutability": "payable",
      "type": "function",
      "payable": true
    },
    {
      "inputs": [
        {
          "internalType": "address payable",
          "name": "_owner",
          "type": "address"
        },
        {
          "internalType": "address payable",
          "name": "_account",
          "type": "address"
        }
      ],
      "name": "checkvalidity",
      "outputs": [
        {
          "internalType": "bool",
          "name": "",
          "type": "bool"
        }
      ],
      "stateMutability": "nonpayable",
      "type": "function"
    },
    {
      "inputs": [
        {
          "internalType": "uint256",
          "name": "_id",
          "type": "uint256"
        }
      ],
      "name": "placeBid",
      "outputs": [],
      "stateMutability": "payable",
      "type": "function",
      "payable": true
    },
    {
      "inputs": [
        {
          "internalType": "uint256",
          "name": "_id",
          "type": "uint256"
        }
      ],
      "name": "closeAuction",
      "outputs": [],
      "stateMutability": "payable",
      "type": "function",
      "payable": true
    },
    {
      "inputs": [],
      "name": "getnow",
      "outputs": [
        {
          "internalType": "uint256",
          "name": "",
          "type": "uint256"
        }
      ],
      "stateMutability": "view",
      "type": "function",
      "constant": true
    }
  ],
  "bytecode": "0x60806040526000600155600060025534801561001a57600080fd5b506124f98061002a6000396000f3fe6080604052600436106100c25760003560e01c80636f7fcddb1161007f578063881cf12211610059578063881cf1221461028e5780639979ef45146102b9578063c51ee432146102d5578063e0f6ef87146102f1576100c2565b80636f7fcddb146101e05780637acc0b201461020957806385aeb5b214610251576100c2565b80630f322c1e146100c7578063236ed8f3146100f25780634daf44cd1461010e5780634ed3885e1461014b578063553275be146101745780636d4ce63c146101b5575b600080fd5b3480156100d357600080fd5b506100dc61031c565b6040516100e99190611dc2565b60405180910390f35b61010c600480360381019061010791906116c1565b610322565b005b34801561011a57600080fd5b50610135600480360381019061013091906116c1565b61051b565b6040516101429190611cbc565b60405180910390f35b34801561015757600080fd5b50610172600480360381019061016d91906114d4565b6105c7565b005b34801561018057600080fd5b5061019b600480360381019061019691906116c1565b61061d565b6040516101ac959493929190611ddd565b60405180910390f35b3480156101c157600080fd5b506101ca610873565b6040516101d79190611cbc565b60405180910390f35b3480156101ec57600080fd5b5061020760048036038101906102029190611515565b610905565b005b34801561021557600080fd5b50610230600480360381019061022b91906116c1565b6109e2565b6040516102489c9b9a99989796959493929190611e4c565b60405180910390f35b34801561025d57600080fd5b5061027860048036038101906102739190611498565b610ce1565b6040516102859190611ca1565b60405180910390f35b34801561029a57600080fd5b506102a3610d25565b6040516102b09190611dc2565b60405180910390f35b6102d360048036038101906102ce91906116c1565b610d3a565b005b6102ef60048036038101906102ea91906115d8565b611024565b005b3480156102fd57600080fd5b5061030661135d565b6040516103139190611dc2565b60405180910390f35b60025481565b60006004600083815260200190815260200160002090506103e8426103479190612009565b81600801600301541061038f576040517f08c379a000000000000000000000000000000000000000000000000000000000815260040161038690611d5e565b60405180910390fd5b8060060160009054906101000a900473ffffffffffffffffffffffffffffffffffffffff1673ffffffffffffffffffffffffffffffffffffffff163373ffffffffffffffffffffffffffffffffffffffff1614610421576040517f08c379a000000000000000000000000000000000000000000000000000000000815260040161041890611cde565b60405180910390fd5b60046000600154815260200190815260200160002060080160020154816005015461044c9190612063565b81600501819055508060030160009054906101000a900473ffffffffffffffffffffffffffffffffffffffff1673ffffffffffffffffffffffffffffffffffffffff166108fc82600501549081150290604051600060405180830381858888f193505050501580156104c2573d6000803e3d6000fd5b5060018160030160146101000a81548160ff0219169083151502179055507f26260b89742fae7e37cece7568d3ec9cb6842308d1f2343869dea83642130bcc8160405161050f9190611da0565b60405180910390a15050565b6000818154811061052b57600080fd5b90600052602060002001600091509050805461054690612158565b80601f016020809104026020016040519081016040528092919081815260200182805461057290612158565b80156105bf5780601f10610594576101008083540402835291602001916105bf565b820191906000526020600020905b8154815290600101906020018083116105a257829003601f168201915b505050505081565b80600390805190602001906105dd929190611363565b50600081908060018154018082558091505060019003906000526020600020016000909190919091509080519060200190610619929190611363565b5050565b600560205280600052604060002060009150905080600001549080600101805461064690612158565b80601f016020809104026020016040519081016040528092919081815260200182805461067290612158565b80156106bf5780601f10610694576101008083540402835291602001916106bf565b820191906000526020600020905b8154815290600101906020018083116106a257829003601f168201915b5050505050908060020180546106d490612158565b80601f016020809104026020016040519081016040528092919081815260200182805461070090612158565b801561074d5780601f106107225761010080835404028352916020019161074d565b820191906000526020600020905b81548152906001019060200180831161073057829003601f168201915b50505050509080600301805461076290612158565b80601f016020809104026020016040519081016040528092919081815260200182805461078e90612158565b80156107db5780601f106107b0576101008083540402835291602001916107db565b820191906000526020600020905b8154815290600101906020018083116107be57829003601f168201915b5050505050908060040180546107f090612158565b80601f016020809104026020016040519081016040528092919081815260200182805461081c90612158565b80156108695780601f1061083e57610100808354040283529160200191610869565b820191906000526020600020905b81548152906001019060200180831161084c57829003601f168201915b5050505050905085565b60606003805461088290612158565b80601f01602080910402602001604051908101604052809291908181526020018280546108ae90612158565b80156108fb5780601f106108d0576101008083540402835291602001916108fb565b820191906000526020600020905b8154815290600101906020018083116108de57829003601f168201915b5050505050905090565b6002600081548092919061091890612209565b91905055506040518060a00160405280600254815260200182815260200185815260200184815260200183815250600560006002548152602001908152602001600020600082015181600001556020820151816001019080519060200190610981929190611363565b50604082015181600201908051906020019061099e929190611363565b5060608201518160030190805190602001906109bb929190611363565b5060808201518160040190805190602001906109d8929190611363565b5090505050505050565b6004602052806000526040600020600091509050806000015490806001018054610a0b90612158565b80601f0160208091040260200160405190810160405280929190818152602001828054610a3790612158565b8015610a845780601f10610a5957610100808354040283529160200191610a84565b820191906000526020600020905b815481529060010190602001808311610a6757829003601f168201915b5050505050908060020154908060030160009054906101000a900473ffffffffffffffffffffffffffffffffffffffff16908060030160149054906101000a900460ff16908060040154908060050154908060060160009054906101000a900473ffffffffffffffffffffffffffffffffffffffff169080600701549080600801604051806080016040529081600082018054610b2090612158565b80601f0160208091040260200160405190810160405280929190818152602001828054610b4c90612158565b8015610b995780601f10610b6e57610100808354040283529160200191610b99565b820191906000526020600020905b815481529060010190602001808311610b7c57829003601f168201915b50505050508152602001600182018054610bb290612158565b80601f0160208091040260200160405190810160405280929190818152602001828054610bde90612158565b8015610c2b5780601f10610c0057610100808354040283529160200191610c2b565b820191906000526020600020905b815481529060010190602001808311610c0e57829003601f168201915b50505050508152602001600282015481526020016003820154815250509080600c01549080600d018054610c5e90612158565b80601f0160208091040260200160405190810160405280929190818152602001828054610c8a90612158565b8015610cd75780601f10610cac57610100808354040283529160200191610cd7565b820191906000526020600020905b815481529060010190602001808311610cba57829003601f168201915b505050505090508c565b60008173ffffffffffffffffffffffffffffffffffffffff168373ffffffffffffffffffffffffffffffffffffffff1614610d1b57600080fd5b6001905092915050565b60006103e842610d359190612009565b905090565b6000600460008381526020019081526020016000209050600f81600701546103e842610d669190612009565b610d709190612063565b1015610d7b57600080fd5b8060020154341015610dc2576040517f08c379a0000000000000000000000000000000000000000000000000000000008152600401610db990611d1e565b60405180910390fd5b8060060160009054906101000a900473ffffffffffffffffffffffffffffffffffffffff1673ffffffffffffffffffffffffffffffffffffffff163373ffffffffffffffffffffffffffffffffffffffff161415610e55576040517f08c379a0000000000000000000000000000000000000000000000000000000008152600401610e4c90611d3e565b60405180910390fd5b8060050154341015610e9c576040517f08c379a0000000000000000000000000000000000000000000000000000000008152600401610e9390611cfe565b60405180910390fd5b600081600501541115610f3f578060060160009054906101000a900473ffffffffffffffffffffffffffffffffffffffff1673ffffffffffffffffffffffffffffffffffffffff166108fc600460006001548152602001908152602001600020600801600201548360050154610f129190612063565b9081150290604051600060405180830381858888f19350505050158015610f3d573d6000803e3d6000fd5b505b600460006001548152602001908152602001600020600801600201548160050154610f6a9190611fb3565b8160050181905550338160060160006101000a81548173ffffffffffffffffffffffffffffffffffffffff021916908373ffffffffffffffffffffffffffffffffffffffff160217905550428160070181905550600160046000848152602001908152602001600020600c0154610fe19190611fb3565b81600c01819055507f26260b89742fae7e37cece7568d3ec9cb6842308d1f2343869dea83642130bcc816040516110189190611da0565b60405180910390a15050565b600086511161103257600080fd5b6000851161103f57600080fd5b6001600081548092919061105290612209565b9190505550600154600460006001548152602001908152602001600020600001819055508560046000600154815260200190815260200160002060010190805190602001906110a2929190611363565b5084600460006001548152602001908152602001600020600201819055503360046000600154815260200190815260200160002060030160006101000a81548173ffffffffffffffffffffffffffffffffffffffff021916908373ffffffffffffffffffffffffffffffffffffffff160217905550600060046000600154815260200190815260200160002060030160146101000a81548160ff0219169083151502179055506103e8426111569190612009565b600460006001548152602001908152602001600020600401819055508460046000600154815260200190815260200160002060050181905550600060046000600154815260200190815260200160002060060160006101000a81548173ffffffffffffffffffffffffffffffffffffffff021916908373ffffffffffffffffffffffffffffffffffffffff1602179055504260046000600154815260200190815260200160002060070181905550836004600060015481526020019081526020016000206008016000019080519060200190611233929190611363565b50826004600060015481526020019081526020016000206008016001019080519060200190611263929190611363565b506000600460006001548152602001908152602001600020600c018190555081600460006001548152602001908152602001600020600d0190805190602001906112ae929190611363565b508060046000600154815260200190815260200160002060080160020181905550620186a06103e8426112e19190612009565b6112eb9190611fb3565b600460006001548152602001908152602001600020600801600301819055507f26260b89742fae7e37cece7568d3ec9cb6842308d1f2343869dea83642130bcc60046000600154815260200190815260200160002060405161134d9190611d7e565b60405180910390a1505050505050565b60015481565b82805461136f90612158565b90600052602060002090601f01602090048101928261139157600085556113d8565b82601f106113aa57805160ff19168380011785556113d8565b828001600101855582156113d8579182015b828111156113d75782518255916020019190600101906113bc565b5b5090506113e591906113e9565b5090565b5b808211156114025760008160009055506001016113ea565b5090565b600061141961141484611f40565b611f1b565b90508281526020810184848401111561143157600080fd5b61143c848285612116565b509392505050565b60008135905061145381612495565b92915050565b600082601f83011261146a57600080fd5b813561147a848260208601611406565b91505092915050565b600081359050611492816124ac565b92915050565b600080604083850312156114ab57600080fd5b60006114b985828601611444565b92505060206114ca85828601611444565b9150509250929050565b6000602082840312156114e657600080fd5b600082013567ffffffffffffffff81111561150057600080fd5b61150c84828501611459565b91505092915050565b6000806000806080858703121561152b57600080fd5b600085013567ffffffffffffffff81111561154557600080fd5b61155187828801611459565b945050602085013567ffffffffffffffff81111561156e57600080fd5b61157a87828801611459565b935050604085013567ffffffffffffffff81111561159757600080fd5b6115a387828801611459565b925050606085013567ffffffffffffffff8111156115c057600080fd5b6115cc87828801611459565b91505092959194509250565b60008060008060008060c087890312156115f157600080fd5b600087013567ffffffffffffffff81111561160b57600080fd5b61161789828a01611459565b965050602061162889828a01611483565b955050604087013567ffffffffffffffff81111561164557600080fd5b61165189828a01611459565b945050606087013567ffffffffffffffff81111561166e57600080fd5b61167a89828a01611459565b935050608087013567ffffffffffffffff81111561169757600080fd5b6116a389828a01611459565b92505060a06116b489828a01611483565b9150509295509295509295565b6000602082840312156116d357600080fd5b60006116e184828501611483565b91505092915050565b6116f3816120ce565b82525050565b611702816120ce565b82525050565b611711816120e0565b82525050565b611720816120e0565b82525050565b600061173182611f86565b61173b8185611f91565b935061174b818560208601612125565b611754816122df565b840191505092915050565b600061176a82611f86565b6117748185611fa2565b9350611784818560208601612125565b61178d816122df565b840191505092915050565b600081546117a581612158565b6117af8186611f91565b945060018216600081146117ca57600181146117dc5761180f565b60ff198316865260208601935061180f565b6117e585611f71565b60005b83811015611807578154818901526001820191506020810190506117e8565b808801955050505b50505092915050565b6000611825602a83611fa2565b91506118308261230a565b604082019050919050565b6000611848602783611fa2565b915061185382612359565b604082019050919050565b600061186b603283611fa2565b9150611876826123a8565b604082019050919050565b600061188e602183611fa2565b9150611899826123f7565b604082019050919050565b60006118b1602383611fa2565b91506118bc82612446565b604082019050919050565b600060808301600083015184820360008601526118e48282611726565b915050602083015184820360208601526118fe8282611726565b91505060408301516119136040860182611c83565b5060608301516119266060860182611c83565b508091505092915050565b6000608083016000808401858303600087015261194e8382611798565b9250506001840185830360208701526119678382611798565b9250506002840154905061197a816121a4565b6119876040870182611c83565b5060038401549050611998816121a4565b6119a56060870182611c83565b50819250505092915050565b6000610180830160008084015490506119c9816121a4565b6119d66000870182611c83565b506001840185830360208701526119ed8382611798565b92505060028401549050611a00816121a4565b611a0d6040870182611c83565b5060038401549050611a1e8161218a565b611a2b60608701826116ea565b50611a35816121be565b611a426080870182611708565b5060048401549050611a53816121a4565b611a6060a0870182611c83565b5060058401549050611a71816121a4565b611a7e60c0870182611c83565b5060068401549050611a8f8161218a565b611a9c60e08701826116ea565b5060078401549050611aad816121a4565b611abb610100870182611c83565b5060088401858303610120870152611ad38382611931565b925050600c8401549050611ae6816121a4565b611af4610140870182611c83565b50600d8401858303610160870152611b0c8382611798565b925050819250505092915050565b600061018083016000808401549050611b32816121a4565b611b3f6000870182611c83565b50600184018583036020870152611b568382611798565b92505060028401549050611b69816121a4565b611b766040870182611c83565b5060038401549050611b878161218a565b611b9460608701826116ea565b50611b9e816121be565b611bab6080870182611708565b5060048401549050611bbc816121a4565b611bc960a0870182611c83565b5060058401549050611bda816121a4565b611be760c0870182611c83565b5060068401549050611bf88161218a565b611c0560e08701826116ea565b5060078401549050611c16816121a4565b611c24610100870182611c83565b5060088401858303610120870152611c3c8382611931565b925050600c8401549050611c4f816121a4565b611c5d610140870182611c83565b50600d8401858303610160870152611c758382611798565b925050819250505092915050565b611c8c8161210c565b82525050565b611c9b8161210c565b82525050565b6000602082019050611cb66000830184611717565b92915050565b60006020820190508181036000830152611cd6818461175f565b905092915050565b60006020820190508181036000830152611cf781611818565b9050919050565b60006020820190508181036000830152611d178161183b565b9050919050565b60006020820190508181036000830152611d378161185e565b9050919050565b60006020820190508181036000830152611d5781611881565b9050919050565b60006020820190508181036000830152611d77816118a4565b9050919050565b60006020820190508181036000830152611d988184611b1a565b905092915050565b60006020820190508181036000830152611dba81846119b1565b905092915050565b6000602082019050611dd76000830184611c92565b92915050565b600060a082019050611df26000830188611c92565b8181036020830152611e04818761175f565b90508181036040830152611e18818661175f565b90508181036060830152611e2c818561175f565b90508181036080830152611e40818461175f565b90509695505050505050565b600061018082019050611e62600083018f611c92565b8181036020830152611e74818e61175f565b9050611e83604083018d611c92565b611e90606083018c6116f9565b611e9d608083018b611717565b611eaa60a083018a611c92565b611eb760c0830189611c92565b611ec460e08301886116f9565b611ed2610100830187611c92565b818103610120830152611ee581866118c7565b9050611ef5610140830185611c92565b818103610160830152611f08818461175f565b90509d9c50505050505050505050505050565b6000611f25611f36565b9050611f3182826121d8565b919050565b6000604051905090565b600067ffffffffffffffff821115611f5b57611f5a6122b0565b5b611f64826122df565b9050602081019050919050565b60008190508160005260206000209050919050565b600081519050919050565b600082825260208201905092915050565b600082825260208201905092915050565b6000611fbe8261210c565b9150611fc98361210c565b9250827fffffffffffffffffffffffffffffffffffffffffffffffffffffffffffffffff03821115611ffe57611ffd612252565b5b828201905092915050565b60006120148261210c565b915061201f8361210c565b9250817fffffffffffffffffffffffffffffffffffffffffffffffffffffffffffffffff048311821515161561205857612057612252565b5b828202905092915050565b600061206e8261210c565b91506120798361210c565b92508282101561208c5761208b612252565b5b828203905092915050565b600073ffffffffffffffffffffffffffffffffffffffff82169050919050565b600060ff82169050919050565b6000819050919050565b60006120d9826120ec565b9050919050565b60008115159050919050565b600073ffffffffffffffffffffffffffffffffffffffff82169050919050565b6000819050919050565b82818337600083830152505050565b60005b83811015612143578082015181840152602081019050612128565b83811115612152576000848401525b50505050565b6000600282049050600182168061217057607f821691505b6020821081141561218457612183612281565b5b50919050565b600061219d612198836122f0565b612097565b9050919050565b60006121b76121b2836122f0565b6120c4565b9050919050565b60006121d16121cc836122fd565b6120b7565b9050919050565b6121e1826122df565b810181811067ffffffffffffffff82111715612200576121ff6122b0565b5b80604052505050565b60006122148261210c565b91507fffffffffffffffffffffffffffffffffffffffffffffffffffffffffffffffff82141561224757612246612252565b5b600182019050919050565b7f4e487b7100000000000000000000000000000000000000000000000000000000600052601160045260246000fd5b7f4e487b7100000000000000000000000000000000000000000000000000000000600052602260045260246000fd5b7f4e487b7100000000000000000000000000000000000000000000000000000000600052604160045260246000fd5b6000601f19601f8301169050919050565b60008160001c9050919050565b60008160a01c9050919050565b7f796f7520617265206e6f7420656c696769626c6520746f20636c61696d20746860008201527f69732070726f6475637400000000000000000000000000000000000000000000602082015250565b7f6269672076616c7565206e6f742067726561746572207468616e20707265766960008201527f6f75732062696400000000000000000000000000000000000000000000000000602082015250565b7f6269642076616c75652073686f756c646e2774206265206c657373207468616e60008201527f2074686520726573657276652076616c75650000000000000000000000000000602082015250565b7f6269646465722063616e2774206f757420736f207468656972206f776e20626960008201527f6400000000000000000000000000000000000000000000000000000000000000602082015250565b7f62696464696e6720666f722070726f64756374206973206e6f74206f7665722060008201527f7965740000000000000000000000000000000000000000000000000000000000602082015250565b61249e816120ce565b81146124a957600080fd5b50565b6124b58161210c565b81146124c057600080fd5b5056fea2646970667358221220573323d9b0d0319dc4199c6fe4c215364d20e8487b0558cb0eab682969fa940464736f6c63430008040033",
  "immutableReferences": {},
  "source": "pragma solidity ^0.8.4;\npragma experimental ABIEncoderV2;\ncontract Auction {\n\n    string[] public arrayhashes;\n\n\n    uint public productCount = 0;\n    uint public usercount = 0;\n    string hash;\n\n     function set(string memory _hash) public {\n        hash = _hash;\n        arrayhashes.push(_hash);\n    }\n\n    //read function\n    function get() public view returns (string memory) {\n    return hash;\n  }\n    \n    mapping(uint => Product) public products;\n    mapping(uint => User)public user;\n\n    struct User{\n        uint id;\n        string productname;\n        string name;\n        string email;\n        string addres;\n        \n    }\n   \n    struct Product {\n        uint Id;\n        string name;\n        uint baseprice;\n        address payable owner;\n        bool purchased;\n        uint createdAt;\n        uint currentBid;\n        address payable currentBidder;\n        uint currentbidtime;\n        Information infoArray;\n        uint bidcount;\n        string publickey;\n    }\n\n    struct Information {\n        string discription;\n        string category;\n        uint bidinc;\n        uint endtime;\n    }\n    \n    event ProductCreated(\n        uint Id,\n        string name,\n        uint baseprice,\n        address owner,\n        bool purchased,\n        string discription,\n        uint bidcount,\n        string category\n    );\n    \n    event bidplaced(\n        uint Id,\n        string name,\n        uint baseprice,\n        address payable owner,\n        bool purchased,\n        uint createdAt,\n        uint currentBid,\n        address payable currentBidder,\n        uint bidcount,\n        string category\n        );\n        \n    event closeauction (\n        uint Id,\n        string name,\n        uint baseprice,\n        bool purchased,\n        uint currentBid,\n        address payable currentBidder,\n        uint bidcount,\n        string category\n        );\n        \n    event ProductEvent (Product);\n    \n    modifier Auctionactive (uint _id){\n        require(block.timestamp - products[_id].createdAt <= 200  );\n        _;\n    }\n\n    function createUser(string memory _name,string memory _email,string memory _address,string memory _productname) public {\n        usercount++;\n        user[usercount] = User(usercount,_productname,_name,_email,_address);\n    }\n\n    \n    \n    function createProduct(string memory _name, uint _baseprice, string memory _discription, string memory _category, string memory _publickey, uint _bidinc) public payable{\n        //verify the product\n        require(bytes(_name).length > 0);\n        require(_baseprice >0);\n        //increment productCount\n\n        productCount++;\n        products[productCount].Id = productCount;\n        products[productCount].name =_name;\n        products[productCount].baseprice =_baseprice;\n        products[productCount].owner = payable(msg.sender);\n        products[productCount].purchased =false;\n        products[productCount].createdAt =block.timestamp*1000;\n        products[productCount].currentBid = _baseprice ;\n        products[productCount].currentBidder = payable(0);\n        products[productCount].currentbidtime =block.timestamp;\n        products[productCount].infoArray.discription =_discription;\n        products[productCount].infoArray.category =_category;\n        products[productCount].bidcount = 0;\n        products[productCount].publickey = _publickey;\n        products[productCount].infoArray.bidinc = _bidinc;\n        products[productCount].infoArray.endtime =  block.timestamp*1000+100000;\n\n        //create the product\n        //products[productCount] = Product(productCount,_name,_baseprice,msg.sender,false, block.timestamp,_baseprice,msg.sender,block.timestamp, _discription,0, _category);\n       \n        //trigger an event\n        //emit ProductCreated(productCount,_name,_baseprice,msg.sender,false,_discription,0, _category);\n        \n        emit ProductEvent(products[productCount]);\n    \n    }\n    \n    modifier validAuction(uint _id) {\n        products[_id].Id <= productCount;\n        _;\n    }\n\n    modifier validbid(uint _id){\n        require (block.timestamp*1000 - products[_id].currentbidtime >= 15 seconds);\n        _;\n    }\n\n\n    function checkvalidity (address payable _owner, address payable _account ) public returns (bool){\n\n        require(_owner == _account);\n\n\n        return true;\n    }\n    \n    function placeBid (uint _id)  payable public{\n        \n        Product storage product = products[_id];\n\n        //difference between bids should be greater than 15 seconds\n        require(block.timestamp*1000 - product.currentbidtime >= 15 seconds);\n        \n        \n        \n         // bid should be greater than minPrice\n        require(msg.value>=product.baseprice,\"bid value shouldn't be less than the reserve value\");\n        \n        // you should not be the last bidder , no point in outdoing your own bid\n        require(msg.sender != product.currentBidder,\"bidder can't out so their own bid\");\n        \n        // the incoming value should be greater than previous bid\n        require(msg.value >= product.currentBid,\"big value not greater than previous bid\"); \n        \n        \n        \n        if(product.currentBid>0){\n            product.currentBidder.transfer(product.currentBid -    (products[productCount].infoArray.bidinc)  );\n        }\n        \n        product.currentBid =  product.currentBid +   (products[productCount].infoArray.bidinc)   ;\n        \n        \n\n        \n        product.currentBidder = payable(msg.sender);\n        product.currentbidtime = block.timestamp;\n        product.bidcount = products[_id].bidcount + 1;\n        \n        \n        emit ProductEvent(product);\n    \n        \n        //emit bidplaced(_id,products[_id].name,products[_id].baseprice,products[_id].owner,products[_id].purchased,block.timestamp,\n        //products[_id].currentBid,products[_id].currentBidder,products[_id].bidcount, products[_id].infoArray.category  );\n        \n    }\n    \n    function closeAuction(uint _id) payable public  {\n\n         \n        //require(block.timestamp - products[_id].createdAt >= 120, \"auction not ended\"  );\n\n        \n\n         Product storage product = products[_id];\n        \n        //bidding time\n        require(product.infoArray.endtime < block.timestamp*1000,\"bidding for product is not over yet\");\n        \n        //claimer must be bidder\n        \n        require(msg.sender == product.currentBidder,\"you are not eligible to claim this product\");\n        \n        product.currentBid = product.currentBid  -   (products[productCount].infoArray.bidinc) ;\n        \n        // money sent to seller\n        product.owner.transfer(product.currentBid);\n        \n        // set product status sold to true\n        product.purchased = true;\n        \n        \n        emit ProductEvent(product);\n         \n        \n        \n        //emit closeauction(_product.Id,_product.name ,_product.baseprice,true,_product.currentBid, _product.owner,products[_id].bidcount ,products[_id].infoArray.category);\n\n    }\n\n    \n    function getnow()view public returns(uint) {\n        return block.timestamp*1000;\n    }\n    \n    \n}",
  "sourcePath": "/Users/preritrawtani/Desktop/blockchain/Auction/src/contracts/Auction.sol",
  "compiler": {
    "name": "solc",
    "version": "0.8.4+commit.c7e474f2.Emscripten.clang"
  },
  "schemaVersion": "3.4.0",
  "updatedAt": "2021-07-11T11:22:09.303Z",
  "networkType": "ethereum",
  "devdoc": {
    "kind": "dev",
    "methods": {},
    "version": 1
  },
  "userdoc": {
    "kind": "user",
    "methods": {},
    "version": 1
  }
}