{
  "contractName": "Auction",
  "abi": [
    {
      "anonymous": false,
      "inputs": [
        {
          "indexed": false,
          "internalType": "uint256",
          "name": "Id",
          "type": "uint256"
        },
        {
          "indexed": false,
          "internalType": "string",
          "name": "name",
          "type": "string"
        },
        {
          "indexed": false,
          "internalType": "uint256",
          "name": "baseprice",
          "type": "uint256"
        },
        {
          "indexed": false,
          "internalType": "address",
          "name": "owner",
          "type": "address"
        },
        {
          "indexed": false,
          "internalType": "bool",
          "name": "purchased",
          "type": "bool"
        },
        {
          "indexed": false,
          "internalType": "string",
          "name": "discription",
          "type": "string"
        },
        {
          "indexed": false,
          "internalType": "uint256",
          "name": "bidcount",
          "type": "uint256"
        },
        {
          "indexed": false,
          "internalType": "string",
          "name": "category",
          "type": "string"
        }
      ],
      "name": "ProductCreated",
      "type": "event"
    },
    {
      "anonymous": false,
      "inputs": [
        {
          "components": [
            {
              "internalType": "uint256",
              "name": "Id",
              "type": "uint256"
            },
            {
              "internalType": "string",
              "name": "name",
              "type": "string"
            },
            {
              "internalType": "uint256",
              "name": "baseprice",
              "type": "uint256"
            },
            {
              "internalType": "address payable",
              "name": "owner",
              "type": "address"
            },
            {
              "internalType": "bool",
              "name": "purchased",
              "type": "bool"
            },
            {
              "internalType": "uint256",
              "name": "createdAt",
              "type": "uint256"
            },
            {
              "internalType": "uint256",
              "name": "currentBid",
              "type": "uint256"
            },
            {
              "internalType": "address payable",
              "name": "currentBidder",
              "type": "address"
            },
            {
              "internalType": "uint256",
              "name": "currentbidtime",
              "type": "uint256"
            },
            {
              "components": [
                {
                  "internalType": "string",
                  "name": "discription",
                  "type": "string"
                },
                {
                  "internalType": "string",
                  "name": "category",
                  "type": "string"
                },
                {
                  "internalType": "uint256",
                  "name": "bidinc",
                  "type": "uint256"
                },
                {
                  "internalType": "uint256",
                  "name": "endtime",
                  "type": "uint256"
                },
                {
                  "internalType": "string",
                  "name": "hash",
                  "type": "string"
                },
                {
                  "internalType": "bool",
                  "name": "claimed",
                  "type": "bool"
                }
              ],
              "internalType": "struct Auction.Information",
              "name": "infoArray",
              "type": "tuple"
            },
            {
              "internalType": "uint256",
              "name": "bidcount",
              "type": "uint256"
            },
            {
              "internalType": "string",
              "name": "publickey",
              "type": "string"
            }
          ],
          "indexed": false,
          "internalType": "struct Auction.Product",
          "name": "",
          "type": "tuple"
        }
      ],
      "name": "ProductEvent",
      "type": "event"
    },
    {
      "anonymous": false,
      "inputs": [
        {
          "indexed": false,
          "internalType": "uint256",
          "name": "Id",
          "type": "uint256"
        },
        {
          "indexed": false,
          "internalType": "string",
          "name": "name",
          "type": "string"
        },
        {
          "indexed": false,
          "internalType": "uint256",
          "name": "baseprice",
          "type": "uint256"
        },
        {
          "indexed": false,
          "internalType": "address payable",
          "name": "owner",
          "type": "address"
        },
        {
          "indexed": false,
          "internalType": "bool",
          "name": "purchased",
          "type": "bool"
        },
        {
          "indexed": false,
          "internalType": "uint256",
          "name": "createdAt",
          "type": "uint256"
        },
        {
          "indexed": false,
          "internalType": "uint256",
          "name": "currentBid",
          "type": "uint256"
        },
        {
          "indexed": false,
          "internalType": "address payable",
          "name": "currentBidder",
          "type": "address"
        },
        {
          "indexed": false,
          "internalType": "uint256",
          "name": "bidcount",
          "type": "uint256"
        },
        {
          "indexed": false,
          "internalType": "string",
          "name": "category",
          "type": "string"
        }
      ],
      "name": "bidplaced",
      "type": "event"
    },
    {
      "anonymous": false,
      "inputs": [
        {
          "indexed": false,
          "internalType": "uint256",
          "name": "Id",
          "type": "uint256"
        },
        {
          "indexed": false,
          "internalType": "string",
          "name": "name",
          "type": "string"
        },
        {
          "indexed": false,
          "internalType": "uint256",
          "name": "baseprice",
          "type": "uint256"
        },
        {
          "indexed": false,
          "internalType": "bool",
          "name": "purchased",
          "type": "bool"
        },
        {
          "indexed": false,
          "internalType": "uint256",
          "name": "currentBid",
          "type": "uint256"
        },
        {
          "indexed": false,
          "internalType": "address payable",
          "name": "currentBidder",
          "type": "address"
        },
        {
          "indexed": false,
          "internalType": "uint256",
          "name": "bidcount",
          "type": "uint256"
        },
        {
          "indexed": false,
          "internalType": "string",
          "name": "category",
          "type": "string"
        }
      ],
      "name": "closeauction",
      "type": "event"
    },
    {
      "inputs": [
        {
          "internalType": "uint256",
          "name": "",
          "type": "uint256"
        }
      ],
      "name": "arrayhashes",
      "outputs": [
        {
          "internalType": "string",
          "name": "",
          "type": "string"
        }
      ],
      "stateMutability": "view",
      "type": "function",
      "constant": true
    },
    {
      "inputs": [],
      "name": "productCount",
      "outputs": [
        {
          "internalType": "uint256",
          "name": "",
          "type": "uint256"
        }
      ],
      "stateMutability": "view",
      "type": "function",
      "constant": true
    },
    {
      "inputs": [
        {
          "internalType": "uint256",
          "name": "",
          "type": "uint256"
        }
      ],
      "name": "products",
      "outputs": [
        {
          "internalType": "uint256",
          "name": "Id",
          "type": "uint256"
        },
        {
          "internalType": "string",
          "name": "name",
          "type": "string"
        },
        {
          "internalType": "uint256",
          "name": "baseprice",
          "type": "uint256"
        },
        {
          "internalType": "address payable",
          "name": "owner",
          "type": "address"
        },
        {
          "internalType": "bool",
          "name": "purchased",
          "type": "bool"
        },
        {
          "internalType": "uint256",
          "name": "createdAt",
          "type": "uint256"
        },
        {
          "internalType": "uint256",
          "name": "currentBid",
          "type": "uint256"
        },
        {
          "internalType": "address payable",
          "name": "currentBidder",
          "type": "address"
        },
        {
          "internalType": "uint256",
          "name": "currentbidtime",
          "type": "uint256"
        },
        {
          "components": [
            {
              "internalType": "string",
              "name": "discription",
              "type": "string"
            },
            {
              "internalType": "string",
              "name": "category",
              "type": "string"
            },
            {
              "internalType": "uint256",
              "name": "bidinc",
              "type": "uint256"
            },
            {
              "internalType": "uint256",
              "name": "endtime",
              "type": "uint256"
            },
            {
              "internalType": "string",
              "name": "hash",
              "type": "string"
            },
            {
              "internalType": "bool",
              "name": "claimed",
              "type": "bool"
            }
          ],
          "internalType": "struct Auction.Information",
          "name": "infoArray",
          "type": "tuple"
        },
        {
          "internalType": "uint256",
          "name": "bidcount",
          "type": "uint256"
        },
        {
          "internalType": "string",
          "name": "publickey",
          "type": "string"
        }
      ],
      "stateMutability": "view",
      "type": "function",
      "constant": true
    },
    {
      "inputs": [
        {
          "internalType": "uint256",
          "name": "",
          "type": "uint256"
        }
      ],
      "name": "user",
      "outputs": [
        {
          "internalType": "uint256",
          "name": "id",
          "type": "uint256"
        },
        {
          "internalType": "string",
          "name": "productname",
          "type": "string"
        },
        {
          "internalType": "string",
          "name": "name",
          "type": "string"
        },
        {
          "internalType": "string",
          "name": "email",
          "type": "string"
        },
        {
          "internalType": "string",
          "name": "addres",
          "type": "string"
        },
        {
          "internalType": "string",
          "name": "location",
          "type": "string"
        }
      ],
      "stateMutability": "view",
      "type": "function",
      "constant": true
    },
    {
      "inputs": [],
      "name": "usercount",
      "outputs": [
        {
          "internalType": "uint256",
          "name": "",
          "type": "uint256"
        }
      ],
      "stateMutability": "view",
      "type": "function",
      "constant": true
    },
    {
      "inputs": [
        {
          "internalType": "string",
          "name": "_hash",
          "type": "string"
        }
      ],
      "name": "set",
      "outputs": [],
      "stateMutability": "nonpayable",
      "type": "function"
    },
    {
      "inputs": [],
      "name": "get",
      "outputs": [
        {
          "internalType": "string",
          "name": "",
          "type": "string"
        }
      ],
      "stateMutability": "view",
      "type": "function",
      "constant": true
    },
    {
      "inputs": [
        {
          "internalType": "string",
          "name": "_name",
          "type": "string"
        },
        {
          "internalType": "string",
          "name": "_email",
          "type": "string"
        },
        {
          "internalType": "string",
          "name": "_address",
          "type": "string"
        },
        {
          "internalType": "string",
          "name": "_location",
          "type": "string"
        },
        {
          "internalType": "string",
          "name": "_productname",
          "type": "string"
        }
      ],
      "name": "createUser",
      "outputs": [],
      "stateMutability": "nonpayable",
      "type": "function"
    },
    {
      "inputs": [
        {
          "internalType": "string",
          "name": "_name",
          "type": "string"
        },
        {
          "internalType": "uint256",
          "name": "_baseprice",
          "type": "uint256"
        },
        {
          "internalType": "string",
          "name": "_discription",
          "type": "string"
        },
        {
          "internalType": "string",
          "name": "_category",
          "type": "string"
        },
        {
          "internalType": "string",
          "name": "_publickey",
          "type": "string"
        },
        {
          "internalType": "uint256",
          "name": "_bidinc",
          "type": "uint256"
        },
        {
          "internalType": "uint256",
          "name": "_etime",
          "type": "uint256"
        },
        {
          "internalType": "string",
          "name": "_hash",
          "type": "string"
        }
      ],
      "name": "createProduct",
      "outputs": [],
      "stateMutability": "payable",
      "type": "function",
      "payable": true
    },
    {
      "inputs": [
        {
          "internalType": "address payable",
          "name": "_owner",
          "type": "address"
        },
        {
          "internalType": "address payable",
          "name": "_account",
          "type": "address"
        }
      ],
      "name": "checkvalidity",
      "outputs": [
        {
          "internalType": "bool",
          "name": "",
          "type": "bool"
        }
      ],
      "stateMutability": "nonpayable",
      "type": "function"
    },
    {
      "inputs": [
        {
          "internalType": "uint256",
          "name": "_id",
          "type": "uint256"
        }
      ],
      "name": "placeBid",
      "outputs": [],
      "stateMutability": "payable",
      "type": "function",
      "payable": true
    },
    {
      "inputs": [
        {
          "internalType": "uint256",
          "name": "_id",
          "type": "uint256"
        }
      ],
      "name": "closeAuction",
      "outputs": [],
      "stateMutability": "payable",
      "type": "function",
      "payable": true
    },
    {
      "inputs": [
        {
          "internalType": "uint256",
          "name": "_id",
          "type": "uint256"
        }
      ],
      "name": "closeAuctionOwner",
      "outputs": [],
      "stateMutability": "payable",
      "type": "function",
      "payable": true
    },
    {
      "inputs": [],
      "name": "getnow",
      "outputs": [
        {
          "internalType": "uint256",
          "name": "",
          "type": "uint256"
        }
      ],
      "stateMutability": "view",
      "type": "function",
      "constant": true
    }
  ],
  "bytecode": "0x60806040526000600155600060025534801561001a57600080fd5b50612b3e8061002a6000396000f3fe6080604052600436106100dd5760003560e01c80636d4ce63c1161007f57806385aeb5b21161005957806385aeb5b2146102a5578063881cf122146102e25780639979ef451461030d578063e0f6ef8714610329576100dd565b80636d4ce63c14610216578063725cb391146102415780637acc0b201461025d576100dd565b80634daf44cd116100bb5780634daf44cd146101455780634ed3885e14610182578063553275be146101ab57806365c06f70146101ed576100dd565b80630f322c1e146100e2578063236ed8f31461010d5780633cb57f3614610129575b600080fd5b3480156100ee57600080fd5b506100f7610354565b6040516101049190612337565b60405180910390f35b61012760048036038101906101229190611b09565b61035a565b005b610143600480360381019061013e91906119df565b61053f565b005b34801561015157600080fd5b5061016c60048036038101906101679190611b09565b6108d0565b60405161017991906121d1565b60405180910390f35b34801561018e57600080fd5b506101a960048036038101906101a491906118af565b61097c565b005b3480156101b757600080fd5b506101d260048036038101906101cd9190611b09565b6109d2565b6040516101e496959493929190612352565b60405180910390f35b3480156101f957600080fd5b50610214600480360381019061020f91906118f0565b610cb6565b005b34801561022257600080fd5b5061022b610db7565b60405161023891906121d1565b60405180910390f35b61025b60048036038101906102569190611b09565b610e49565b005b34801561026957600080fd5b50610284600480360381019061027f9190611b09565b610fd8565b60405161029c9c9b9a999897969594939291906123d6565b60405180910390f35b3480156102b157600080fd5b506102cc60048036038101906102c79190611873565b611384565b6040516102d991906121b6565b60405180910390f35b3480156102ee57600080fd5b506102f76113c8565b6040516103049190612337565b60405180910390f35b61032760048036038101906103229190611b09565b6113dd565b005b34801561033557600080fd5b5061033e611738565b60405161034b9190612337565b60405180910390f35b60025481565b60006004600083815260200190815260200160002090506103e84261037f9190612593565b8160080160030154106103c7576040517f08c379a00000000000000000000000000000000000000000000000000000000081526004016103be906122d3565b60405180910390fd5b8060060160009054906101000a900473ffffffffffffffffffffffffffffffffffffffff1673ffffffffffffffffffffffffffffffffffffffff163373ffffffffffffffffffffffffffffffffffffffff1614610459576040517f08c379a0000000000000000000000000000000000000000000000000000000008152600401610450906121f3565b60405180910390fd5b8060080160020154816005015461047091906125ed565b81600501819055508060030160009054906101000a900473ffffffffffffffffffffffffffffffffffffffff1673ffffffffffffffffffffffffffffffffffffffff166108fc82600501549081150290604051600060405180830381858888f193505050501580156104e6573d6000803e3d6000fd5b5060018160030160146101000a81548160ff0219169083151502179055507f3f54b1ce9245e1bc6d3a49ac64be7c587091c2a882c11cd3abc3e8ce5ba7e270816040516105339190612315565b60405180910390a15050565b600088511161054d57600080fd5b6000871161055a57600080fd5b6001600081548092919061056d906127ad565b9190505550600154600460006001548152602001908152602001600020600001819055508760046000600154815260200190815260200160002060010190805190602001906105bd92919061173e565b5086600460006001548152602001908152602001600020600201819055503360046000600154815260200190815260200160002060030160006101000a81548173ffffffffffffffffffffffffffffffffffffffff021916908373ffffffffffffffffffffffffffffffffffffffff160217905550600060046000600154815260200190815260200160002060030160146101000a81548160ff0219169083151502179055506103e8426106719190612593565b600460006001548152602001908152602001600020600401819055508660046000600154815260200190815260200160002060050181905550600060046000600154815260200190815260200160002060060160006101000a81548173ffffffffffffffffffffffffffffffffffffffff021916908373ffffffffffffffffffffffffffffffffffffffff1602179055506103e8426107109190612593565b6004600060015481526020019081526020016000206007018190555085600460006001548152602001908152602001600020600801600001908051906020019061075b92919061173e565b5084600460006001548152602001908152602001600020600801600101908051906020019061078b92919061173e565b506000600460006001548152602001908152602001600020600e018190555083600460006001548152602001908152602001600020600f0190805190602001906107d692919061173e565b508260046000600154815260200190815260200160002060080160020181905550816004600060015481526020019081526020016000206008016003018190555080600460006001548152602001908152602001600020600801600401908051906020019061084692919061173e565b50600060046000600154815260200190815260200160002060080160050160006101000a81548160ff0219169083151502179055507f3f54b1ce9245e1bc6d3a49ac64be7c587091c2a882c11cd3abc3e8ce5ba7e2706004600060015481526020019081526020016000206040516108be91906122f3565b60405180910390a15050505050505050565b600081815481106108e057600080fd5b9060005260206000200160009150905080546108fb906126e2565b80601f0160208091040260200160405190810160405280929190818152602001828054610927906126e2565b80156109745780601f1061094957610100808354040283529160200191610974565b820191906000526020600020905b81548152906001019060200180831161095757829003601f168201915b505050505081565b806003908051906020019061099292919061173e565b506000819080600181540180825580915050600190039060005260206000200160009091909190915090805190602001906109ce92919061173e565b5050565b60056020528060005260406000206000915090508060000154908060010180546109fb906126e2565b80601f0160208091040260200160405190810160405280929190818152602001828054610a27906126e2565b8015610a745780601f10610a4957610100808354040283529160200191610a74565b820191906000526020600020905b815481529060010190602001808311610a5757829003601f168201915b505050505090806002018054610a89906126e2565b80601f0160208091040260200160405190810160405280929190818152602001828054610ab5906126e2565b8015610b025780601f10610ad757610100808354040283529160200191610b02565b820191906000526020600020905b815481529060010190602001808311610ae557829003601f168201915b505050505090806003018054610b17906126e2565b80601f0160208091040260200160405190810160405280929190818152602001828054610b43906126e2565b8015610b905780601f10610b6557610100808354040283529160200191610b90565b820191906000526020600020905b815481529060010190602001808311610b7357829003601f168201915b505050505090806004018054610ba5906126e2565b80601f0160208091040260200160405190810160405280929190818152602001828054610bd1906126e2565b8015610c1e5780601f10610bf357610100808354040283529160200191610c1e565b820191906000526020600020905b815481529060010190602001808311610c0157829003601f168201915b505050505090806005018054610c33906126e2565b80601f0160208091040260200160405190810160405280929190818152602001828054610c5f906126e2565b8015610cac5780601f10610c8157610100808354040283529160200191610cac565b820191906000526020600020905b815481529060010190602001808311610c8f57829003601f168201915b5050505050905086565b60026000815480929190610cc9906127ad565b91905055506040518060c00160405280600254815260200182815260200186815260200185815260200184815260200183815250600560006002548152602001908152602001600020600082015181600001556020820151816001019080519060200190610d3892919061173e565b506040820151816002019080519060200190610d5592919061173e565b506060820151816003019080519060200190610d7292919061173e565b506080820151816004019080519060200190610d8f92919061173e565b5060a0820151816005019080519060200190610dac92919061173e565b509050505050505050565b606060038054610dc6906126e2565b80601f0160208091040260200160405190810160405280929190818152602001828054610df2906126e2565b8015610e3f5780601f10610e1457610100808354040283529160200191610e3f565b820191906000526020600020905b815481529060010190602001808311610e2257829003601f168201915b5050505050905090565b60006004600083815260200190815260200160002090508060030160009054906101000a900473ffffffffffffffffffffffffffffffffffffffff1673ffffffffffffffffffffffffffffffffffffffff163373ffffffffffffffffffffffffffffffffffffffff1614610ef2576040517f08c379a0000000000000000000000000000000000000000000000000000000008152600401610ee990612213565b60405180910390fd5b80600801600201548160050154610f0991906125ed565b81600501819055508060030160009054906101000a900473ffffffffffffffffffffffffffffffffffffffff1673ffffffffffffffffffffffffffffffffffffffff166108fc82600501549081150290604051600060405180830381858888f19350505050158015610f7f573d6000803e3d6000fd5b5060018160030160146101000a81548160ff0219169083151502179055507f3f54b1ce9245e1bc6d3a49ac64be7c587091c2a882c11cd3abc3e8ce5ba7e27081604051610fcc9190612315565b60405180910390a15050565b6004602052806000526040600020600091509050806000015490806001018054611001906126e2565b80601f016020809104026020016040519081016040528092919081815260200182805461102d906126e2565b801561107a5780601f1061104f5761010080835404028352916020019161107a565b820191906000526020600020905b81548152906001019060200180831161105d57829003601f168201915b5050505050908060020154908060030160009054906101000a900473ffffffffffffffffffffffffffffffffffffffff16908060030160149054906101000a900460ff16908060040154908060050154908060060160009054906101000a900473ffffffffffffffffffffffffffffffffffffffff1690806007015490806008016040518060c0016040529081600082018054611116906126e2565b80601f0160208091040260200160405190810160405280929190818152602001828054611142906126e2565b801561118f5780601f106111645761010080835404028352916020019161118f565b820191906000526020600020905b81548152906001019060200180831161117257829003601f168201915b505050505081526020016001820180546111a8906126e2565b80601f01602080910402602001604051908101604052809291908181526020018280546111d4906126e2565b80156112215780601f106111f657610100808354040283529160200191611221565b820191906000526020600020905b81548152906001019060200180831161120457829003601f168201915b50505050508152602001600282015481526020016003820154815260200160048201805461124e906126e2565b80601f016020809104026020016040519081016040528092919081815260200182805461127a906126e2565b80156112c75780601f1061129c576101008083540402835291602001916112c7565b820191906000526020600020905b8154815290600101906020018083116112aa57829003601f168201915b505050505081526020016005820160009054906101000a900460ff1615151515815250509080600e01549080600f018054611301906126e2565b80601f016020809104026020016040519081016040528092919081815260200182805461132d906126e2565b801561137a5780601f1061134f5761010080835404028352916020019161137a565b820191906000526020600020905b81548152906001019060200180831161135d57829003601f168201915b505050505090508c565b60008173ffffffffffffffffffffffffffffffffffffffff168373ffffffffffffffffffffffffffffffffffffffff16146113be57600080fd5b6001905092915050565b60006103e8426113d89190612593565b905090565b6000600460008381526020019081526020016000209050600f81600701546103e8426114099190612593565b61141391906125ed565b1015611454576040517f08c379a000000000000000000000000000000000000000000000000000000000815260040161144b90612273565b60405180910390fd5b80600801600301546103e84261146a9190612593565b106114aa576040517f08c379a00000000000000000000000000000000000000000000000000000000081526004016114a1906122b3565b60405180910390fd5b80600201543410156114f1576040517f08c379a00000000000000000000000000000000000000000000000000000000081526004016114e890612253565b60405180910390fd5b8060060160009054906101000a900473ffffffffffffffffffffffffffffffffffffffff1673ffffffffffffffffffffffffffffffffffffffff163373ffffffffffffffffffffffffffffffffffffffff161415611584576040517f08c379a000000000000000000000000000000000000000000000000000000000815260040161157b90612293565b60405180910390fd5b80600501543410156115cb576040517f08c379a00000000000000000000000000000000000000000000000000000000081526004016115c290612233565b60405180910390fd5b60008160050154111561165a578060060160009054906101000a900473ffffffffffffffffffffffffffffffffffffffff1673ffffffffffffffffffffffffffffffffffffffff166108fc8260080160020154836005015461162d91906125ed565b9081150290604051600060405180830381858888f19350505050158015611658573d6000803e3d6000fd5b505b80600801600201548160050154611671919061253d565b8160050181905550338160060160006101000a81548173ffffffffffffffffffffffffffffffffffffffff021916908373ffffffffffffffffffffffffffffffffffffffff1602179055506103e8426116ca9190612593565b8160070181905550600160046000848152602001908152602001600020600e01546116f5919061253d565b81600e01819055507f3f54b1ce9245e1bc6d3a49ac64be7c587091c2a882c11cd3abc3e8ce5ba7e2708160405161172c9190612315565b60405180910390a15050565b60015481565b82805461174a906126e2565b90600052602060002090601f01602090048101928261176c57600085556117b3565b82601f1061178557805160ff19168380011785556117b3565b828001600101855582156117b3579182015b828111156117b2578251825591602001919060010190611797565b5b5090506117c091906117c4565b5090565b5b808211156117dd5760008160009055506001016117c5565b5090565b60006117f46117ef846124ca565b6124a5565b90508281526020810184848401111561180c57600080fd5b6118178482856126a0565b509392505050565b60008135905061182e81612ada565b92915050565b600082601f83011261184557600080fd5b81356118558482602086016117e1565b91505092915050565b60008135905061186d81612af1565b92915050565b6000806040838503121561188657600080fd5b60006118948582860161181f565b92505060206118a58582860161181f565b9150509250929050565b6000602082840312156118c157600080fd5b600082013567ffffffffffffffff8111156118db57600080fd5b6118e784828501611834565b91505092915050565b600080600080600060a0868803121561190857600080fd5b600086013567ffffffffffffffff81111561192257600080fd5b61192e88828901611834565b955050602086013567ffffffffffffffff81111561194b57600080fd5b61195788828901611834565b945050604086013567ffffffffffffffff81111561197457600080fd5b61198088828901611834565b935050606086013567ffffffffffffffff81111561199d57600080fd5b6119a988828901611834565b925050608086013567ffffffffffffffff8111156119c657600080fd5b6119d288828901611834565b9150509295509295909350565b600080600080600080600080610100898b0312156119fc57600080fd5b600089013567ffffffffffffffff811115611a1657600080fd5b611a228b828c01611834565b9850506020611a338b828c0161185e565b975050604089013567ffffffffffffffff811115611a5057600080fd5b611a5c8b828c01611834565b965050606089013567ffffffffffffffff811115611a7957600080fd5b611a858b828c01611834565b955050608089013567ffffffffffffffff811115611aa257600080fd5b611aae8b828c01611834565b94505060a0611abf8b828c0161185e565b93505060c0611ad08b828c0161185e565b92505060e089013567ffffffffffffffff811115611aed57600080fd5b611af98b828c01611834565b9150509295985092959890939650565b600060208284031215611b1b57600080fd5b6000611b298482850161185e565b91505092915050565b611b3b81612658565b82525050565b611b4a81612658565b82525050565b611b598161266a565b82525050565b611b688161266a565b82525050565b6000611b7982612510565b611b83818561251b565b9350611b938185602086016126af565b611b9c81612883565b840191505092915050565b6000611bb282612510565b611bbc818561252c565b9350611bcc8185602086016126af565b611bd581612883565b840191505092915050565b60008154611bed816126e2565b611bf7818661251b565b94506001821660008114611c125760018114611c2457611c57565b60ff1983168652602086019350611c57565b611c2d856124fb565b60005b83811015611c4f57815481890152600182019150602081019050611c30565b808801955050505b50505092915050565b6000611c6d602a8361252c565b9150611c78826128ae565b604082019050919050565b6000611c90602a8361252c565b9150611c9b826128fd565b604082019050919050565b6000611cb360278361252c565b9150611cbe8261294c565b604082019050919050565b6000611cd660328361252c565b9150611ce18261299b565b604082019050919050565b6000611cf960048361252c565b9150611d04826129ea565b602082019050919050565b6000611d1c60218361252c565b9150611d2782612a13565b604082019050919050565b6000611d3f60038361252c565b9150611d4a82612a62565b602082019050919050565b6000611d6260238361252c565b9150611d6d82612a8b565b604082019050919050565b600060c0830160008301518482036000860152611d958282611b6e565b91505060208301518482036020860152611daf8282611b6e565b9150506040830151611dc46040860182612198565b506060830151611dd76060860182612198565b5060808301518482036080860152611def8282611b6e565b91505060a0830151611e0460a0860182611b50565b508091505092915050565b600060c0830160008084018583036000870152611e2c8382611be0565b925050600184018583036020870152611e458382611be0565b92505060028401549050611e5881612748565b611e656040870182612198565b5060038401549050611e7681612748565b611e836060870182612198565b50600484018583036080870152611e9a8382611be0565b92505060058401549050611ead8161272e565b611eba60a0870182611b50565b50819250505092915050565b600061018083016000808401549050611ede81612748565b611eeb6000870182612198565b50600184018583036020870152611f028382611be0565b92505060028401549050611f1581612748565b611f226040870182612198565b5060038401549050611f3381612714565b611f406060870182611b32565b50611f4a81612762565b611f576080870182611b50565b5060048401549050611f6881612748565b611f7560a0870182612198565b5060058401549050611f8681612748565b611f9360c0870182612198565b5060068401549050611fa481612714565b611fb160e0870182611b32565b5060078401549050611fc281612748565b611fd0610100870182612198565b5060088401858303610120870152611fe88382611e0f565b925050600e8401549050611ffb81612748565b612009610140870182612198565b50600f84018583036101608701526120218382611be0565b925050819250505092915050565b60006101808301600080840154905061204781612748565b6120546000870182612198565b5060018401858303602087015261206b8382611be0565b9250506002840154905061207e81612748565b61208b6040870182612198565b506003840154905061209c81612714565b6120a96060870182611b32565b506120b381612762565b6120c06080870182611b50565b50600484015490506120d181612748565b6120de60a0870182612198565b50600584015490506120ef81612748565b6120fc60c0870182612198565b506006840154905061210d81612714565b61211a60e0870182611b32565b506007840154905061212b81612748565b612139610100870182612198565b50600884018583036101208701526121518382611e0f565b925050600e840154905061216481612748565b612172610140870182612198565b50600f840185830361016087015261218a8382611be0565b925050819250505092915050565b6121a181612696565b82525050565b6121b081612696565b82525050565b60006020820190506121cb6000830184611b5f565b92915050565b600060208201905081810360008301526121eb8184611ba7565b905092915050565b6000602082019050818103600083015261220c81611c60565b9050919050565b6000602082019050818103600083015261222c81611c83565b9050919050565b6000602082019050818103600083015261224c81611ca6565b9050919050565b6000602082019050818103600083015261226c81611cc9565b9050919050565b6000602082019050818103600083015261228c81611cec565b9050919050565b600060208201905081810360008301526122ac81611d0f565b9050919050565b600060208201905081810360008301526122cc81611d32565b9050919050565b600060208201905081810360008301526122ec81611d55565b9050919050565b6000602082019050818103600083015261230d818461202f565b905092915050565b6000602082019050818103600083015261232f8184611ec6565b905092915050565b600060208201905061234c60008301846121a7565b92915050565b600060c08201905061236760008301896121a7565b81810360208301526123798188611ba7565b9050818103604083015261238d8187611ba7565b905081810360608301526123a18186611ba7565b905081810360808301526123b58185611ba7565b905081810360a08301526123c98184611ba7565b9050979650505050505050565b6000610180820190506123ec600083018f6121a7565b81810360208301526123fe818e611ba7565b905061240d604083018d6121a7565b61241a606083018c611b41565b612427608083018b611b5f565b61243460a083018a6121a7565b61244160c08301896121a7565b61244e60e0830188611b41565b61245c6101008301876121a7565b81810361012083015261246f8186611d78565b905061247f6101408301856121a7565b8181036101608301526124928184611ba7565b90509d9c50505050505050505050505050565b60006124af6124c0565b90506124bb828261277c565b919050565b6000604051905090565b600067ffffffffffffffff8211156124e5576124e4612854565b5b6124ee82612883565b9050602081019050919050565b60008190508160005260206000209050919050565b600081519050919050565b600082825260208201905092915050565b600082825260208201905092915050565b600061254882612696565b915061255383612696565b9250827fffffffffffffffffffffffffffffffffffffffffffffffffffffffffffffffff03821115612588576125876127f6565b5b828201905092915050565b600061259e82612696565b91506125a983612696565b9250817fffffffffffffffffffffffffffffffffffffffffffffffffffffffffffffffff04831182151516156125e2576125e16127f6565b5b828202905092915050565b60006125f882612696565b915061260383612696565b925082821015612616576126156127f6565b5b828203905092915050565b600073ffffffffffffffffffffffffffffffffffffffff82169050919050565b600060ff82169050919050565b6000819050919050565b600061266382612676565b9050919050565b60008115159050919050565b600073ffffffffffffffffffffffffffffffffffffffff82169050919050565b6000819050919050565b82818337600083830152505050565b60005b838110156126cd5780820151818401526020810190506126b2565b838111156126dc576000848401525b50505050565b600060028204905060018216806126fa57607f821691505b6020821081141561270e5761270d612825565b5b50919050565b600061272761272283612894565b612621565b9050919050565b600061274161273c83612894565b612641565b9050919050565b600061275b61275683612894565b61264e565b9050919050565b6000612775612770836128a1565b612641565b9050919050565b61278582612883565b810181811067ffffffffffffffff821117156127a4576127a3612854565b5b80604052505050565b60006127b882612696565b91507fffffffffffffffffffffffffffffffffffffffffffffffffffffffffffffffff8214156127eb576127ea6127f6565b5b600182019050919050565b7f4e487b7100000000000000000000000000000000000000000000000000000000600052601160045260246000fd5b7f4e487b7100000000000000000000000000000000000000000000000000000000600052602260045260246000fd5b7f4e487b7100000000000000000000000000000000000000000000000000000000600052604160045260246000fd5b6000601f19601f8301169050919050565b60008160001c9050919050565b60008160a01c9050919050565b7f796f7520617265206e6f7420656c696769626c6520746f20636c61696d20746860008201527f69732070726f6475637400000000000000000000000000000000000000000000602082015250565b7f796f7520617265206e6f7420656c696769626c6520746f20636c6f736520746860008201527f69732061756374696f6e00000000000000000000000000000000000000000000602082015250565b7f6269672076616c7565206e6f742067726561746572207468616e20707265766960008201527f6f75732062696400000000000000000000000000000000000000000000000000602082015250565b7f6269642076616c75652073686f756c646e2774206265206c657373207468616e60008201527f2074686520726573657276652076616c75650000000000000000000000000000602082015250565b7f6162636400000000000000000000000000000000000000000000000000000000600082015250565b7f6269646465722063616e2774206f757420736f207468656972206f776e20626960008201527f6400000000000000000000000000000000000000000000000000000000000000602082015250565b7f6566670000000000000000000000000000000000000000000000000000000000600082015250565b7f62696464696e6720666f722070726f64756374206973206e6f74206f7665722060008201527f7965740000000000000000000000000000000000000000000000000000000000602082015250565b612ae381612658565b8114612aee57600080fd5b50565b612afa81612696565b8114612b0557600080fd5b5056fea2646970667358221220f8552af35a7cae87ec2973e79ce7a3a995b98759ab7ed10c33801aaa7dd9313464736f6c63430008040033",
  "immutableReferences": {},
  "source": "pragma solidity ^0.8.4;\r\npragma experimental ABIEncoderV2;\r\ncontract Auction {\r\n\r\n    string[] public arrayhashes;\r\n\r\n\r\n    uint public productCount = 0;\r\n    uint public usercount = 0;\r\n    string hash;\r\n\r\n     function set(string memory _hash) public {\r\n        hash = _hash;\r\n        arrayhashes.push(_hash);\r\n    }\r\n\r\n    //read function\r\n    function get() public view returns (string memory) {\r\n    return hash;\r\n  }\r\n    \r\n    mapping(uint => Product) public products;\r\n    mapping(uint => User)public user;\r\n\r\n    struct User{\r\n        uint id;\r\n        string productname;\r\n        string name;\r\n        string email;\r\n        string addres;\r\n        string location;\r\n        \r\n    }\r\n   \r\n    struct Product {\r\n        uint Id;\r\n        string name;\r\n        uint baseprice;\r\n        address payable owner;\r\n        bool purchased;\r\n        uint createdAt;\r\n        uint currentBid;\r\n        address payable currentBidder;\r\n        uint currentbidtime;\r\n        Information infoArray;\r\n        uint bidcount;\r\n        string publickey;\r\n    }\r\n\r\n    struct Information {\r\n        string discription;\r\n        string category;\r\n        uint bidinc;\r\n        uint endtime;\r\n        string hash;\r\n        bool claimed;\r\n        \r\n    }\r\n    \r\n    event ProductCreated(\r\n        uint Id,\r\n        string name,\r\n        uint baseprice,\r\n        address owner,\r\n        bool purchased,\r\n        string discription,\r\n        uint bidcount,\r\n        string category\r\n    );\r\n    \r\n    event bidplaced(\r\n        uint Id,\r\n        string name,\r\n        uint baseprice,\r\n        address payable owner,\r\n        bool purchased,\r\n        uint createdAt,\r\n        uint currentBid,\r\n        address payable currentBidder,\r\n        uint bidcount,\r\n        string category\r\n        );\r\n        \r\n    event closeauction (\r\n        uint Id,\r\n        string name,\r\n        uint baseprice,\r\n        bool purchased,\r\n        uint currentBid,\r\n        address payable currentBidder,\r\n        uint bidcount,\r\n        string category\r\n        );\r\n        \r\n    event ProductEvent (Product);\r\n    \r\n    modifier Auctionactive (uint _id){\r\n        require(block.timestamp - products[_id].createdAt <= 200  );\r\n        _;\r\n    }\r\n\r\n    function createUser(string memory _name,string memory _email,string memory _address,string memory _location ,string memory _productname) public {\r\n        usercount++;\r\n        user[usercount] = User(usercount,_productname,_name,_email,_address, _location);\r\n    }\r\n\r\n    function createProduct(string memory _name, uint _baseprice, string memory _discription, string memory _category, string memory _publickey, uint _bidinc, uint _etime, string memory _hash) public payable{\r\n        //verify the product\r\n        require(bytes(_name).length > 0);\r\n        require(_baseprice >0);\r\n        //increment productCount\r\n\r\n        productCount++;\r\n        products[productCount].Id = productCount;\r\n        products[productCount].name =_name;\r\n        products[productCount].baseprice =_baseprice;\r\n        products[productCount].owner = payable(msg.sender);\r\n        products[productCount].purchased =false;\r\n        products[productCount].createdAt =block.timestamp*1000;\r\n        products[productCount].currentBid = _baseprice ;\r\n        products[productCount].currentBidder = payable(0);\r\n        products[productCount].currentbidtime =block.timestamp*1000;\r\n        products[productCount].infoArray.discription =_discription;\r\n        products[productCount].infoArray.category =_category;\r\n        products[productCount].bidcount = 0;\r\n        products[productCount].publickey = _publickey;\r\n        products[productCount].infoArray.bidinc = _bidinc;\r\n        products[productCount].infoArray.endtime =  _etime;\r\n        products[productCount].infoArray.hash = _hash;\r\n        products[productCount].infoArray.claimed = false;\r\n        \r\n        //create the product\r\n        //products[productCount] = Product(productCount,_name,_baseprice,msg.sender,false, block.timestamp,_baseprice,msg.sender,block.timestamp, _discription,0, _category);\r\n       \r\n        //trigger an event\r\n        //emit ProductCreated(productCount,_name,_baseprice,msg.sender,false,_discription,0, _category);\r\n        \r\n        emit ProductEvent(products[productCount]);\r\n    \r\n    }\r\n    \r\n    modifier validAuction(uint _id) {\r\n        products[_id].Id <= productCount;\r\n        _;\r\n    }\r\n\r\n    modifier validbid(uint _id){\r\n        require (block.timestamp*1000 - products[_id].currentbidtime >= 15 seconds);\r\n        _;\r\n    }\r\n\r\n\r\n    function checkvalidity (address payable _owner, address payable _account ) public returns (bool){\r\n\r\n        require(_owner == _account);\r\n\r\n\r\n        return true;\r\n    }\r\n    \r\n    function placeBid (uint _id)  payable public{\r\n        \r\n        Product storage product = products[_id];\r\n\r\n        //difference between bids should be greater than 15 seconds\r\n        require(block.timestamp*1000 - product.currentbidtime >= 15 seconds, \"abcd\");\r\n        \r\n        require(block.timestamp*1000 < product.infoArray.endtime , \"efg\");\r\n        \r\n         // bid should be greater than minPrice\r\n        require(msg.value>=product.baseprice,\"bid value shouldn't be less than the reserve value\");\r\n        \r\n        // you should not be the last bidder , no point in outdoing your own bid\r\n        require(msg.sender != product.currentBidder,\"bidder can't out so their own bid\");\r\n        \r\n        // the incoming value should be greater than previous bid\r\n        require(msg.value >= product.currentBid,\"big value not greater than previous bid\"); \r\n        \r\n        \r\n        \r\n        if(product.currentBid>0){\r\n            product.currentBidder.transfer(product.currentBid -    (product.infoArray.bidinc)  );\r\n        }\r\n        \r\n        product.currentBid =  product.currentBid +   (product.infoArray.bidinc)   ;\r\n        \r\n        \r\n\r\n        \r\n        product.currentBidder = payable(msg.sender);\r\n        product.currentbidtime = block.timestamp*1000;\r\n        product.bidcount = products[_id].bidcount + 1;\r\n        \r\n        \r\n        emit ProductEvent(product);\r\n    \r\n        \r\n        //emit bidplaced(_id,products[_id].name,products[_id].baseprice,products[_id].owner,products[_id].purchased,block.timestamp,\r\n        //products[_id].currentBid,products[_id].currentBidder,products[_id].bidcount, products[_id].infoArray.category  );\r\n        \r\n    }\r\n    \r\n    function closeAuction(uint _id) payable public  {\r\n        //require(block.timestamp - products[_id].createdAt >= 120, \"auction not ended\"  );\r\n\r\n         Product storage product = products[_id];\r\n        \r\n        //bidding time\r\n        require(product.infoArray.endtime < block.timestamp*1000,\"bidding for product is not over yet\");\r\n        \r\n        //claimer must be bidder\r\n        \r\n        require(msg.sender == product.currentBidder,\"you are not eligible to claim this product\");\r\n        \r\n        product.currentBid = product.currentBid  -   (product.infoArray.bidinc) ;\r\n        \r\n        // money sent to seller\r\n        product.owner.transfer(product.currentBid);\r\n        \r\n        // set product status sold to true\r\n        product.purchased = true;\r\n        \r\n        \r\n        emit ProductEvent(product);\r\n         \r\n        \r\n        \r\n        //emit closeauction(_product.Id,_product.name ,_product.baseprice,true,_product.currentBid, _product.owner,products[_id].bidcount ,products[_id].infoArray.category);\r\n\r\n    }\r\n    \r\n    \r\n     function closeAuctionOwner(uint _id) payable public  {\r\n\r\n         Product storage product = products[_id];\r\n        \r\n        //claimer must be owner\r\n        \r\n        require(msg.sender == product.owner,\"you are not eligible to close this auction\");\r\n        \r\n        product.currentBid = product.currentBid  -   (product.infoArray.bidinc) ;\r\n        \r\n        // money sent to seller\r\n        product.owner.transfer(product.currentBid);\r\n        \r\n        // set product status sold to true\r\n        product.purchased = true;\r\n        \r\n        \r\n        emit ProductEvent(product);\r\n         \r\n        \r\n        \r\n        //emit closeauction(_product.Id,_product.name ,_product.baseprice,true,_product.currentBid, _product.owner,products[_id].bidcount ,products[_id].infoArray.category);\r\n\r\n    }\r\n\r\n    \r\n    function getnow()view public returns(uint) {\r\n        return block.timestamp*1000;\r\n    }\r\n    \r\n}",
  "sourcePath": "/Users/preritrawtani/Desktop/blockchain/Auction/src/contracts/Auction.sol",
  "compiler": {
    "name": "solc",
    "version": "0.8.4+commit.c7e474f2.Emscripten.clang"
  },
  "schemaVersion": "3.4.0",
  "updatedAt": "2021-09-06T12:52:20.147Z",
  "networkType": "ethereum",
  "devdoc": {
    "kind": "dev",
    "methods": {},
    "version": 1
  },
  "userdoc": {
    "kind": "user",
    "methods": {},
    "version": 1
  }
}